{
  "_format": "hh-sol-artifact-1",
  "contractName": "FetcherV2",
  "sourceName": "contracts/FetcherV2.sol",
  "abi": [
    {
      "anonymous": false,
      "inputs": [
        {
          "indexed": true,
          "internalType": "bytes32",
          "name": "ORACLE",
          "type": "bytes32"
        },
        {
          "indexed": false,
          "internalType": "uint256",
          "name": "proofBlock",
          "type": "uint256"
        },
        {
          "indexed": false,
          "internalType": "uint256",
          "name": "dataTime",
          "type": "uint256"
        },
        {
          "indexed": false,
          "internalType": "uint256",
          "name": "basePriceCumulative",
          "type": "uint256"
        }
      ],
      "name": "Submit",
      "type": "event"
    },
    {
      "inputs": [
        {
          "internalType": "uint256",
          "name": "ORACLE",
          "type": "uint256"
        }
      ],
      "name": "clear",
      "outputs": [],
      "stateMutability": "nonpayable",
      "type": "function"
    },
    {
      "inputs": [
        {
          "internalType": "uint256",
          "name": "ORACLE",
          "type": "uint256"
        }
      ],
      "name": "ensureStateIntegrity",
      "outputs": [],
      "stateMutability": "view",
      "type": "function"
    },
    {
      "inputs": [
        {
          "internalType": "uint256",
          "name": "ORACLE",
          "type": "uint256"
        }
      ],
      "name": "fetch",
      "outputs": [
        {
          "internalType": "uint256",
          "name": "twap",
          "type": "uint256"
        },
        {
          "internalType": "uint256",
          "name": "spot",
          "type": "uint256"
        }
      ],
      "stateMutability": "view",
      "type": "function"
    },
    {
      "inputs": [
        {
          "internalType": "uint256",
          "name": "ORACLE",
          "type": "uint256"
        },
        {
          "components": [
            {
              "internalType": "bytes",
              "name": "block",
              "type": "bytes"
            },
            {
              "internalType": "bytes",
              "name": "accountProofNodesRlp",
              "type": "bytes"
            },
            {
              "internalType": "bytes",
              "name": "reserveAndTimestampProofNodesRlp",
              "type": "bytes"
            },
            {
              "internalType": "bytes",
              "name": "priceAccumulatorProofNodesRlp",
              "type": "bytes"
            }
          ],
          "internalType": "struct FetcherV2.ProofData",
          "name": "proofData",
          "type": "tuple"
        }
      ],
      "name": "submit",
      "outputs": [],
      "stateMutability": "nonpayable",
      "type": "function"
    }
  ],
  "bytecode": "0x608060405234801561001057600080fd5b50611dfd806100206000396000f3fe608060405234801561001057600080fd5b506004361061004c5760003560e01c8063209ae6a8146100515780637a33e3b014610066578063c0fe1af814610090578063e2c1ba1c146100a3575b600080fd5b61006461005f366004611ab8565b6100b6565b005b610079610074366004611ab8565b61010b565b604051610087929190611d3a565b60405180910390f35b61006461009e366004611ab8565b61033f565b6100646100b1366004611ae8565b610387565b60008181526020819052604090205460ff1615610108576040517f08c379a00000000000000000000000000000000000000000000000000000000081526004016100ff90611c11565b60405180910390fd5b50565b600081815260208190526040812054819060c084901c90610100900467ffffffffffffffff164363ffffffff831682011015610173576040517f08c379a00000000000000000000000000000000000000000000000000000000081526004016100ff90611c7f565b43637fffffff600184901c16820111156101b9576040517f08c379a00000000000000000000000000000000000000000000000000000000081526004016100ff90611cb6565b8460ff81901c6000806101cc8484610782565b60008b81526020819052604090205491935063ffffffff169150690100000000000000000090046fffffffffffffffffffffffffffffffff1681811061023e576040517f08c379a00000000000000000000000000000000000000000000000000000000081526004016100ff90611ba3565b60008a8152600160205260409020546010908284039085038161025d57fe5b04901b98506000808673ffffffffffffffffffffffffffffffffffffffff16630902f1ac6040518163ffffffff1660e01b815260040160606040518083038186803b1580156102ab57600080fd5b505afa1580156102bf573d6000803e3d6000fd5b505050506040513d601f19601f820116820180604052508101906102e39190611a64565b506dffffffffffffffffffffffffffff1691506dffffffffffffffffffffffffffff169150856000141561031357905b61032f70010000000000000000000000000000000082846109d8565b9950505050505050505050915091565b610348816100b6565b60009081526020818152604080832080547fffffffffffffff000000000000000000000000000000000000000000000000001690556001909152812055565b81610391816100b6565b600081815260208190526040812080547fffffffffffffffffffffffffffffffffffffffffffffffffffffffffffffff00166001179055806103d38585610aa6565b909250905060c085901c63ffffffff8116430382101561041f576040517f08c379a00000000000000000000000000000000000000000000000000000000081526004016100ff90611bda565b637fffffff600182901c164303821115610465576040517f08c379a00000000000000000000000000000000000000000000000000000000081526004016100ff90611b6c565b5060008581526020818152604080832080547fffffffffffffffffffffffffffffffffffffffffffffff0000000000000000ff1661010067ffffffffffffffff87160217905551610547916105429161053d9187916104e6916104cb9160089101611b63565b60405160208183030381529060405280519060200120610b98565b6105386105336104f960408d018d611d48565b8080601f016020809104026020016040519081016040528093929190818152602001838380828437600092019190915250610bcd92505050565b610bf3565b610cdb565b610bcd565b61104e565b60008781526020819052604090205490915060e082901c90690100000000000000000090046fffffffffffffffffffffffffffffffff16818111156105b8576040517f08c379a00000000000000000000000000000000000000000000000000000000081526004016100ff90611ced565b8082141561060a578760001b7fb0e292d4b4fe2ac9a9a5725b633044a008f2f62f8fcaaf711b7abfc4b4b93a7e856000806040516105f893929190611d24565b60405180910390a2505050505061074a565b50600087815260208190526040812080547fffffffffffffff00000000000000000000000000000000ffffffffffffffffff1669010000000000000000006fffffffffffffffffffffffffffffffff85160217905560ff88901c906001821461069a57600a60405160200161067f9190611b63565b604051602081830303815290604052805190602001206106c3565b60096040516020016106ac9190611b63565b604051602081830303815290604052805190602001205b905060006106f061054261053d896106da86610b98565b6105386105338f80606001906104f99190611d48565b60008b81526001602052604090819020829055519091508a907fb0e292d4b4fe2ac9a9a5725b633044a008f2f62f8fcaaf711b7abfc4b4b93a7e9061073a90899088908690611d24565b60405180910390a2505050505050505b600090815260208190526040902080547fffffffffffffffffffffffffffffffffffffffffffffffffffffffffffffff001690555050565b60008061078d61109c565b90508260011461081a578373ffffffffffffffffffffffffffffffffffffffff16635a3d54936040518163ffffffff1660e01b815260040160206040518083038186803b1580156107dd57600080fd5b505afa1580156107f1573d6000803e3d6000fd5b505050506040513d601f19601f820116820180604052508101906108159190611ad0565b610898565b8373ffffffffffffffffffffffffffffffffffffffff16635909c0d56040518163ffffffff1660e01b815260040160206040518083038186803b15801561086057600080fd5b505afa158015610874573d6000803e3d6000fd5b505050506040513d601f19601f820116820180604052508101906108989190611ad0565b915060008060008673ffffffffffffffffffffffffffffffffffffffff16630902f1ac6040518163ffffffff1660e01b815260040160606040518083038186803b1580156108e557600080fd5b505afa1580156108f9573d6000803e3d6000fd5b505050506040513d601f19601f8201168201806040525081019061091d9190611a64565b9250925092508363ffffffff168163ffffffff16146109ce578084036000600188146109825761097d6e010000000000000000000000000000866dffffffffffffffffffffffffffff16866dffffffffffffffffffffffffffff166109d8565b6109bc565b6109bc6e010000000000000000000000000000856dffffffffffffffffffffffffffff16876dffffffffffffffffffffffffffff166109d8565b90508163ffffffff1681028701965050505b5050509250929050565b600080807fffffffffffffffffffffffffffffffffffffffffffffffffffffffffffffffff85870986860292508281109083900303905080610a2c5760008411610a2157600080fd5b508290049050610a9f565b808411610a3857600080fd5b6000848688096000868103871696879004966002600389028118808a02820302808a02820302808a02820302808a02820302808a02820302808a02909103029181900381900460010186841190950394909402919094039290920491909117919091029150505b9392505050565b60008080610af1610ab78580611d48565b8080601f0160208091040260200160405190810160405280939291908181526020018383808284376000920191909152506110a692505050565b9350909150508140610b2f576040517f08c379a00000000000000000000000000000000000000000000000000000000081526004016100ff90611c48565b6060610b5c82610b49886040516020016104cb9190611b33565b6105386105336104f960208b018b611d48565b90506060610b6c61053383610bcd565b9050610b8b81600281518110610b7e57fe5b602002602001015161104e565b94505050505b9250929050565b6040805160218082526060828101909352602082018180368337019050509050816021820152610bc7816111db565b92915050565b610bd5611a4a565b5060408051808201909152815181526020828101908201525b919050565b6060610bfe82611379565b610c0757600080fd5b6000610c12836113b3565b905060608167ffffffffffffffff81118015610c2d57600080fd5b50604051908082528060200260200182016040528015610c6757816020015b610c54611a4a565b815260200190600190039081610c4c5790505b5090506000610c79856020015161140b565b60208601510190506000805b84811015610cd057610c96836114aa565b9150604051806040016040528083815260200184815250848281518110610cb957fe5b602090810291909101015291810191600101610c85565b509195945050505050565b60606000806060610cea611a4a565b8551610d37577f56e81f171bcc55a6ff8345e692c0f86e5b48e01b996cadc001622fb5e363b4218814610d1c57600080fd5b50506040805160008152602081019091529250610a9f915050565b60005b86518110156110425780158015610d6c5750610d68878281518110610d5b57fe5b602002602001015161157f565b8914155b15610d7657600080fd5b8015801590610da05750610d9c878281518110610d8f57fe5b602002602001015161158b565b8414155b15610daa57600080fd5b610dc6878281518110610db957fe5b6020026020010151610bf3565b9250825160021415610f355760006060610dfb610df686600081518110610de957fe5b60200260200101516115e0565b61165d565b90925090506000610e0d888c846116f3565b905080880197508151811015610e6d5760018a5103841015610e2e57600080fd5b6000805b506040519080825280601f01601f191660200182016040528015610e5d576020820181803683370190505b5098505050505050505050610a9f565b8215610ec45760018a5103841015610e8457600080fd5b8a51881015610e9557600080610e32565b85600181518110610ea257fe5b60200260200101519450610eb5856115e0565b98505050505050505050610a9f565b60018a5103841415610ed557600080fd5b610ef286600181518110610ee557fe5b6020026020010151611379565b610f1a57610f1386600181518110610f0657fe5b6020026020010151611790565b9650610f2d565b610f2a86600181518110610d5b57fe5b96505b50505061103a565b82516011141561103a578751851461100e576000888681518110610f5557fe5b01602001516001969096019560f81c905060108110610f7357600080fd5b610f92848260ff1681518110610f8557fe5b60200260200101516117a8565b15610fc45760018851038214610fa757600080fd5b50506040805160008152602081019091529450610a9f9350505050565b610fd6848260ff1681518110610ee557fe5b610ff357610fec848260ff1681518110610f0657fe5b9450611008565b611005848260ff1681518110610d5b57fe5b94505b5061103a565b6001875103811461101e57600080fd5b61102e83601081518110610de957fe5b95505050505050610a9f565b600101610d3a565b50505050509392505050565b80516000901580159061106357508151602110155b61106c57600080fd5b600080611078846117cb565b8151919350915060208210156110945760208290036101000a90045b949350505050565b63ffffffff421690565b6000806000611128565b7f08c379a00000000000000000000000000000000000000000000000000000000060005260206004528160245280604452816044016000fd5b600080825160001a608081106001811461110857801561111457611121565b84935060019250611121565b6001850193506080820392505b5050915091565b83516020850194607b8101906101e001611141816110e9565b01905061114d816110e9565b915081810161115b816110e9565b019050611167816110e9565b019050611173816110e9565b9150825160088502610100031c965086409350858a2095508584146111bd576111bd60147f626c6f636b4861736820213d20726c70486173680000000000000000000000006110b0565b84519850805160088302610100031c97505050505050509193909250565b6060808251600014156111ef579050610bee565b6000806111fd6000866117f1565b60f81c9050600181148061121457508060ff166003145b156112bb57600185516002020367ffffffffffffffff8111801561123757600080fd5b506040519080825280601f01601f191660200182016040528015611262576020820181803683370190505b50925060006112726001876117f1565b9050808460008151811061128257fe5b60200101907effffffffffffffffffffffffffffffffffffffffffffffffffffffffffffff1916908160001a905350600192505061130c565b600285516002020367ffffffffffffffff811180156112d957600080fd5b506040519080825280601f01601f191660200182016040528015611304576020820181803683370190505b509250600091505b60ff82165b835181101561136f5761132c8360ff168203600201876117f1565b84828151811061133857fe5b60200101907effffffffffffffffffffffffffffffffffffffffffffffffffffffffffffff1916908160001a905350600101611311565b5091949350505050565b805160009061138a57506000610bee565b6020820151805160001a9060c08210156113a957600092505050610bee565b5060019392505050565b80516000906113c457506000610bee565b6000806113d4846020015161140b565b602085015185519181019250015b80821015611402576113f3826114aa565b600190930192909101906113e2565b50909392505050565b8051600090811a6080811015611425576000915050610bee565b60b8811080611440575060c08110801590611440575060f881105b1561144f576001915050610bee565b60c0811015611481577fffffffffffffffffffffffffffffffffffffffffffffffffffffffffffffff4a019050610bee565b7fffffffffffffffffffffffffffffffffffffffffffffffffffffffffffffff0a019050610bee565b80516000908190811a60808110156114c55760019150611578565b60b88110156114f8577fffffffffffffffffffffffffffffffffffffffffffffffffffffffffffffff8181019150611578565b60c08110156115255760b78103600185019450806020036101000a85510460018201810193505050611578565b60f8811015611558577fffffffffffffffffffffffffffffffffffffffffffffffffffffffffffffff4181019150611578565b60f78103600185019450806020036101000a855104600182018101935050505b5092915050565b60208101519051902090565b60006020826000015110156115aa576115a38261157f565b9050610bee565b6115b38261157f565b6040516020016115c39190611b63565b604051602081830303815290604052805190602001209050610bee565b80516060906115ee57600080fd5b6000806115fa846117cb565b9150915060608167ffffffffffffffff8111801561161757600080fd5b506040519080825280601f01601f191660200182016040528015611642576020820181803683370190505b5090506020810161165484828561184e565b50949350505050565b60006060600083511161166f57600080fd5b600060048460008151811061168057fe5b60209101015160f81c901c600f1690506000816116a357506000925060026116dd565b81600114156116b857506000925060016116dd565b81600214156116cd57506001925060026116dd565b816003141561004c575060019250825b836116e886836118db565b935093505050915091565b6000805b83518582011080156117095750825181105b156110945782818151811061171a57fe5b602001015160f81c60f81b7effffffffffffffffffffffffffffffffffffffffffffffffffffffffffffff1916848683018151811061175557fe5b01602001517fff000000000000000000000000000000000000000000000000000000000000001614611788579050610a9f565b6001016116f7565b600080600061179e846117cb565b9020949350505050565b80516000906001146117bc57506000610bee565b50602001515160001a60801490565b60008060006117dd846020015161140b565b602085015194519481019594039392505050565b6000600283061561182257601082600285048151811061180d57fe5b016020015160f81c8161181c57fe5b06611844565b601082600285048151811061183357fe5b016020015160f81c8161184257fe5b045b60f81b9392505050565b80611858576118d6565b5b602081106118965782518252602092830192909101907fffffffffffffffffffffffffffffffffffffffffffffffffffffffffffffffe001611859565b80156118d6578251825160208390036101000a7fffffffffffffffffffffffffffffffffffffffffffffffffffffffffffffffff01801990921691161782525b505050565b606060008351116118eb57600080fd5b8251600202808311156118fd57600080fd5b8290038067ffffffffffffffff8111801561191757600080fd5b506040519080825280601f01601f191660200182016040528015611942576020820181803683370190505b5091506000835b828501811015611a3757600281066119c557600486600283048151811061196c57fe5b602001015160f81c60f81b60f81c60ff16901c600f1660f81b84838151811061199157fe5b60200101907effffffffffffffffffffffffffffffffffffffffffffffffffffffffffffff1916908160001a905350611a2b565b60008660028304815181106119d657fe5b602001015160f81c60f81b60f81c60ff16901c600f1660f81b8483815181106119fb57fe5b60200101907effffffffffffffffffffffffffffffffffffffffffffffffffffffffffffff1916908160001a9053505b60019182019101611949565b5082518114611a4257fe5b505092915050565b604051806040016040528060008152602001600081525090565b600080600060608486031215611a78578283fd5b8351611a8381611dab565b6020850151909350611a9481611dab565b604085015190925063ffffffff81168114611aad578182fd5b809150509250925092565b600060208284031215611ac9578081fd5b5035919050565b600060208284031215611ae1578081fd5b5051919050565b60008060408385031215611afa578182fd5b82359150602083013567ffffffffffffffff811115611b17578182fd5b830160808186031215611b28578182fd5b809150509250929050565b60609190911b7fffffffffffffffffffffffffffffffffffffffff00000000000000000000000016815260140190565b90815260200190565b60208082526009908201527f4e45575f50524f4f460000000000000000000000000000000000000000000000604082015260600190565b60208082526003908201527f4e4f570000000000000000000000000000000000000000000000000000000000604082015260600190565b60208082526009908201527f4f4c445f50524f4f460000000000000000000000000000000000000000000000604082015260600190565b6020808252601a908201527f4665746368657256323a2053544154455f494e54454752495459000000000000604082015260600190565b6020808252600d908201527f626c6f636b68617368203d203000000000000000000000000000000000000000604082015260600190565b60208082526003908201527f4f4c440000000000000000000000000000000000000000000000000000000000604082015260600190565b60208082526003908201527f4e45570000000000000000000000000000000000000000000000000000000000604082015260600190565b60208082526008908201527f4f4c445f44415441000000000000000000000000000000000000000000000000604082015260600190565b9283526020830191909152604082015260600190565b918252602082015260400190565b60008083357fffffffffffffffffffffffffffffffffffffffffffffffffffffffffffffffe1843603018112611d7c578283fd5b83018035915067ffffffffffffffff821115611d96578283fd5b602001915036819003821315610b9157600080fd5b6dffffffffffffffffffffffffffff8116811461010857600080fdfea2646970667358221220a023183870201072dd58f93ed3033d400fc9501be6c78aed156534d77ed00afd64736f6c634300060c0033",
  "linkReferences": {},
  "deployedLinkReferences": {}
}