{
  "_format": "hh-sol-artifact-1",
  "contractName": "FetcherV2",
  "sourceName": "contracts/FetcherV2.sol",
  "abi": [
    {
      "inputs": [
        {
          "internalType": "uint256",
          "name": "ORACLE",
          "type": "uint256"
        }
      ],
      "name": "fetch",
      "outputs": [
        {
          "internalType": "uint256",
          "name": "twap",
          "type": "uint256"
        },
        {
          "internalType": "uint256",
          "name": "spot",
          "type": "uint256"
        }
      ],
      "stateMutability": "view",
      "type": "function"
    },
    {
      "inputs": [
        {
          "internalType": "uint256",
          "name": "ORACLE",
          "type": "uint256"
        },
        {
          "components": [
            {
              "internalType": "bytes",
              "name": "block",
              "type": "bytes"
            },
            {
              "internalType": "bytes",
              "name": "accountProofNodesRlp",
              "type": "bytes"
            },
            {
              "internalType": "bytes",
              "name": "reserveAndTimestampProofNodesRlp",
              "type": "bytes"
            },
            {
              "internalType": "bytes",
              "name": "priceAccumulatorProofNodesRlp",
              "type": "bytes"
            }
          ],
          "internalType": "struct FetcherV2.ProofData",
          "name": "proofData",
          "type": "tuple"
        }
      ],
      "name": "submit",
      "outputs": [],
      "stateMutability": "nonpayable",
      "type": "function"
    }
  ],
  "bytecode": "0x608060405234801561001057600080fd5b50611b68806100206000396000f3fe608060405234801561001057600080fd5b50600436106100365760003560e01c80637a33e3b01461003b578063e2c1ba1c14610065575b600080fd5b61004e610049366004611813565b61007a565b60405161005c929190611ade565b60405180910390f35b610078610073366004611843565b610278565b005b600081815260016020526040812054819060c084901c904263ffffffff8316820110156100dc576040517f08c379a00000000000000000000000000000000000000000000000000000000081526004016100d390611a70565b60405180910390fd5b42637fffffff600184901c1682011115610122576040517f08c379a00000000000000000000000000000000000000000000000000000000081526004016100d390611aa7565b8460ff81901c60008061013584846104c2565b63ffffffff1691509150808510610178576040517f08c379a00000000000000000000000000000000000000000000000000000000081526004016100d390611994565b6000898152602081905260409020546010908683039084038161019757fe5b04901b97506000808573ffffffffffffffffffffffffffffffffffffffff16630902f1ac6040518163ffffffff1660e01b815260040160606040518083038186803b1580156101e557600080fd5b505afa1580156101f9573d6000803e3d6000fd5b505050506040513d601f19601f8201168201806040525081019061021d91906117bf565b506dffffffffffffffffffffffffffff1691506dffffffffffffffffffffffffffff169150846000141561024d57905b6102697001000000000000000000000000000000008284610718565b98505050505050505050915091565b816000808061028784866107e6565b925092509250610100430382116102ca576040517f08c379a00000000000000000000000000000000000000000000000000000000081526004016100d390611a02565b60c086901c63ffffffff81164203821015610311576040517f08c379a00000000000000000000000000000000000000000000000000000000081526004016100d3906119cb565b637fffffff600182901c164203821115610357576040517f08c379a00000000000000000000000000000000000000000000000000000000081526004016100d39061195d565b60006103b76103b26103ad8761039360086040516020016103789190611954565b6040516020818303038152906040528051906020012061086a565b6103a86103a38d6040015161089f565b6108c5565b6109ad565b61089f565b610d1f565b60008981526001602052604090205490915060e082901c11610405576040517f08c379a00000000000000000000000000000000000000000000000000000000081526004016100d390611a39565b6000888152600160208190526040822060e084901c905560ff8a901c9190821461045657600a60405160200161043b9190611954565b6040516020818303038152906040528051906020012061047f565b60096040516020016104689190611954565b604051602081830303815290604052805190602001205b90506104a46103b26103ad896104948561086a565b6103a86103a38f6060015161089f565b60009a8b5260208b90526040909a2099909955505050505050505050565b6000806104cd610d6d565b90508260011461055a578373ffffffffffffffffffffffffffffffffffffffff16635a3d54936040518163ffffffff1660e01b815260040160206040518083038186803b15801561051d57600080fd5b505afa158015610531573d6000803e3d6000fd5b505050506040513d601f19601f82011682018060405250810190610555919061182b565b6105d8565b8373ffffffffffffffffffffffffffffffffffffffff16635909c0d56040518163ffffffff1660e01b815260040160206040518083038186803b1580156105a057600080fd5b505afa1580156105b4573d6000803e3d6000fd5b505050506040513d601f19601f820116820180604052508101906105d8919061182b565b915060008060008673ffffffffffffffffffffffffffffffffffffffff16630902f1ac6040518163ffffffff1660e01b815260040160606040518083038186803b15801561062557600080fd5b505afa158015610639573d6000803e3d6000fd5b505050506040513d601f19601f8201168201806040525081019061065d91906117bf565b9250925092508363ffffffff168163ffffffff161461070e578084036000600188146106c2576106bd6e010000000000000000000000000000866dffffffffffffffffffffffffffff16866dffffffffffffffffffffffffffff16610718565b6106fc565b6106fc6e010000000000000000000000000000856dffffffffffffffffffffffffffff16876dffffffffffffffffffffffffffff16610718565b90508163ffffffff1681028701965050505b5050509250929050565b600080807fffffffffffffffffffffffffffffffffffffffffffffffffffffffffffffffff8587098686029250828110908390030390508061076c576000841161076157600080fd5b5082900490506107df565b80841161077857600080fd5b6000848688096000868103871696879004966002600389028118808a02820302808a02820302808a02820302808a02820302808a02820302808a02909103029181900381900460010186841190950394909402919094039290920491909117919091029150505b9392505050565b6000806000806107f98560000151610d77565b809550819450829350505050606061082f8261081f896040516020016103789190611924565b6103a86103a38a6020015161089f565b9050606061083f6103a38361089f565b905061085e8160028151811061085157fe5b6020026020010151610d1f565b95505050509250925092565b604080516021808252606082810190935260208201818036833701905050905081602182015261089981610eab565b92915050565b6108a761171e565b5060408051808201909152815181526020828101908201525b919050565b60606108d082611049565b6108d957600080fd5b60006108e483611083565b905060608167ffffffffffffffff811180156108ff57600080fd5b5060405190808252806020026020018201604052801561093957816020015b61092661171e565b81526020019060019003908161091e5790505b509050600061094b85602001516110df565b60208601510190506000805b848110156109a2576109688361117e565b915060405180604001604052808381526020018481525084828151811061098b57fe5b602090810291909101015291810191600101610957565b509195945050505050565b6060600080826109bb61171e565b8551610a08577f56e81f171bcc55a6ff8345e692c0f86e5b48e01b996cadc001622fb5e363b42188146109ed57600080fd5b505060408051600081526020810190915292506107df915050565b60005b8651811015610d135780158015610a3d5750610a39878281518110610a2c57fe5b6020026020010151611253565b8914155b15610a4757600080fd5b8015801590610a715750610a6d878281518110610a6057fe5b602002602001015161125f565b8414155b15610a7b57600080fd5b610a97878281518110610a8a57fe5b60200260200101516108c5565b9250825160021415610c065760006060610acc610ac786600081518110610aba57fe5b60200260200101516112b4565b611331565b90925090506000610ade888c846113c7565b905080880197508151811015610b3e5760018a5103841015610aff57600080fd5b6000805b506040519080825280601f01601f191660200182016040528015610b2e576020820181803683370190505b50985050505050505050506107df565b8215610b955760018a5103841015610b5557600080fd5b8a51881015610b6657600080610b03565b85600181518110610b7357fe5b60200260200101519450610b86856112b4565b985050505050505050506107df565b60018a5103841415610ba657600080fd5b610bc386600181518110610bb657fe5b6020026020010151611049565b610beb57610be486600181518110610bd757fe5b6020026020010151611464565b9650610bfe565b610bfb86600181518110610a2c57fe5b96505b505050610d0b565b825160111415610d0b5787518514610cdf576000888681518110610c2657fe5b01602001516001969096019560f81c905060108110610c4457600080fd5b610c63848260ff1681518110610c5657fe5b602002602001015161147c565b15610c955760018851038214610c7857600080fd5b505060408051600081526020810190915294506107df9350505050565b610ca7848260ff1681518110610bb657fe5b610cc457610cbd848260ff1681518110610bd757fe5b9450610cd9565b610cd6848260ff1681518110610a2c57fe5b94505b50610d0b565b60018751038114610cef57600080fd5b610cff83601081518110610aba57fe5b955050505050506107df565b600101610a0b565b50505050509392505050565b805160009015801590610d3457508151602110155b610d3d57600080fd5b600080610d498461149f565b815191935091506020821015610d655760208290036101000a90045b949350505050565b63ffffffff421690565b6000806000610df9565b7f08c379a00000000000000000000000000000000000000000000000000000000060005260206004528160245280604452816044016000fd5b600080825160001a6080811060018114610dd9578015610de557610df2565b84935060019250610df2565b6001850193506080820392505b5050915091565b835160208501946101e0810190607b01610e1282610dba565b019150610e1e82610dba565b8082019350610e2c84610dba565b019350610e3884610dba565b019350610e4484610dba565b835160088402610100031c975087409550868b209350838614610e8c57610e8c60147f626c6f636b4861736820213d20726c7048617368000000000000000000000000610d81565b84519950815160088202610100031c9850505050505050509193909250565b606080825160001415610ebf5790506108c0565b600080610ecd6000866114c5565b60f81c90506001811480610ee457508060ff166003145b15610f8b57600185516002020367ffffffffffffffff81118015610f0757600080fd5b506040519080825280601f01601f191660200182016040528015610f32576020820181803683370190505b5092506000610f426001876114c5565b90508084600081518110610f5257fe5b60200101907effffffffffffffffffffffffffffffffffffffffffffffffffffffffffffff1916908160001a9053506001925050610fdc565b600285516002020367ffffffffffffffff81118015610fa957600080fd5b506040519080825280601f01601f191660200182016040528015610fd4576020820181803683370190505b509250600091505b60ff82165b835181101561103f57610ffc8360ff168203600201876114c5565b84828151811061100857fe5b60200101907effffffffffffffffffffffffffffffffffffffffffffffffffffffffffffff1916908160001a905350600101610fe1565b5091949350505050565b805160009061105a575060006108c0565b6020820151805160001a9060c0821015611079576000925050506108c0565b5060019392505050565b8051600090611094575060006108c0565b600080905060006110a884602001516110df565b602085015185519181019250015b808210156110d6576110c78261117e565b600190930192909101906110b6565b50909392505050565b8051600090811a60808110156110f95760009150506108c0565b60b8811080611114575060c08110801590611114575060f881105b156111235760019150506108c0565b60c0811015611155577fffffffffffffffffffffffffffffffffffffffffffffffffffffffffffffff4a0190506108c0565b7fffffffffffffffffffffffffffffffffffffffffffffffffffffffffffffff0a0190506108c0565b80516000908190811a6080811015611199576001915061124c565b60b88110156111cc577fffffffffffffffffffffffffffffffffffffffffffffffffffffffffffffff818101915061124c565b60c08110156111f95760b78103600185019450806020036101000a8551046001820181019350505061124c565b60f881101561122c577fffffffffffffffffffffffffffffffffffffffffffffffffffffffffffffff418101915061124c565b60f78103600185019450806020036101000a855104600182018101935050505b5092915050565b60208101519051902090565b600060208260000151101561127e5761127782611253565b90506108c0565b61128782611253565b6040516020016112979190611954565b6040516020818303038152906040528051906020012090506108c0565b80516060906112c257600080fd5b6000806112ce8461149f565b9150915060608167ffffffffffffffff811180156112eb57600080fd5b506040519080825280601f01601f191660200182016040528015611316576020820181803683370190505b50905060208101611328848285611522565b50949350505050565b60006060600083511161134357600080fd5b600060048460008151811061135457fe5b60209101015160f81c901c600f16905060008161137757506000925060026113b1565b816001141561138c57506000925060016113b1565b81600214156113a157506001925060026113b1565b8160031415610036575060019250825b836113bc86836115af565b935093505050915091565b6000805b83518582011080156113dd5750825181105b15610d65578281815181106113ee57fe5b602001015160f81c60f81b7effffffffffffffffffffffffffffffffffffffffffffffffffffffffffffff1916848683018151811061142957fe5b01602001517fff00000000000000000000000000000000000000000000000000000000000000161461145c5790506107df565b6001016113cb565b60008060006114728461149f565b9020949350505050565b8051600090600114611490575060006108c0565b50602001515160001a60801490565b60008060006114b184602001516110df565b602085015194519481019594039392505050565b600060028306156114f65760108260028504815181106114e157fe5b016020015160f81c816114f057fe5b06611518565b601082600285048151811061150757fe5b016020015160f81c8161151657fe5b045b60f81b9392505050565b8061152c576115aa565b5b6020811061156a5782518252602092830192909101907fffffffffffffffffffffffffffffffffffffffffffffffffffffffffffffffe00161152d565b80156115aa578251825160208390036101000a7fffffffffffffffffffffffffffffffffffffffffffffffffffffffffffffffff01801990921691161782525b505050565b606060008351116115bf57600080fd5b8251600202808311156115d157600080fd5b8290038067ffffffffffffffff811180156115eb57600080fd5b506040519080825280601f01601f191660200182016040528015611616576020820181803683370190505b5091506000835b82850181101561170b576002810661169957600486600283048151811061164057fe5b602001015160f81c60f81b60f81c60ff16901c600f1660f81b84838151811061166557fe5b60200101907effffffffffffffffffffffffffffffffffffffffffffffffffffffffffffff1916908160001a9053506116ff565b60008660028304815181106116aa57fe5b602001015160f81c60f81b60f81c60ff16901c600f1660f81b8483815181106116cf57fe5b60200101907effffffffffffffffffffffffffffffffffffffffffffffffffffffffffffff1916908160001a9053505b6001918201910161161d565b508251811461171657fe5b505092915050565b604051806040016040528060008152602001600081525090565b600082601f830112611748578081fd5b813567ffffffffffffffff81111561175e578182fd5b61178f60207fffffffffffffffffffffffffffffffffffffffffffffffffffffffffffffffe0601f84011601611aec565b91508082528360208285010111156117a657600080fd5b8060208401602084013760009082016020015292915050565b6000806000606084860312156117d3578283fd5b83516117de81611b13565b60208501519093506117ef81611b13565b604085015190925063ffffffff81168114611808578182fd5b809150509250925092565b600060208284031215611824578081fd5b5035919050565b60006020828403121561183c578081fd5b5051919050565b60008060408385031215611855578182fd5b82359150602083013567ffffffffffffffff80821115611873578283fd5b81850160808188031215611885578384fd5b61188f6080611aec565b925080358281111561189f578485fd5b6118ab88828401611738565b8452506020810135828111156118bf578485fd5b6118cb88828401611738565b6020850152506040810135828111156118e2578485fd5b6118ee88828401611738565b604085015250606081013582811115611905578485fd5b61191188828401611738565b6060850152505050809150509250929050565b60609190911b7fffffffffffffffffffffffffffffffffffffffff00000000000000000000000016815260140190565b90815260200190565b60208082526009908201527f4e45575f50524f4f460000000000000000000000000000000000000000000000604082015260600190565b60208082526003908201527f4e4f570000000000000000000000000000000000000000000000000000000000604082015260600190565b60208082526009908201527f4f4c445f50524f4f460000000000000000000000000000000000000000000000604082015260600190565b6020808252600d908201527f50524f4f465f544f4f5f4f4c4400000000000000000000000000000000000000604082015260600190565b60208082526005908201527f4558495354000000000000000000000000000000000000000000000000000000604082015260600190565b60208082526003908201527f4f4c440000000000000000000000000000000000000000000000000000000000604082015260600190565b60208082526003908201527f4e45570000000000000000000000000000000000000000000000000000000000604082015260600190565b918252602082015260400190565b60405181810167ffffffffffffffff81118282101715611b0b57600080fd5b604052919050565b6dffffffffffffffffffffffffffff81168114611b2f57600080fd5b5056fea2646970667358221220dcd0555e79e18bbcd57fda2a4029d6b0ec53d9a6e5712f6d5efa532f4204b57b64736f6c63430006080033",
  "linkReferences": {},
  "deployedLinkReferences": {}
}