{
  "_format": "hh-sol-artifact-1",
  "contractName": "FetcherV2",
  "sourceName": "contracts/FetcherV2.sol",
  "abi": [
    {
      "anonymous": false,
      "inputs": [
        {
          "indexed": true,
          "internalType": "bytes32",
          "name": "ORACLE",
          "type": "bytes32"
        },
        {
          "indexed": false,
          "internalType": "uint256",
          "name": "proofBlock",
          "type": "uint256"
        },
        {
          "indexed": false,
          "internalType": "uint256",
          "name": "dataTime",
          "type": "uint256"
        },
        {
          "indexed": false,
          "internalType": "uint256",
          "name": "basePriceCumulative",
          "type": "uint256"
        }
      ],
      "name": "Submit",
      "type": "event"
    },
    {
      "inputs": [
        {
          "internalType": "uint256",
          "name": "ORACLE",
          "type": "uint256"
        }
      ],
      "name": "clear",
      "outputs": [],
      "stateMutability": "nonpayable",
      "type": "function"
    },
    {
      "inputs": [
        {
          "internalType": "uint256",
          "name": "ORACLE",
          "type": "uint256"
        }
      ],
      "name": "ensureStateIntegrity",
      "outputs": [],
      "stateMutability": "view",
      "type": "function"
    },
    {
      "inputs": [
        {
          "internalType": "uint256",
          "name": "ORACLE",
          "type": "uint256"
        }
      ],
      "name": "fetch",
      "outputs": [
        {
          "internalType": "uint256",
          "name": "twap",
          "type": "uint256"
        },
        {
          "internalType": "uint256",
          "name": "spot",
          "type": "uint256"
        }
      ],
      "stateMutability": "view",
      "type": "function"
    },
    {
      "inputs": [
        {
          "internalType": "uint256",
          "name": "ORACLE",
          "type": "uint256"
        },
        {
          "components": [
            {
              "internalType": "bytes",
              "name": "block",
              "type": "bytes"
            },
            {
              "internalType": "bytes",
              "name": "accountProofNodesRlp",
              "type": "bytes"
            },
            {
              "internalType": "bytes",
              "name": "reserveAndTimestampProofNodesRlp",
              "type": "bytes"
            },
            {
              "internalType": "bytes",
              "name": "priceAccumulatorProofNodesRlp",
              "type": "bytes"
            }
          ],
          "internalType": "struct FetcherV2.ProofData",
          "name": "proofData",
          "type": "tuple"
        }
      ],
      "name": "submit",
      "outputs": [],
      "stateMutability": "nonpayable",
      "type": "function"
    },
    {
      "inputs": [
        {
          "internalType": "bytes4",
          "name": "interfaceId",
          "type": "bytes4"
        }
      ],
      "name": "supportsInterface",
      "outputs": [
        {
          "internalType": "bool",
          "name": "",
          "type": "bool"
        }
      ],
      "stateMutability": "view",
      "type": "function"
    }
  ],
  "bytecode": "0x608060405234801561001057600080fd5b506100216301ffc9a760e01b610026565b6100b5565b6001600160e01b031980821614156100595760405162461bcd60e51b81526004016100509061007e565b60405180910390fd5b6001600160e01b0319166000908152602081905260409020805460ff19166001179055565b6020808252601c908201527f4552433136353a20696e76616c696420696e7465726661636520696400000000604082015260600190565b611f1880620000c56000396000f3fe608060405234801561001057600080fd5b50600436106100675760003560e01c80637a33e3b0116100505780637a33e3b0146100aa578063c0fe1af8146100cb578063e2c1ba1c146100de57610067565b806301ffc9a71461006c578063209ae6a814610095575b600080fd5b61007f61007a366004611b34565b6100f1565b60405161008c9190611c7c565b60405180910390f35b6100a86100a3366004611bc8565b61014f565b005b6100bd6100b8366004611bc8565b6101a4565b60405161008c929190611e55565b6100a86100d9366004611bc8565b6103d8565b6100a86100ec366004611bf8565b610422565b60007f61206120000000000000000000000000000000000000000000000000000000007fffffffff0000000000000000000000000000000000000000000000000000000083161480610147575061014782610822565b90505b919050565b60008181526001602052604090205460ff16156101a1576040517f08c379a000000000000000000000000000000000000000000000000000000000815260040161019890611d2c565b60405180910390fd5b50565b600081815260016020526040812054819060c084901c90610100900467ffffffffffffffff164363ffffffff83168201101561020c576040517f08c379a000000000000000000000000000000000000000000000000000000000815260040161019890611d9a565b43637fffffff600184901c1682011115610252576040517f08c379a000000000000000000000000000000000000000000000000000000000815260040161019890611dd1565b8460ff81901c6000806102658484610859565b60008b81526001602052604090205491935063ffffffff169150690100000000000000000090046fffffffffffffffffffffffffffffffff168181106102d7576040517f08c379a000000000000000000000000000000000000000000000000000000000815260040161019890611cbe565b60008a815260026020526040902054601090828403908503816102f657fe5b04901b98506000808673ffffffffffffffffffffffffffffffffffffffff16630902f1ac6040518163ffffffff1660e01b815260040160606040518083038186803b15801561034457600080fd5b505afa158015610358573d6000803e3d6000fd5b505050506040513d601f19601f8201168201806040525081019061037c9190611b74565b506dffffffffffffffffffffffffffff1691506dffffffffffffffffffffffffffff16915085600014156103ac57905b6103c87001000000000000000000000000000000008284610aaf565b9950505050505050505050915091565b6103e18161014f565b600090815260016020908152604080832080547fffffffffffffff000000000000000000000000000000000000000000000000001690556002909152812055565b8161042c8161014f565b6000818152600160208190526040822080547fffffffffffffffffffffffffffffffffffffffffffffffffffffffffffffff00169091179055806104708585610b7d565b909250905060c085901c63ffffffff811643038210156104bc576040517f08c379a000000000000000000000000000000000000000000000000000000000815260040161019890611cf5565b637fffffff600182901c164303821115610502576040517f08c379a000000000000000000000000000000000000000000000000000000000815260040161019890611c87565b50600085815260016020908152604080832080547fffffffffffffffffffffffffffffffffffffffffffffff0000000000000000ff1661010067ffffffffffffffff871602179055516105e6916105e1916105dc9187916105859161056a9160089101611c73565b60405160208183030381529060405280519060200120610c6f565b6105d76105d261059860408d018d611e63565b8080601f016020809104026020016040519081016040528093929190818152602001838380828437600092019190915250610c9e92505050565b610cc3565b610dab565b610c9e565b61111e565b60008781526001602052604090205490915060e082901c90690100000000000000000090046fffffffffffffffffffffffffffffffff1681811115610657576040517f08c379a000000000000000000000000000000000000000000000000000000000815260040161019890611e08565b808214156106a9578760001b7fb0e292d4b4fe2ac9a9a5725b633044a008f2f62f8fcaaf711b7abfc4b4b93a7e8560008060405161069793929190611e3f565b60405180910390a250505050506107ea565b506000878152600160208190526040822080547fffffffffffffff00000000000000000000000000000000ffffffffffffffffff1669010000000000000000006fffffffffffffffffffffffffffffffff86160217905560ff89901c9190821461073a57600a60405160200161071f9190611c73565b60405160208183030381529060405280519060200120610763565b600960405160200161074c9190611c73565b604051602081830303815290604052805190602001205b905060006107906105e16105dc8961077a86610c6f565b6105d76105d28f80606001906105989190611e63565b60008b81526002602052604090819020829055519091508a907fb0e292d4b4fe2ac9a9a5725b633044a008f2f62f8fcaaf711b7abfc4b4b93a7e906107da90899088908690611e3f565b60405180910390a2505050505050505b600090815260016020526040902080547fffffffffffffffffffffffffffffffffffffffffffffffffffffffffffffff001690555050565b7fffffffff000000000000000000000000000000000000000000000000000000001660009081526020819052604090205460ff1690565b60008061086461116c565b9050826001146108f1578373ffffffffffffffffffffffffffffffffffffffff16635a3d54936040518163ffffffff1660e01b815260040160206040518083038186803b1580156108b457600080fd5b505afa1580156108c8573d6000803e3d6000fd5b505050506040513d601f19601f820116820180604052508101906108ec9190611be0565b61096f565b8373ffffffffffffffffffffffffffffffffffffffff16635909c0d56040518163ffffffff1660e01b815260040160206040518083038186803b15801561093757600080fd5b505afa15801561094b573d6000803e3d6000fd5b505050506040513d601f19601f8201168201806040525081019061096f9190611be0565b915060008060008673ffffffffffffffffffffffffffffffffffffffff16630902f1ac6040518163ffffffff1660e01b815260040160606040518083038186803b1580156109bc57600080fd5b505afa1580156109d0573d6000803e3d6000fd5b505050506040513d601f19601f820116820180604052508101906109f49190611b74565b9250925092508363ffffffff168163ffffffff1614610aa557808403600060018814610a5957610a546e010000000000000000000000000000866dffffffffffffffffffffffffffff16866dffffffffffffffffffffffffffff16610aaf565b610a93565b610a936e010000000000000000000000000000856dffffffffffffffffffffffffffff16876dffffffffffffffffffffffffffff16610aaf565b90508163ffffffff1681028701965050505b5050509250929050565b600080807fffffffffffffffffffffffffffffffffffffffffffffffffffffffffffffffff85870986860292508281109083900303905080610b035760008411610af857600080fd5b508290049050610b76565b808411610b0f57600080fd5b6000848688096000868103871696879004966002600389028118808a02820302808a02820302808a02820302808a02820302808a02820302808a02909103029181900381900460010186841190950394909402919094039290920491909117919091029150505b9392505050565b60008080610bc8610b8e8580611e63565b8080601f01602080910402602001604051908101604052809392919081815260200183838082843760009201919091525061117692505050565b9350909150508140610c06576040517f08c379a000000000000000000000000000000000000000000000000000000000815260040161019890611d63565b6060610c3382610c208860405160200161056a9190611c43565b6105d76105d261059860208b018b611e63565b90506060610c436105d283610c9e565b9050610c6281600281518110610c5557fe5b602002602001015161111e565b94505050505b9250929050565b6040805160218082526060828101909352602082018180368337019050509050816021820152610147816112ab565b610ca6611b1a565b506040805180820190915281518152602082810190820152919050565b6060610cce82611449565b610cd757600080fd5b6000610ce283611483565b905060608167ffffffffffffffff81118015610cfd57600080fd5b50604051908082528060200260200182016040528015610d3757816020015b610d24611b1a565b815260200190600190039081610d1c5790505b5090506000610d4985602001516114db565b60208601510190506000805b84811015610da057610d668361157a565b9150604051806040016040528083815260200184815250848281518110610d8957fe5b602090810291909101015291810191600101610d55565b509195945050505050565b60606000806060610dba611b1a565b8551610e07577f56e81f171bcc55a6ff8345e692c0f86e5b48e01b996cadc001622fb5e363b4218814610dec57600080fd5b50506040805160008152602081019091529250610b76915050565b60005b86518110156111125780158015610e3c5750610e38878281518110610e2b57fe5b602002602001015161164f565b8914155b15610e4657600080fd5b8015801590610e705750610e6c878281518110610e5f57fe5b602002602001015161165b565b8414155b15610e7a57600080fd5b610e96878281518110610e8957fe5b6020026020010151610cc3565b92508251600214156110055760006060610ecb610ec686600081518110610eb957fe5b60200260200101516116b0565b61172d565b90925090506000610edd888c846117c3565b905080880197508151811015610f3d5760018a5103841015610efe57600080fd5b6000805b506040519080825280601f01601f191660200182016040528015610f2d576020820181803683370190505b5098505050505050505050610b76565b8215610f945760018a5103841015610f5457600080fd5b8a51881015610f6557600080610f02565b85600181518110610f7257fe5b60200260200101519450610f85856116b0565b98505050505050505050610b76565b60018a5103841415610fa557600080fd5b610fc286600181518110610fb557fe5b6020026020010151611449565b610fea57610fe386600181518110610fd657fe5b6020026020010151611860565b9650610ffd565b610ffa86600181518110610e2b57fe5b96505b50505061110a565b82516011141561110a57875185146110de57600088868151811061102557fe5b01602001516001969096019560f81c90506010811061104357600080fd5b611062848260ff168151811061105557fe5b6020026020010151611878565b15611094576001885103821461107757600080fd5b50506040805160008152602081019091529450610b769350505050565b6110a6848260ff1681518110610fb557fe5b6110c3576110bc848260ff1681518110610fd657fe5b94506110d8565b6110d5848260ff1681518110610e2b57fe5b94505b5061110a565b600187510381146110ee57600080fd5b6110fe83601081518110610eb957fe5b95505050505050610b76565b600101610e0a565b50505050509392505050565b80516000901580159061113357508151602110155b61113c57600080fd5b6000806111488461189b565b8151919350915060208210156111645760208290036101000a90045b949350505050565b63ffffffff421690565b60008060006111f8565b7f08c379a00000000000000000000000000000000000000000000000000000000060005260206004528160245280604452816044016000fd5b600080825160001a60808110600181146111d85780156111e4576111f1565b849350600192506111f1565b6001850193506080820392505b5050915091565b83516020850194607b8101906101e001611211816111b9565b01905061121d816111b9565b915081810161122b816111b9565b019050611237816111b9565b019050611243816111b9565b9150825160088502610100031c965086409350858a20955085841461128d5761128d60147f626c6f636b4861736820213d20726c7048617368000000000000000000000000611180565b84519850805160088302610100031c97505050505050509193909250565b6060808251600014156112bf57905061014a565b6000806112cd6000866118c1565b60f81c905060018114806112e457508060ff166003145b1561138b57600185516002020367ffffffffffffffff8111801561130757600080fd5b506040519080825280601f01601f191660200182016040528015611332576020820181803683370190505b50925060006113426001876118c1565b9050808460008151811061135257fe5b60200101907effffffffffffffffffffffffffffffffffffffffffffffffffffffffffffff1916908160001a90535060019250506113dc565b600285516002020367ffffffffffffffff811180156113a957600080fd5b506040519080825280601f01601f1916602001820160405280156113d4576020820181803683370190505b509250600091505b60ff82165b835181101561143f576113fc8360ff168203600201876118c1565b84828151811061140857fe5b60200101907effffffffffffffffffffffffffffffffffffffffffffffffffffffffffffff1916908160001a9053506001016113e1565b5091949350505050565b805160009061145a5750600061014a565b6020820151805160001a9060c08210156114795760009250505061014a565b5060019392505050565b80516000906114945750600061014a565b6000806114a484602001516114db565b602085015185519181019250015b808210156114d2576114c38261157a565b600190930192909101906114b2565b50909392505050565b8051600090811a60808110156114f557600091505061014a565b60b8811080611510575060c08110801590611510575060f881105b1561151f57600191505061014a565b60c0811015611551577fffffffffffffffffffffffffffffffffffffffffffffffffffffffffffffff4a01905061014a565b7fffffffffffffffffffffffffffffffffffffffffffffffffffffffffffffff0a01905061014a565b80516000908190811a60808110156115955760019150611648565b60b88110156115c8577fffffffffffffffffffffffffffffffffffffffffffffffffffffffffffffff8181019150611648565b60c08110156115f55760b78103600185019450806020036101000a85510460018201810193505050611648565b60f8811015611628577fffffffffffffffffffffffffffffffffffffffffffffffffffffffffffffff4181019150611648565b60f78103600185019450806020036101000a855104600182018101935050505b5092915050565b60208101519051902090565b600060208260000151101561167a576116738261164f565b905061014a565b6116838261164f565b6040516020016116939190611c73565b60405160208183030381529060405280519060200120905061014a565b80516060906116be57600080fd5b6000806116ca8461189b565b9150915060608167ffffffffffffffff811180156116e757600080fd5b506040519080825280601f01601f191660200182016040528015611712576020820181803683370190505b5090506020810161172484828561191e565b50949350505050565b60006060600083511161173f57600080fd5b600060048460008151811061175057fe5b60209101015160f81c901c600f16905060008161177357506000925060026117ad565b816001141561178857506000925060016117ad565b816002141561179d57506001925060026117ad565b8160031415610067575060019250825b836117b886836119ab565b935093505050915091565b6000805b83518582011080156117d95750825181105b15611164578281815181106117ea57fe5b602001015160f81c60f81b7effffffffffffffffffffffffffffffffffffffffffffffffffffffffffffff1916848683018151811061182557fe5b01602001517fff000000000000000000000000000000000000000000000000000000000000001614611858579050610b76565b6001016117c7565b600080600061186e8461189b565b9020949350505050565b805160009060011461188c5750600061014a565b50602001515160001a60801490565b60008060006118ad84602001516114db565b602085015194519481019594039392505050565b600060028306156118f25760108260028504815181106118dd57fe5b016020015160f81c816118ec57fe5b06611914565b601082600285048151811061190357fe5b016020015160f81c8161191257fe5b045b60f81b9392505050565b80611928576119a6565b5b602081106119665782518252602092830192909101907fffffffffffffffffffffffffffffffffffffffffffffffffffffffffffffffe001611929565b80156119a6578251825160208390036101000a7fffffffffffffffffffffffffffffffffffffffffffffffffffffffffffffffff01801990921691161782525b505050565b606060008351116119bb57600080fd5b8251600202808311156119cd57600080fd5b8290038067ffffffffffffffff811180156119e757600080fd5b506040519080825280601f01601f191660200182016040528015611a12576020820181803683370190505b5091506000835b828501811015611b075760028106611a95576004866002830481518110611a3c57fe5b602001015160f81c60f81b60f81c60ff16901c600f1660f81b848381518110611a6157fe5b60200101907effffffffffffffffffffffffffffffffffffffffffffffffffffffffffffff1916908160001a905350611afb565b6000866002830481518110611aa657fe5b602001015160f81c60f81b60f81c60ff16901c600f1660f81b848381518110611acb57fe5b60200101907effffffffffffffffffffffffffffffffffffffffffffffffffffffffffffff1916908160001a9053505b60019182019101611a19565b5082518114611b1257fe5b505092915050565b604051806040016040528060008152602001600081525090565b600060208284031215611b45578081fd5b81357fffffffff0000000000000000000000000000000000000000000000000000000081168114610b76578182fd5b600080600060608486031215611b88578182fd5b8351611b9381611ec6565b6020850151909350611ba481611ec6565b604085015190925063ffffffff81168114611bbd578182fd5b809150509250925092565b600060208284031215611bd9578081fd5b5035919050565b600060208284031215611bf1578081fd5b5051919050565b60008060408385031215611c0a578182fd5b82359150602083013567ffffffffffffffff811115611c27578182fd5b830160808186031215611c38578182fd5b809150509250929050565b60609190911b7fffffffffffffffffffffffffffffffffffffffff00000000000000000000000016815260140190565b90815260200190565b901515815260200190565b60208082526009908201527f4e45575f50524f4f460000000000000000000000000000000000000000000000604082015260600190565b60208082526003908201527f4e4f570000000000000000000000000000000000000000000000000000000000604082015260600190565b60208082526009908201527f4f4c445f50524f4f460000000000000000000000000000000000000000000000604082015260600190565b6020808252601a908201527f4665746368657256323a2053544154455f494e54454752495459000000000000604082015260600190565b6020808252600d908201527f626c6f636b68617368203d203000000000000000000000000000000000000000604082015260600190565b60208082526003908201527f4f4c440000000000000000000000000000000000000000000000000000000000604082015260600190565b60208082526003908201527f4e45570000000000000000000000000000000000000000000000000000000000604082015260600190565b60208082526008908201527f4f4c445f44415441000000000000000000000000000000000000000000000000604082015260600190565b9283526020830191909152604082015260600190565b918252602082015260400190565b60008083357fffffffffffffffffffffffffffffffffffffffffffffffffffffffffffffffe1843603018112611e97578283fd5b83018035915067ffffffffffffffff821115611eb1578283fd5b602001915036819003821315610c6857600080fd5b6dffffffffffffffffffffffffffff811681146101a157600080fdfea26469706673582212203b2267073a4501b03718c3b7959347a00129b6e5d43f26c0b50b2f5f651f18a064736f6c634300060c0033",
  "linkReferences": {},
  "deployedLinkReferences": {}
}