{
  "_format": "hh-sol-artifact-1",
  "contractName": "FetcherV2",
  "sourceName": "contracts/FetcherV2.sol",
  "abi": [
    {
      "inputs": [
        {
          "internalType": "uint256",
          "name": "ORACLE",
          "type": "uint256"
        }
      ],
      "name": "fetch",
      "outputs": [
        {
          "internalType": "uint256",
          "name": "twap",
          "type": "uint256"
        },
        {
          "internalType": "uint256",
          "name": "spot",
          "type": "uint256"
        }
      ],
      "stateMutability": "nonpayable",
      "type": "function"
    },
    {
      "inputs": [
        {
          "internalType": "uint256",
          "name": "ORACLE",
          "type": "uint256"
        },
        {
          "components": [
            {
              "internalType": "bytes",
              "name": "block",
              "type": "bytes"
            },
            {
              "internalType": "bytes",
              "name": "accountProofNodesRlp",
              "type": "bytes"
            },
            {
              "internalType": "bytes",
              "name": "reserveAndTimestampProofNodesRlp",
              "type": "bytes"
            },
            {
              "internalType": "bytes",
              "name": "priceAccumulatorProofNodesRlp",
              "type": "bytes"
            }
          ],
          "internalType": "struct FetcherV2.ProofData",
          "name": "proofData",
          "type": "tuple"
        }
      ],
      "name": "submit",
      "outputs": [],
      "stateMutability": "nonpayable",
      "type": "function"
    }
  ],
  "bytecode": "0x608060405234801561001057600080fd5b50611b78806100206000396000f3fe608060405234801561001057600080fd5b50600436106100365760003560e01c80637a33e3b01461003b578063e2c1ba1c14610065575b600080fd5b61004e610049366004611823565b61007a565b60405161005c929190611aee565b60405180910390f35b610078610073366004611853565b610284565b005b6000818152600160209081526040808320546002909252822054829160c085901c914363ffffffff8416820110156100e7576040517f08c379a00000000000000000000000000000000000000000000000000000000081526004016100de90611a80565b60405180910390fd5b43637fffffff600185901c168201111561012d576040517f08c379a00000000000000000000000000000000000000000000000000000000081526004016100de90611ab7565b8560ff81901c60008061014084846104a1565b63ffffffff1691509150808610610183576040517f08c379a00000000000000000000000000000000000000000000000000000000081526004016100de906119a4565b60008a815260208190526040902054601090878303908403816101a257fe5b04901b98506000808573ffffffffffffffffffffffffffffffffffffffff16630902f1ac6040518163ffffffff1660e01b815260040160606040518083038186803b1580156101f057600080fd5b505afa158015610204573d6000803e3d6000fd5b505050506040513d601f19601f8201168201806040525081019061022891906117cf565b506dffffffffffffffffffffffffffff1691506dffffffffffffffffffffffffffff169150846000141561025857905b61027470010000000000000000000000000000000082846106f7565b9950505050505050505050915091565b8160008061029283856107c5565b909250905060c085901c63ffffffff811643038210156102de576040517f08c379a00000000000000000000000000000000000000000000000000000000081526004016100de906119db565b637fffffff600182901c164303821115610324576040517f08c379a00000000000000000000000000000000000000000000000000000000081526004016100de9061196d565b600086815260026020908152604080832085905551610397916103929161038d918891610373916103589160089101611964565b6040516020818303038152906040528051906020012061087a565b6103886103838c604001516108af565b6108d5565b6109bd565b6108af565b610d2f565b60008881526001602052604090205490915060e082901c116103e5576040517f08c379a00000000000000000000000000000000000000000000000000000000081526004016100de90611a12565b6000878152600160208190526040822060e084901c905560ff89901c9190821461043657600a60405160200161041b9190611964565b6040516020818303038152906040528051906020012061045f565b60096040516020016104489190611964565b604051602081830303815290604052805190602001205b905061048461039261038d886104748561087a565b6103886103838e606001516108af565b6000998a5260208a90526040909920989098555050505050505050565b6000806104ac610d7d565b905082600114610539578373ffffffffffffffffffffffffffffffffffffffff16635a3d54936040518163ffffffff1660e01b815260040160206040518083038186803b1580156104fc57600080fd5b505afa158015610510573d6000803e3d6000fd5b505050506040513d601f19601f82011682018060405250810190610534919061183b565b6105b7565b8373ffffffffffffffffffffffffffffffffffffffff16635909c0d56040518163ffffffff1660e01b815260040160206040518083038186803b15801561057f57600080fd5b505afa158015610593573d6000803e3d6000fd5b505050506040513d601f19601f820116820180604052508101906105b7919061183b565b915060008060008673ffffffffffffffffffffffffffffffffffffffff16630902f1ac6040518163ffffffff1660e01b815260040160606040518083038186803b15801561060457600080fd5b505afa158015610618573d6000803e3d6000fd5b505050506040513d601f19601f8201168201806040525081019061063c91906117cf565b9250925092508363ffffffff168163ffffffff16146106ed578084036000600188146106a15761069c6e010000000000000000000000000000866dffffffffffffffffffffffffffff16866dffffffffffffffffffffffffffff166106f7565b6106db565b6106db6e010000000000000000000000000000856dffffffffffffffffffffffffffff16876dffffffffffffffffffffffffffff166106f7565b90508163ffffffff1681028701965050505b5050509250929050565b600080807fffffffffffffffffffffffffffffffffffffffffffffffffffffffffffffffff8587098686029250828110908390030390508061074b576000841161074057600080fd5b5082900490506107be565b80841161075757600080fd5b6000848688096000868103871696879004966002600389028118808a02820302808a02820302808a02820302808a02820302808a02820302808a02909103029181900381900460010186841190950394909402919094039290920491909117919091029150505b9392505050565b60008060006107d78460000151610d87565b9350909150508140610815576040517f08c379a00000000000000000000000000000000000000000000000000000000081526004016100de90611a49565b606061083f8261082f886040516020016103589190611934565b61038861038389602001516108af565b9050606061084f610383836108af565b905061086e8160028151811061086157fe5b6020026020010151610d2f565b94505050509250929050565b60408051602180825260608281019093526020820181803683370190505090508160218201526108a981610ebb565b92915050565b6108b761172e565b5060408051808201909152815181526020828101908201525b919050565b60606108e082611059565b6108e957600080fd5b60006108f483611093565b905060608167ffffffffffffffff8111801561090f57600080fd5b5060405190808252806020026020018201604052801561094957816020015b61093661172e565b81526020019060019003908161092e5790505b509050600061095b85602001516110ef565b60208601510190506000805b848110156109b2576109788361118e565b915060405180604001604052808381526020018481525084828151811061099b57fe5b602090810291909101015291810191600101610967565b509195945050505050565b6060600080826109cb61172e565b8551610a18577f56e81f171bcc55a6ff8345e692c0f86e5b48e01b996cadc001622fb5e363b42188146109fd57600080fd5b505060408051600081526020810190915292506107be915050565b60005b8651811015610d235780158015610a4d5750610a49878281518110610a3c57fe5b6020026020010151611263565b8914155b15610a5757600080fd5b8015801590610a815750610a7d878281518110610a7057fe5b602002602001015161126f565b8414155b15610a8b57600080fd5b610aa7878281518110610a9a57fe5b60200260200101516108d5565b9250825160021415610c165760006060610adc610ad786600081518110610aca57fe5b60200260200101516112c4565b611341565b90925090506000610aee888c846113d7565b905080880197508151811015610b4e5760018a5103841015610b0f57600080fd5b6000805b506040519080825280601f01601f191660200182016040528015610b3e576020820181803683370190505b50985050505050505050506107be565b8215610ba55760018a5103841015610b6557600080fd5b8a51881015610b7657600080610b13565b85600181518110610b8357fe5b60200260200101519450610b96856112c4565b985050505050505050506107be565b60018a5103841415610bb657600080fd5b610bd386600181518110610bc657fe5b6020026020010151611059565b610bfb57610bf486600181518110610be757fe5b6020026020010151611474565b9650610c0e565b610c0b86600181518110610a3c57fe5b96505b505050610d1b565b825160111415610d1b5787518514610cef576000888681518110610c3657fe5b01602001516001969096019560f81c905060108110610c5457600080fd5b610c73848260ff1681518110610c6657fe5b602002602001015161148c565b15610ca55760018851038214610c8857600080fd5b505060408051600081526020810190915294506107be9350505050565b610cb7848260ff1681518110610bc657fe5b610cd457610ccd848260ff1681518110610be757fe5b9450610ce9565b610ce6848260ff1681518110610a3c57fe5b94505b50610d1b565b60018751038114610cff57600080fd5b610d0f83601081518110610aca57fe5b955050505050506107be565b600101610a1b565b50505050509392505050565b805160009015801590610d4457508151602110155b610d4d57600080fd5b600080610d59846114af565b815191935091506020821015610d755760208290036101000a90045b949350505050565b63ffffffff421690565b6000806000610e09565b7f08c379a00000000000000000000000000000000000000000000000000000000060005260206004528160245280604452816044016000fd5b600080825160001a6080811060018114610de9578015610df557610e02565b84935060019250610e02565b6001850193506080820392505b5050915091565b835160208501946101e0810190607b01610e2282610dca565b019150610e2e82610dca565b8082019350610e3c84610dca565b019350610e4884610dca565b019350610e5484610dca565b835160088402610100031c975087409550868b209350838614610e9c57610e9c60147f626c6f636b4861736820213d20726c7048617368000000000000000000000000610d91565b84519950815160088202610100031c9850505050505050509193909250565b606080825160001415610ecf5790506108d0565b600080610edd6000866114d5565b60f81c90506001811480610ef457508060ff166003145b15610f9b57600185516002020367ffffffffffffffff81118015610f1757600080fd5b506040519080825280601f01601f191660200182016040528015610f42576020820181803683370190505b5092506000610f526001876114d5565b90508084600081518110610f6257fe5b60200101907effffffffffffffffffffffffffffffffffffffffffffffffffffffffffffff1916908160001a9053506001925050610fec565b600285516002020367ffffffffffffffff81118015610fb957600080fd5b506040519080825280601f01601f191660200182016040528015610fe4576020820181803683370190505b509250600091505b60ff82165b835181101561104f5761100c8360ff168203600201876114d5565b84828151811061101857fe5b60200101907effffffffffffffffffffffffffffffffffffffffffffffffffffffffffffff1916908160001a905350600101610ff1565b5091949350505050565b805160009061106a575060006108d0565b6020820151805160001a9060c0821015611089576000925050506108d0565b5060019392505050565b80516000906110a4575060006108d0565b600080905060006110b884602001516110ef565b602085015185519181019250015b808210156110e6576110d78261118e565b600190930192909101906110c6565b50909392505050565b8051600090811a60808110156111095760009150506108d0565b60b8811080611124575060c08110801590611124575060f881105b156111335760019150506108d0565b60c0811015611165577fffffffffffffffffffffffffffffffffffffffffffffffffffffffffffffff4a0190506108d0565b7fffffffffffffffffffffffffffffffffffffffffffffffffffffffffffffff0a0190506108d0565b80516000908190811a60808110156111a9576001915061125c565b60b88110156111dc577fffffffffffffffffffffffffffffffffffffffffffffffffffffffffffffff818101915061125c565b60c08110156112095760b78103600185019450806020036101000a8551046001820181019350505061125c565b60f881101561123c577fffffffffffffffffffffffffffffffffffffffffffffffffffffffffffffff418101915061125c565b60f78103600185019450806020036101000a855104600182018101935050505b5092915050565b60208101519051902090565b600060208260000151101561128e5761128782611263565b90506108d0565b61129782611263565b6040516020016112a79190611964565b6040516020818303038152906040528051906020012090506108d0565b80516060906112d257600080fd5b6000806112de846114af565b9150915060608167ffffffffffffffff811180156112fb57600080fd5b506040519080825280601f01601f191660200182016040528015611326576020820181803683370190505b50905060208101611338848285611532565b50949350505050565b60006060600083511161135357600080fd5b600060048460008151811061136457fe5b60209101015160f81c901c600f16905060008161138757506000925060026113c1565b816001141561139c57506000925060016113c1565b81600214156113b157506001925060026113c1565b8160031415610036575060019250825b836113cc86836115bf565b935093505050915091565b6000805b83518582011080156113ed5750825181105b15610d75578281815181106113fe57fe5b602001015160f81c60f81b7effffffffffffffffffffffffffffffffffffffffffffffffffffffffffffff1916848683018151811061143957fe5b01602001517fff00000000000000000000000000000000000000000000000000000000000000161461146c5790506107be565b6001016113db565b6000806000611482846114af565b9020949350505050565b80516000906001146114a0575060006108d0565b50602001515160001a60801490565b60008060006114c184602001516110ef565b602085015194519481019594039392505050565b600060028306156115065760108260028504815181106114f157fe5b016020015160f81c8161150057fe5b06611528565b601082600285048151811061151757fe5b016020015160f81c8161152657fe5b045b60f81b9392505050565b8061153c576115ba565b5b6020811061157a5782518252602092830192909101907fffffffffffffffffffffffffffffffffffffffffffffffffffffffffffffffe00161153d565b80156115ba578251825160208390036101000a7fffffffffffffffffffffffffffffffffffffffffffffffffffffffffffffffff01801990921691161782525b505050565b606060008351116115cf57600080fd5b8251600202808311156115e157600080fd5b8290038067ffffffffffffffff811180156115fb57600080fd5b506040519080825280601f01601f191660200182016040528015611626576020820181803683370190505b5091506000835b82850181101561171b57600281066116a957600486600283048151811061165057fe5b602001015160f81c60f81b60f81c60ff16901c600f1660f81b84838151811061167557fe5b60200101907effffffffffffffffffffffffffffffffffffffffffffffffffffffffffffff1916908160001a90535061170f565b60008660028304815181106116ba57fe5b602001015160f81c60f81b60f81c60ff16901c600f1660f81b8483815181106116df57fe5b60200101907effffffffffffffffffffffffffffffffffffffffffffffffffffffffffffff1916908160001a9053505b6001918201910161162d565b508251811461172657fe5b505092915050565b604051806040016040528060008152602001600081525090565b600082601f830112611758578081fd5b813567ffffffffffffffff81111561176e578182fd5b61179f60207fffffffffffffffffffffffffffffffffffffffffffffffffffffffffffffffe0601f84011601611afc565b91508082528360208285010111156117b657600080fd5b8060208401602084013760009082016020015292915050565b6000806000606084860312156117e3578283fd5b83516117ee81611b23565b60208501519093506117ff81611b23565b604085015190925063ffffffff81168114611818578182fd5b809150509250925092565b600060208284031215611834578081fd5b5035919050565b60006020828403121561184c578081fd5b5051919050565b60008060408385031215611865578182fd5b82359150602083013567ffffffffffffffff80821115611883578283fd5b81850160808188031215611895578384fd5b61189f6080611afc565b92508035828111156118af578485fd5b6118bb88828401611748565b8452506020810135828111156118cf578485fd5b6118db88828401611748565b6020850152506040810135828111156118f2578485fd5b6118fe88828401611748565b604085015250606081013582811115611915578485fd5b61192188828401611748565b6060850152505050809150509250929050565b60609190911b7fffffffffffffffffffffffffffffffffffffffff00000000000000000000000016815260140190565b90815260200190565b60208082526009908201527f4e45575f50524f4f460000000000000000000000000000000000000000000000604082015260600190565b60208082526003908201527f4e4f570000000000000000000000000000000000000000000000000000000000604082015260600190565b60208082526009908201527f4f4c445f50524f4f460000000000000000000000000000000000000000000000604082015260600190565b60208082526005908201527f4558495354000000000000000000000000000000000000000000000000000000604082015260600190565b6020808252600d908201527f626c6f636b68617368203d203000000000000000000000000000000000000000604082015260600190565b60208082526003908201527f4f4c440000000000000000000000000000000000000000000000000000000000604082015260600190565b60208082526003908201527f4e45570000000000000000000000000000000000000000000000000000000000604082015260600190565b918252602082015260400190565b60405181810167ffffffffffffffff81118282101715611b1b57600080fd5b604052919050565b6dffffffffffffffffffffffffffff81168114611b3f57600080fd5b5056fea2646970667358221220161c1d549c548009f83133ff8557c4e5257051d2728f538e08944d47ec81469364736f6c63430006080033",
  "linkReferences": {},
  "deployedLinkReferences": {}
}