{
  "_format": "hh-sol-artifact-1",
  "contractName": "UTROverride",
  "sourceName": "contracts/UTROverride.sol",
  "abi": [
    {
      "inputs": [
        {
          "internalType": "bytes32",
          "name": "blockedSelectors",
          "type": "bytes32"
        }
      ],
      "stateMutability": "nonpayable",
      "type": "constructor"
    },
    {
      "inputs": [
        {
          "internalType": "bytes",
          "name": "payment",
          "type": "bytes"
        },
        {
          "internalType": "uint256",
          "name": "amount",
          "type": "uint256"
        }
      ],
      "name": "discard",
      "outputs": [],
      "stateMutability": "nonpayable",
      "type": "function"
    },
    {
      "inputs": [
        {
          "components": [
            {
              "internalType": "address",
              "name": "recipient",
              "type": "address"
            },
            {
              "internalType": "uint256",
              "name": "eip",
              "type": "uint256"
            },
            {
              "internalType": "address",
              "name": "token",
              "type": "address"
            },
            {
              "internalType": "uint256",
              "name": "id",
              "type": "uint256"
            },
            {
              "internalType": "uint256",
              "name": "amountOutMin",
              "type": "uint256"
            }
          ],
          "internalType": "struct Output[]",
          "name": "outputs",
          "type": "tuple[]"
        },
        {
          "components": [
            {
              "components": [
                {
                  "internalType": "uint256",
                  "name": "mode",
                  "type": "uint256"
                },
                {
                  "internalType": "address",
                  "name": "recipient",
                  "type": "address"
                },
                {
                  "internalType": "uint256",
                  "name": "eip",
                  "type": "uint256"
                },
                {
                  "internalType": "address",
                  "name": "token",
                  "type": "address"
                },
                {
                  "internalType": "uint256",
                  "name": "id",
                  "type": "uint256"
                },
                {
                  "internalType": "uint256",
                  "name": "amountIn",
                  "type": "uint256"
                }
              ],
              "internalType": "struct Input[]",
              "name": "inputs",
              "type": "tuple[]"
            },
            {
              "internalType": "address",
              "name": "code",
              "type": "address"
            },
            {
              "internalType": "bytes",
              "name": "data",
              "type": "bytes"
            }
          ],
          "internalType": "struct Action[]",
          "name": "actions",
          "type": "tuple[]"
        }
      ],
      "name": "exec",
      "outputs": [
        {
          "internalType": "uint256",
          "name": "twap",
          "type": "uint256"
        },
        {
          "internalType": "uint256",
          "name": "spot",
          "type": "uint256"
        }
      ],
      "stateMutability": "payable",
      "type": "function"
    },
    {
      "inputs": [
        {
          "internalType": "bytes",
          "name": "payment",
          "type": "bytes"
        },
        {
          "internalType": "uint256",
          "name": "amount",
          "type": "uint256"
        }
      ],
      "name": "pay",
      "outputs": [],
      "stateMutability": "nonpayable",
      "type": "function"
    },
    {
      "inputs": [
        {
          "internalType": "bytes4",
          "name": "interfaceId",
          "type": "bytes4"
        }
      ],
      "name": "supportsInterface",
      "outputs": [
        {
          "internalType": "bool",
          "name": "",
          "type": "bool"
        }
      ],
      "stateMutability": "view",
      "type": "function"
    },
    {
      "stateMutability": "payable",
      "type": "receive"
    }
  ],
  "bytecode": "0x60a060405234801561001057600080fd5b5060405161194638038061194683398101604081905261002f91610043565b60201c63c1d34b8960e01b1760805261005c565b60006020828403121561005557600080fd5b5051919050565b6080516118cf6100776000396000610eb101526118cf6000f3fe6080604052600436106100435760003560e01c806301ffc9a71461004f578063715ef7f914610084578063c175dd37146100a6578063f02c9eab146100c657600080fd5b3661004a57005b600080fd5b34801561005b57600080fd5b5061006f61006a36600461123d565b6100ee565b60405190151581526020015b60405180910390f35b34801561009057600080fd5b506100a461009f3660046113fa565b610187565b005b3480156100b257600080fd5b506100a46100c13660046113fa565b6101ce565b6100d96100d436600461167b565b610295565b6040805192835260208301919091520161007b565b60007fffffffff0000000000000000000000000000000000000000000000000000000082167f4007b46500000000000000000000000000000000000000000000000000000000148061018157507f01ffc9a7000000000000000000000000000000000000000000000000000000007fffffffff000000000000000000000000000000000000000000000000000000008316145b92915050565b61019182826101ce565b6000806000806000868060200190518101906101ad9190611787565b945094509450945094506101c585858585858b610955565b50505050505050565b815160208084019190912060008181529182905260409091205482111561027c576040517f08c379a000000000000000000000000000000000000000000000000000000000815260206004820152602a60248201527f556e6976657273616c546f6b656e526f757465723a20494e535546464943494560448201527f4e545f5041594d454e540000000000000000000000000000000000000000000060648201526084015b60405180910390fd5b6000908152602081905260409020805491909103905550565b60008060005b84518110156103795760008582815181106102b8576102b86117e8565b6020026020010151905060006102cd82610b1e565b6080830151909150810181811015610367576040517f08c379a000000000000000000000000000000000000000000000000000000000815260206004820152602d60248201527f556e6976657273616c546f6b656e526f757465723a204f55545055545f42414c60448201527f414e43455f4f564552464c4f57000000000000000000000000000000000000006064820152608401610273565b6080909201919091525060010161029b565b503360005b845181101561086457600085828151811061039b5761039b6117e8565b60200260200101519050600080600090505b82515181101561056e576000836000015182815181106103cf576103cf6117e8565b60200260200101519050600081600001519050600281036103f6578160a001519350610564565b806104ad57600087836020015184604001518560600151866080015160405160200161046195949392919073ffffffffffffffffffffffffffffffffffffffff9586168152938516602085015260408401929092529092166060820152608081019190915260a00190565b604080517fffffffffffffffffffffffffffffffffffffffffffffffffffffffffffffffe0818403018152918152815160209283012060a0860151600091825292819052205550610564565b600181036104dc576104d78783602001518460400151856060015186608001518760a00151610955565b610564565b6040517f08c379a000000000000000000000000000000000000000000000000000000000815260206004820152602260248201527f556e6976657273616c546f6b656e526f757465723a20494e56414c49445f4d4f60448201527f44450000000000000000000000000000000000000000000000000000000000006064820152608401610273565b50506001016103ad565b50602082015173ffffffffffffffffffffffffffffffffffffffff1615158061059c57506000826040015151115b806105a75750600081115b15610785576004826040015151106106d8576106d8601883604001516003815181106105d5576105d56117e8565b0160200151604085015180517fff0000000000000000000000000000000000000000000000000000000000000090921690921c91601091600290811061061d5761061d6117e8565b0160200151604086015180517fff0000000000000000000000000000000000000000000000000000000000000090921690921c916008916001908110610665576106656117e8565b0160200151604087015180517fff0000000000000000000000000000000000000000000000000000000000000090921690921c91906000906106a9576106a96117e8565b01602001517fff0000000000000000000000000000000000000000000000000000000000000016171717610dca565b600080836020015173ffffffffffffffffffffffffffffffffffffffff168385604001516040516107099190611817565b60006040518083038185875af1925050503d8060008114610746576040519150601f19603f3d011682016040523d82523d6000602084013e61074b565b606091505b50915091508161075d57805160208201fd5b60018951038503610782578080602001905181019061077c9190611846565b90985096505b50505b60005b825151811015610856576000836000015182815181106107aa576107aa6117e8565b60200260200101519050600081600001510361084d57602081810151604080840151606080860151608087015184517fffffffffffffffffffffffffffffffffffffffff0000000000000000000000008e851b8116828a015296841b871660348201526048810194909452911b9093166068820152607c8082019390935281518082039093018352609c0181528151918301919091206000908152918290528120555b50600101610788565b50505080600101905061037e565b50478015610876576108768282610f97565b60005b865181101561094b576000878281518110610896576108966117e8565b6020026020010151905060006108ab82610b1e565b90508160800151811015610941576040517f08c379a000000000000000000000000000000000000000000000000000000000815260206004820152603060248201527f556e6976657273616c546f6b656e526f757465723a20494e535546464943494560448201527f4e545f4f55545055545f414d4f554e54000000000000000000000000000000006064820152608401610273565b5050600101610879565b5050509250929050565b8360140361096e57610969838787846110a6565b610b16565b8361048303610a22576040517ff242432a00000000000000000000000000000000000000000000000000000000815273ffffffffffffffffffffffffffffffffffffffff87811660048301528681166024830152604482018490526064820183905260a06084830152600060a483015284169063f242432a9060c4015b600060405180830381600087803b158015610a0557600080fd5b505af1158015610a19573d6000803e3d6000fd5b50505050610b16565b836102d103610a8e576040517f42842e0e00000000000000000000000000000000000000000000000000000000815273ffffffffffffffffffffffffffffffffffffffff87811660048301528681166024830152604482018490528416906342842e0e906064016109eb565b6040517f08c379a000000000000000000000000000000000000000000000000000000000815260206004820152602160248201527f556e6976657273616c546f6b656e526f757465723a20494e56414c49445f454960448201527f50000000000000000000000000000000000000000000000000000000000000006064820152608401610273565b505050505050565b60208101516000906014819003610bce57604083810151845191517f70a0823100000000000000000000000000000000000000000000000000000000815273ffffffffffffffffffffffffffffffffffffffff92831660048201529116906370a08231906024015b602060405180830381865afa158015610ba3573d6000803e3d6000fd5b505050506040513d601f19601f82011682018060405250810190610bc7919061186a565b9392505050565b8061048303610c3c576040838101518451606086015192517efdd58e00000000000000000000000000000000000000000000000000000000815273ffffffffffffffffffffffffffffffffffffffff91821660048201526024810193909352169062fdd58e90604401610b86565b806102d103610da85760608301517f0549972b314bb4225e5b334d0650d563c4e907124dcce9f2eae8c8b2d3d9d30d01610ccb57604083810151845191517f70a0823100000000000000000000000000000000000000000000000000000000815273ffffffffffffffffffffffffffffffffffffffff92831660048201529116906370a0823190602401610b86565b826040015173ffffffffffffffffffffffffffffffffffffffff16636352211e84606001516040518263ffffffff1660e01b8152600401610d0e91815260200190565b602060405180830381865afa925050508015610d65575060408051601f3d9081017fffffffffffffffffffffffffffffffffffffffffffffffffffffffffffffffe0168201909252610d6291810190611883565b60015b610d725750600092915050565b835173ffffffffffffffffffffffffffffffffffffffff828116911614610d9a576000610d9d565b60015b60ff16949350505050565b80610a8e5750505173ffffffffffffffffffffffffffffffffffffffff163190565b7f23b872dd42842e0eb88d4fde62ad1b83fc673c4ff242432a2eb2c2d6d8fbe9945b8015610eae577fffffffff0000000000000000000000000000000000000000000000000000000080821690831603610ea6576040517f08c379a000000000000000000000000000000000000000000000000000000000815260206004820152602660248201527f556e6976657273616c546f6b656e526f757465723a2046554e4354494f4e5f4260448201527f4c4f434b454400000000000000000000000000000000000000000000000000006064820152608401610273565b60201b610dec565b507f00000000000000000000000000000000000000000000000000000000000000005b8015610f93577fffffffff0000000000000000000000000000000000000000000000000000000080821690831603610f8b576040517f08c379a000000000000000000000000000000000000000000000000000000000815260206004820152602660248201527f556e6976657273616c546f6b656e526f757465723a2046554e4354494f4e5f4260448201527f4c4f434b454400000000000000000000000000000000000000000000000000006064820152608401610273565b60201b610ed1565b5050565b6040805160008082526020820190925273ffffffffffffffffffffffffffffffffffffffff8416908390604051610fce9190611817565b60006040518083038185875af1925050503d806000811461100b576040519150601f19603f3d011682016040523d82523d6000602084013e611010565b606091505b50509050806110a1576040517f08c379a000000000000000000000000000000000000000000000000000000000815260206004820152603460248201527f5472616e7366657248656c7065723a3a736166655472616e736665724554483a60448201527f20455448207472616e73666572206661696c65640000000000000000000000006064820152608401610273565b505050565b6040805173ffffffffffffffffffffffffffffffffffffffff85811660248301528481166044830152606480830185905283518084039091018152608490920183526020820180517bffffffffffffffffffffffffffffffffffffffffffffffffffffffff167f23b872dd0000000000000000000000000000000000000000000000000000000017905291516000928392908816916111459190611817565b6000604051808303816000865af19150503d8060008114611182576040519150601f19603f3d011682016040523d82523d6000602084013e611187565b606091505b50915091508180156111b15750805115806111b15750808060200190518101906111b191906118a0565b610b16576040517f08c379a000000000000000000000000000000000000000000000000000000000815260206004820152603160248201527f5472616e7366657248656c7065723a3a7472616e7366657246726f6d3a20747260448201527f616e7366657246726f6d206661696c65640000000000000000000000000000006064820152608401610273565b60006020828403121561124f57600080fd5b81357fffffffff0000000000000000000000000000000000000000000000000000000081168114610bc757600080fd5b7f4e487b7100000000000000000000000000000000000000000000000000000000600052604160045260246000fd5b6040516060810167ffffffffffffffff811182821017156112d1576112d161127f565b60405290565b60405160c0810167ffffffffffffffff811182821017156112d1576112d161127f565b60405160a0810167ffffffffffffffff811182821017156112d1576112d161127f565b604051601f82017fffffffffffffffffffffffffffffffffffffffffffffffffffffffffffffffe016810167ffffffffffffffff811182821017156113645761136461127f565b604052919050565b600082601f83011261137d57600080fd5b813567ffffffffffffffff8111156113975761139761127f565b6113c860207fffffffffffffffffffffffffffffffffffffffffffffffffffffffffffffffe0601f8401160161131d565b8181528460208386010111156113dd57600080fd5b816020850160208301376000918101602001919091529392505050565b6000806040838503121561140d57600080fd5b823567ffffffffffffffff81111561142457600080fd5b6114308582860161136c565b95602094909401359450505050565b600067ffffffffffffffff8211156114595761145961127f565b5060051b60200190565b73ffffffffffffffffffffffffffffffffffffffff8116811461148557600080fd5b50565b803561149381611463565b919050565b600082601f8301126114a957600080fd5b6114bb6114b6833561143f565b61131d565b82358082526020808301929160051b850101858111156114da57600080fd5b602085015b818110156116705767ffffffffffffffff80823511156114fe57600080fd5b8135870160607fffffffffffffffffffffffffffffffffffffffffffffffffffffffffffffffe0828b0301121561153457600080fd5b61153c6112ae565b826020830135111561154d57600080fd5b602082013582018a603f82011261156357600080fd5b60208101356115746114b68261143f565b81815260c090910282016040019060208101908d83111561159457600080fd5b6040840193505b828410156116205760c0848f0312156115b357600080fd5b6115bb6112d7565b843581526115cc6020860135611463565b60208501356020820152604085013560408201526115ed6060860135611463565b606085013560608201526080850135608082015260a085013560a08201528083525060208201915060c08401935061159b565b84525061163291505060408301611488565b6020820152826060830135111561164857600080fd5b61165b8a6020606085013585010161136c565b604082015286525050602093840193016114df565b509095945050505050565b600080604080848603121561168f57600080fd5b833567ffffffffffffffff808211156116a757600080fd5b818601915086601f8301126116bb57600080fd5b813560206116cb6114b68361143f565b82815260a0928302850182019282820191908b8511156116ea57600080fd5b958301955b848710156117585780878d0312156117075760008081fd5b61170f6112fa565b873561171a81611463565b815287850135858201528888013561173181611463565b818a01526060888101359082015260808089013590820152835295860195918301916116ef565b509750508701359350508083111561176f57600080fd5b505061177d85828601611498565b9150509250929050565b600080600080600060a0868803121561179f57600080fd5b85516117aa81611463565b60208701519095506117bb81611463565b6040870151606088015191955093506117d381611463565b80925050608086015190509295509295909350565b7f4e487b7100000000000000000000000000000000000000000000000000000000600052603260045260246000fd5b6000825160005b81811015611838576020818601810151858301520161181e565b506000920191825250919050565b6000806040838503121561185957600080fd5b505080516020909101519092909150565b60006020828403121561187c57600080fd5b5051919050565b60006020828403121561189557600080fd5b8151610bc781611463565b6000602082840312156118b257600080fd5b81518015158114610bc757600080fdfea164736f6c6343000814000a",
  "linkReferences": {},
  "deployedLinkReferences": {}
}