{
  "_format": "hh-sol-artifact-1",
  "contractName": "FeeReceiver",
  "sourceName": "contracts/support/FeeReceiver.sol",
  "abi": [
    {
      "inputs": [
        {
          "internalType": "address",
          "name": "setter",
          "type": "address"
        }
      ],
      "stateMutability": "nonpayable",
      "type": "constructor"
    },
    {
      "inputs": [
        {
          "internalType": "address",
          "name": "token",
          "type": "address"
        },
        {
          "internalType": "address",
          "name": "recipient",
          "type": "address"
        },
        {
          "internalType": "uint256",
          "name": "amount",
          "type": "uint256"
        }
      ],
      "name": "collect",
      "outputs": [],
      "stateMutability": "nonpayable",
      "type": "function"
    },
    {
      "inputs": [],
      "name": "getCollector",
      "outputs": [
        {
          "internalType": "address",
          "name": "",
          "type": "address"
        }
      ],
      "stateMutability": "view",
      "type": "function"
    },
    {
      "inputs": [],
      "name": "getSetter",
      "outputs": [
        {
          "internalType": "address",
          "name": "",
          "type": "address"
        }
      ],
      "stateMutability": "view",
      "type": "function"
    },
    {
      "inputs": [
        {
          "internalType": "address",
          "name": "collector",
          "type": "address"
        }
      ],
      "name": "setCollector",
      "outputs": [],
      "stateMutability": "nonpayable",
      "type": "function"
    },
    {
      "inputs": [
        {
          "internalType": "address",
          "name": "setter",
          "type": "address"
        }
      ],
      "name": "setSetter",
      "outputs": [],
      "stateMutability": "nonpayable",
      "type": "function"
    },
    {
      "stateMutability": "payable",
      "type": "receive"
    }
  ],
  "bytecode": "0x608060405234801561001057600080fd5b506040516107d33803806107d383398101604081905261002f91610054565b600080546001600160a01b0319166001600160a01b0392909216919091179055610084565b60006020828403121561006657600080fd5b81516001600160a01b038116811461007d57600080fd5b9392505050565b610740806100936000396000f3fe60806040526004361061005e5760003560e01c8063c8fea2fb11610043578063c8fea2fb146100e5578063f99aa03d14610107578063fb5b82d01461012757600080fd5b8063502282011461006a5780635bc228ab146100ba57600080fd5b3661006557005b600080fd5b34801561007657600080fd5b5060015473ffffffffffffffffffffffffffffffffffffffff165b60405173ffffffffffffffffffffffffffffffffffffffff909116815260200160405180910390f35b3480156100c657600080fd5b5060005473ffffffffffffffffffffffffffffffffffffffff16610091565b3480156100f157600080fd5b5061010561010036600461065b565b610147565b005b34801561011357600080fd5b50610105610122366004610697565b610202565b34801561013357600080fd5b50610105610142366004610697565b6102ca565b60015473ffffffffffffffffffffffffffffffffffffffff1633146101cd576040517f08c379a000000000000000000000000000000000000000000000000000000000815260206004820152601a60248201527f46656552656369657665723a204e4f545f434f4c4c4543544f5200000000000060448201526064015b60405180910390fd5b73ffffffffffffffffffffffffffffffffffffffff83166101f7576101f28282610392565b505050565b6101f283838361049c565b60005473ffffffffffffffffffffffffffffffffffffffff163314610283576040517f08c379a000000000000000000000000000000000000000000000000000000000815260206004820152601760248201527f46656552656369657665723a204e4f545f53455454455200000000000000000060448201526064016101c4565b600080547fffffffffffffffffffffffff00000000000000000000000000000000000000001673ffffffffffffffffffffffffffffffffffffffff92909216919091179055565b60005473ffffffffffffffffffffffffffffffffffffffff16331461034b576040517f08c379a000000000000000000000000000000000000000000000000000000000815260206004820152601760248201527f46656552656369657665723a204e4f545f53455454455200000000000000000060448201526064016101c4565b600180547fffffffffffffffffffffffff00000000000000000000000000000000000000001673ffffffffffffffffffffffffffffffffffffffff92909216919091179055565b6040805160008082526020820190925273ffffffffffffffffffffffffffffffffffffffff84169083906040516103c991906106b9565b60006040518083038185875af1925050503d8060008114610406576040519150601f19603f3d011682016040523d82523d6000602084013e61040b565b606091505b50509050806101f2576040517f08c379a000000000000000000000000000000000000000000000000000000000815260206004820152603460248201527f5472616e7366657248656c7065723a3a736166655472616e736665724554483a60448201527f20455448207472616e73666572206661696c656400000000000000000000000060648201526084016101c4565b6040805173ffffffffffffffffffffffffffffffffffffffff8481166024830152604480830185905283518084039091018152606490920183526020820180517bffffffffffffffffffffffffffffffffffffffffffffffffffffffff167fa9059cbb00000000000000000000000000000000000000000000000000000000179052915160009283929087169161053391906106b9565b6000604051808303816000865af19150503d8060008114610570576040519150601f19603f3d011682016040523d82523d6000602084013e610575565b606091505b509150915081801561059f57508051158061059f57508080602001905181019061059f91906106e8565b61062b576040517f08c379a000000000000000000000000000000000000000000000000000000000815260206004820152602d60248201527f5472616e7366657248656c7065723a3a736166655472616e736665723a20747260448201527f616e73666572206661696c65640000000000000000000000000000000000000060648201526084016101c4565b5050505050565b803573ffffffffffffffffffffffffffffffffffffffff8116811461065657600080fd5b919050565b60008060006060848603121561067057600080fd5b61067984610632565b925061068760208501610632565b9150604084013590509250925092565b6000602082840312156106a957600080fd5b6106b282610632565b9392505050565b6000825160005b818110156106da57602081860181015185830152016106c0565b506000920191825250919050565b6000602082840312156106fa57600080fd5b815180151581146106b257600080fdfea264697066735822122082807c7d4a0b7453ffdef291e7ce5a4699242ad694de14eec920f804247078d064736f6c63430008140033",
  "linkReferences": {},
  "deployedLinkReferences": {}
}