{
  "_format": "hh-sol-artifact-1",
  "contractName": "Helper",
  "sourceName": "contracts/support/Helper.sol",
  "abi": [
    {
      "inputs": [
        {
          "internalType": "address",
          "name": "token",
          "type": "address"
        },
        {
          "internalType": "address",
          "name": "weth",
          "type": "address"
        }
      ],
      "stateMutability": "nonpayable",
      "type": "constructor"
    },
    {
      "anonymous": false,
      "inputs": [
        {
          "indexed": true,
          "internalType": "address",
          "name": "payer",
          "type": "address"
        },
        {
          "indexed": true,
          "internalType": "address",
          "name": "poolIn",
          "type": "address"
        },
        {
          "indexed": true,
          "internalType": "address",
          "name": "poolOut",
          "type": "address"
        },
        {
          "indexed": false,
          "internalType": "address",
          "name": "recipient",
          "type": "address"
        },
        {
          "indexed": false,
          "internalType": "uint256",
          "name": "sideIn",
          "type": "uint256"
        },
        {
          "indexed": false,
          "internalType": "uint256",
          "name": "sideOut",
          "type": "uint256"
        },
        {
          "indexed": false,
          "internalType": "uint256",
          "name": "amountIn",
          "type": "uint256"
        },
        {
          "indexed": false,
          "internalType": "uint256",
          "name": "amountOut",
          "type": "uint256"
        },
        {
          "indexed": false,
          "internalType": "uint256",
          "name": "price",
          "type": "uint256"
        },
        {
          "indexed": false,
          "internalType": "uint256",
          "name": "priceR",
          "type": "uint256"
        }
      ],
      "name": "Swap",
      "type": "event"
    },
    {
      "inputs": [
        {
          "components": [
            {
              "internalType": "uint256",
              "name": "side",
              "type": "uint256"
            },
            {
              "internalType": "address",
              "name": "deriPool",
              "type": "address"
            },
            {
              "internalType": "address",
              "name": "uniPool",
              "type": "address"
            },
            {
              "internalType": "address",
              "name": "token",
              "type": "address"
            },
            {
              "internalType": "uint256",
              "name": "amount",
              "type": "uint256"
            },
            {
              "internalType": "bytes",
              "name": "payer",
              "type": "bytes"
            },
            {
              "internalType": "address",
              "name": "recipient",
              "type": "address"
            },
            {
              "internalType": "uint256",
              "name": "INDEX_R",
              "type": "uint256"
            }
          ],
          "internalType": "struct Helper.SwapAndSwapParams",
          "name": "params",
          "type": "tuple"
        }
      ],
      "name": "closeAndSwap",
      "outputs": [
        {
          "internalType": "uint256",
          "name": "amountOut",
          "type": "uint256"
        }
      ],
      "stateMutability": "nonpayable",
      "type": "function"
    },
    {
      "inputs": [
        {
          "components": [
            {
              "internalType": "address",
              "name": "FETCHER",
              "type": "address"
            },
            {
              "internalType": "bytes32",
              "name": "ORACLE",
              "type": "bytes32"
            },
            {
              "internalType": "address",
              "name": "TOKEN_R",
              "type": "address"
            },
            {
              "internalType": "uint256",
              "name": "K",
              "type": "uint256"
            },
            {
              "internalType": "uint256",
              "name": "MARK",
              "type": "uint256"
            },
            {
              "internalType": "uint256",
              "name": "INTEREST_HL",
              "type": "uint256"
            },
            {
              "internalType": "uint256",
              "name": "PREMIUM_HL",
              "type": "uint256"
            },
            {
              "internalType": "uint256",
              "name": "MATURITY",
              "type": "uint256"
            },
            {
              "internalType": "uint256",
              "name": "MATURITY_VEST",
              "type": "uint256"
            },
            {
              "internalType": "uint256",
              "name": "MATURITY_RATE",
              "type": "uint256"
            },
            {
              "internalType": "uint256",
              "name": "OPEN_RATE",
              "type": "uint256"
            }
          ],
          "internalType": "struct Config",
          "name": "config",
          "type": "tuple"
        },
        {
          "components": [
            {
              "internalType": "uint256",
              "name": "R",
              "type": "uint256"
            },
            {
              "internalType": "uint256",
              "name": "a",
              "type": "uint256"
            },
            {
              "internalType": "uint256",
              "name": "b",
              "type": "uint256"
            }
          ],
          "internalType": "struct State",
          "name": "state",
          "type": "tuple"
        },
        {
          "internalType": "address",
          "name": "factory",
          "type": "address"
        }
      ],
      "name": "createPool",
      "outputs": [
        {
          "internalType": "address",
          "name": "pool",
          "type": "address"
        }
      ],
      "stateMutability": "payable",
      "type": "function"
    },
    {
      "inputs": [
        {
          "components": [
            {
              "internalType": "address",
              "name": "tokenIn",
              "type": "address"
            },
            {
              "internalType": "address",
              "name": "tokenOut",
              "type": "address"
            },
            {
              "internalType": "address",
              "name": "pool",
              "type": "address"
            },
            {
              "internalType": "address",
              "name": "recipient",
              "type": "address"
            },
            {
              "internalType": "address",
              "name": "payer",
              "type": "address"
            },
            {
              "internalType": "address",
              "name": "utr",
              "type": "address"
            },
            {
              "internalType": "uint256",
              "name": "amountIn",
              "type": "uint256"
            },
            {
              "internalType": "uint256",
              "name": "amountOutMinimum",
              "type": "uint256"
            },
            {
              "internalType": "uint160",
              "name": "sqrtPriceLimitX96",
              "type": "uint160"
            }
          ],
          "internalType": "struct Helper.ExactInputSingleParams",
          "name": "params",
          "type": "tuple"
        }
      ],
      "name": "exactInputSingle",
      "outputs": [
        {
          "internalType": "uint256",
          "name": "amountOut",
          "type": "uint256"
        }
      ],
      "stateMutability": "payable",
      "type": "function"
    },
    {
      "inputs": [
        {
          "internalType": "address",
          "name": "",
          "type": "address"
        },
        {
          "internalType": "address",
          "name": "",
          "type": "address"
        },
        {
          "internalType": "uint256[]",
          "name": "",
          "type": "uint256[]"
        },
        {
          "internalType": "uint256[]",
          "name": "",
          "type": "uint256[]"
        },
        {
          "internalType": "bytes",
          "name": "",
          "type": "bytes"
        }
      ],
      "name": "onERC1155BatchReceived",
      "outputs": [
        {
          "internalType": "bytes4",
          "name": "",
          "type": "bytes4"
        }
      ],
      "stateMutability": "nonpayable",
      "type": "function"
    },
    {
      "inputs": [
        {
          "internalType": "address",
          "name": "",
          "type": "address"
        },
        {
          "internalType": "address",
          "name": "",
          "type": "address"
        },
        {
          "internalType": "uint256",
          "name": "",
          "type": "uint256"
        },
        {
          "internalType": "uint256",
          "name": "",
          "type": "uint256"
        },
        {
          "internalType": "bytes",
          "name": "",
          "type": "bytes"
        }
      ],
      "name": "onERC1155Received",
      "outputs": [
        {
          "internalType": "bytes4",
          "name": "",
          "type": "bytes4"
        }
      ],
      "stateMutability": "nonpayable",
      "type": "function"
    },
    {
      "inputs": [
        {
          "internalType": "bytes4",
          "name": "interfaceId",
          "type": "bytes4"
        }
      ],
      "name": "supportsInterface",
      "outputs": [
        {
          "internalType": "bool",
          "name": "",
          "type": "bool"
        }
      ],
      "stateMutability": "view",
      "type": "function"
    },
    {
      "inputs": [
        {
          "components": [
            {
              "internalType": "uint256",
              "name": "sideIn",
              "type": "uint256"
            },
            {
              "internalType": "address",
              "name": "poolIn",
              "type": "address"
            },
            {
              "internalType": "uint256",
              "name": "sideOut",
              "type": "uint256"
            },
            {
              "internalType": "address",
              "name": "poolOut",
              "type": "address"
            },
            {
              "internalType": "uint256",
              "name": "amountIn",
              "type": "uint256"
            },
            {
              "internalType": "bytes",
              "name": "payer",
              "type": "bytes"
            },
            {
              "internalType": "address",
              "name": "recipient",
              "type": "address"
            },
            {
              "internalType": "uint256",
              "name": "INDEX_R",
              "type": "uint256"
            }
          ],
          "internalType": "struct Helper.SwapParams",
          "name": "params",
          "type": "tuple"
        }
      ],
      "name": "swap",
      "outputs": [
        {
          "internalType": "uint256",
          "name": "amountOut",
          "type": "uint256"
        }
      ],
      "stateMutability": "payable",
      "type": "function"
    },
    {
      "inputs": [
        {
          "components": [
            {
              "internalType": "uint256",
              "name": "side",
              "type": "uint256"
            },
            {
              "internalType": "address",
              "name": "deriPool",
              "type": "address"
            },
            {
              "internalType": "address",
              "name": "uniPool",
              "type": "address"
            },
            {
              "internalType": "address",
              "name": "token",
              "type": "address"
            },
            {
              "internalType": "uint256",
              "name": "amount",
              "type": "uint256"
            },
            {
              "internalType": "bytes",
              "name": "payer",
              "type": "bytes"
            },
            {
              "internalType": "address",
              "name": "recipient",
              "type": "address"
            },
            {
              "internalType": "uint256",
              "name": "INDEX_R",
              "type": "uint256"
            }
          ],
          "internalType": "struct Helper.SwapAndSwapParams",
          "name": "params",
          "type": "tuple"
        }
      ],
      "name": "swapAndOpen",
      "outputs": [
        {
          "internalType": "uint256",
          "name": "amountOut",
          "type": "uint256"
        }
      ],
      "stateMutability": "nonpayable",
      "type": "function"
    },
    {
      "inputs": [
        {
          "components": [
            {
              "internalType": "uint256",
              "name": "xk",
              "type": "uint256"
            },
            {
              "internalType": "uint256",
              "name": "R",
              "type": "uint256"
            },
            {
              "internalType": "uint256",
              "name": "rA",
              "type": "uint256"
            },
            {
              "internalType": "uint256",
              "name": "rB",
              "type": "uint256"
            }
          ],
          "internalType": "struct Slippable",
          "name": "__",
          "type": "tuple"
        },
        {
          "internalType": "bytes",
          "name": "payload",
          "type": "bytes"
        }
      ],
      "name": "swapToState",
      "outputs": [
        {
          "components": [
            {
              "internalType": "uint256",
              "name": "R",
              "type": "uint256"
            },
            {
              "internalType": "uint256",
              "name": "a",
              "type": "uint256"
            },
            {
              "internalType": "uint256",
              "name": "b",
              "type": "uint256"
            }
          ],
          "internalType": "struct State",
          "name": "state1",
          "type": "tuple"
        }
      ],
      "stateMutability": "view",
      "type": "function"
    },
    {
      "inputs": [
        {
          "internalType": "uint256",
          "name": "id",
          "type": "uint256"
        },
        {
          "internalType": "address",
          "name": "recipient",
          "type": "address"
        }
      ],
      "name": "sweep",
      "outputs": [
        {
          "internalType": "uint256",
          "name": "amountOut",
          "type": "uint256"
        }
      ],
      "stateMutability": "nonpayable",
      "type": "function"
    },
    {
      "inputs": [
        {
          "internalType": "int256",
          "name": "amount0Delta",
          "type": "int256"
        },
        {
          "internalType": "int256",
          "name": "amount1Delta",
          "type": "int256"
        },
        {
          "internalType": "bytes",
          "name": "_data",
          "type": "bytes"
        }
      ],
      "name": "uniswapV3SwapCallback",
      "outputs": [],
      "stateMutability": "nonpayable",
      "type": "function"
    },
    {
      "stateMutability": "payable",
      "type": "receive"
    }
  ],
  "bytecode": "0x60c06040523480156200001157600080fd5b5060405162003eb038038062003eb0833981016040819052620000349162000069565b6001600160a01b039182166080521660a052620000a1565b80516001600160a01b03811681146200006457600080fd5b919050565b600080604083850312156200007d57600080fd5b62000088836200004c565b915062000098602084016200004c565b90509250929050565b60805160a051613d956200011b600039600081816109a601528181610ac501528181610b7301528181610c4b01528181610ce301528181610f1901528181610ffa0152818161111501528181611a9c01528181611b4a0152611c1d0152600081816116ef015281816117dd01526128880152613d956000f3fe6080604052600436106100c05760003560e01c8063bc197c8111610074578063dda926611161004e578063dda9266114610238578063f23a6e6114610270578063fa461e33146102b557600080fd5b8063bc197c8114610175578063cbf9b84b146101eb578063dc0192e81461020b57600080fd5b806320c4ea08116100a557806320c4ea081461012f5780633ae7f94114610142578063a7d427c41461015557600080fd5b806301ffc9a7146100cc5780631fc6fe2b1461010157600080fd5b366100c757005b600080fd5b3480156100d857600080fd5b506100ec6100e7366004612e66565b6102d7565b60405190151581526020015b60405180910390f35b34801561010d57600080fd5b5061012161011c366004613079565b610370565b6040519081526020016100f8565b61012161013d36600461314c565b6106f1565b6101216101503660046131f4565b610841565b34801561016157600080fd5b50610121610170366004613079565b611284565b34801561018157600080fd5b506101ba6101903660046132e6565b7fbc197c810000000000000000000000000000000000000000000000000000000095945050505050565b6040517fffffffff0000000000000000000000000000000000000000000000000000000090911681526020016100f8565b3480156101f757600080fd5b50610121610206366004613394565b6116b8565b34801561021757600080fd5b5061022b61022636600461340d565b61183f565b6040516100f89190613468565b61024b6102463660046134c3565b611a00565b60405173ffffffffffffffffffffffffffffffffffffffff90911681526020016100f8565b34801561027c57600080fd5b506101ba61028b366004613599565b7ff23a6e610000000000000000000000000000000000000000000000000000000095945050505050565b3480156102c157600080fd5b506102d56102d0366004613602565b611d3c565b005b60007fffffffff0000000000000000000000000000000000000000000000000000000082167f4e2312e000000000000000000000000000000000000000000000000000000000148061036a57507f01ffc9a7000000000000000000000000000000000000000000000000000000007fffffffff000000000000000000000000000000000000000000000000000000008316145b92915050565b600080826020015173ffffffffffffffffffffffffffffffffffffffff166322d659516040518163ffffffff1660e01b815260040161016060405180830381865afa1580156103c3573d6000803e3d6000fd5b505050506040513d601f19601f820116820180604052508101906103e79190613660565b604080516060808201835233825260a0870151602080840191909152308385015287516080808a015186519384019290925260009583018690529282015293945091929091839101604080517fffffffffffffffffffffffffffffffffffffffffffffffffffffffffffffffe08184030181528282526020898101516080850184528a51855260009185019190915230848401526060840182905291517f2b2f291300000000000000000000000000000000000000000000000000000000815290935073ffffffffffffffffffffffffffffffffffffffff90911691632b2f2913916104d8919086906004016137be565b6060604051808303816000875af11580156104f7573d6000803e3d6000fd5b505050506040513d601f19601f8201168201806040525081019061051b9190613822565b90915080945081965050506000859050610620604051806101200160405280876040015173ffffffffffffffffffffffffffffffffffffffff168152602001896060015173ffffffffffffffffffffffffffffffffffffffff168152602001896040015173ffffffffffffffffffffffffffffffffffffffff1681526020018960c0015173ffffffffffffffffffffffffffffffffffffffff1681526020013073ffffffffffffffffffffffffffffffffffffffff168152602001600073ffffffffffffffffffffffffffffffffffffffff16815260200188815260200160008152602001600073ffffffffffffffffffffffffffffffffffffffff168152506106f1565b955060006106318860e00151611e24565b602089015160a08a015191925073ffffffffffffffffffffffffffffffffffffffff16908190610662906000611e9a565b60c0808c01518c516080808f01516040805173ffffffffffffffffffffffffffffffffffffffff958616815260208101949094526000908401526060830152810188905260a081018b905291820186905291909116907f7ae20bbbc1e9d63498613f872e04683422aadad8612e9cbb0b14b8a9eff0f3629060e0015b60405180910390a4505050505050919050565b60006107c78260c001518360600151846101000151604051806060016040528087600001518860200151896040015160405160200161077093929190606093841b7fffffffffffffffffffffffffffffffffffffffff000000000000000000000000908116825292841b83166014820152921b166028820152603c0190565b6040516020818303038152906040528152602001876080015173ffffffffffffffffffffffffffffffffffffffff1681526020018760a0015173ffffffffffffffffffffffffffffffffffffffff16815250611f2a565b90508160e0015181101561083c576040517f08c379a000000000000000000000000000000000000000000000000000000000815260206004820152601360248201527f546f6f206c6974746c652072656365697665640000000000000000000000000060448201526064015b60405180910390fd5b919050565b600080604051806080016040528084600001518152602001846040015181526020016108728560a001516000611e9a565b73ffffffffffffffffffffffffffffffffffffffff1681526020018460c0015173ffffffffffffffffffffffffffffffffffffffff1681525090506000836020015173ffffffffffffffffffffffffffffffffffffffff166322d659516040518163ffffffff1660e01b815260040161016060405180830381865afa1580156108ff573d6000803e3d6000fd5b505050506040513d601f19601f820116820180604052508101906109239190613660565b9050600081604001519050846060015173ffffffffffffffffffffffffffffffffffffffff16856020015173ffffffffffffffffffffffffffffffffffffffff161461097c5761097385826120e5565b95945050505050565b84517fffffffffffffffffffffffffffffffffffffffffffffffffffffffffffffffff01610cd5577f000000000000000000000000000000000000000000000000000000000000000073ffffffffffffffffffffffffffffffffffffffff168173ffffffffffffffffffffffffffffffffffffffff1614610a59576040517f08c379a000000000000000000000000000000000000000000000000000000000815260206004820152601c60248201527f5265736572766520746f6b656e206973206e6f742057726170706564000000006044820152606401610833565b34600003610ac3576040517f08c379a000000000000000000000000000000000000000000000000000000000815260206004820152600e60248201527f56616c7565206e656564203e20300000000000000000000000000000000000006044820152606401610833565b7f000000000000000000000000000000000000000000000000000000000000000073ffffffffffffffffffffffffffffffffffffffff1663d0e30db0346040518263ffffffff1660e01b81526004016000604051808303818588803b158015610b2b57600080fd5b505af1158015610b3f573d6000803e3d6000fd5b50506040517f70a08231000000000000000000000000000000000000000000000000000000008152306004820152600093507f000000000000000000000000000000000000000000000000000000000000000073ffffffffffffffffffffffffffffffffffffffff1692506370a0823191506024016020604051808303816000875af1158015610bd3573d6000803e3d6000fd5b505050506040513d601f19601f82011682018060405250810190610bf79190613850565b60208701516040517f095ea7b300000000000000000000000000000000000000000000000000000000815273ffffffffffffffffffffffffffffffffffffffff9182166004820152602481018390529192507f0000000000000000000000000000000000000000000000000000000000000000169063095ea7b3906044016020604051808303816000875af1158015610c94573d6000803e3d6000fd5b505050506040513d601f19601f82011682018060405250810190610cb89190613879565b50506040805160208101909152600080825260a087019190915285525b6001856040015103610da4577f000000000000000000000000000000000000000000000000000000000000000073ffffffffffffffffffffffffffffffffffffffff168173ffffffffffffffffffffffffffffffffffffffff1614610d96576040517f08c379a000000000000000000000000000000000000000000000000000000000815260206004820152601c60248201527f5265736572766520746f6b656e206973206e6f742057726170706564000000006044820152606401610833565b600060408601523060c08601525b600080866000015187604001518860800151604051602001610dd9939291909283526020830191909152604082015260600190565b604080517fffffffffffffffffffffffffffffffffffffffffffffffffffffffffffffffe081840301815282825260208a8101516080850184528b5185528b84015185830152308585015260608086018490528451908101855233815260a08d01519281019290925260c08c015173ffffffffffffffffffffffffffffffffffffffff9081168386015293517f2b2f29130000000000000000000000000000000000000000000000000000000081529295509290921692632b2f291392610ea2926004016137be565b6060604051808303816000875af1158015610ec1573d6000803e3d6000fd5b505050506040513d601f19601f82011682018060405250810190610ee59190613822565b602088015191985093507fffffffffffffffffffffffffffffffffffffffffffffffffffffffffffffffff019050611194577f000000000000000000000000000000000000000000000000000000000000000073ffffffffffffffffffffffffffffffffffffffff168373ffffffffffffffffffffffffffffffffffffffff1614610fcc576040517f08c379a000000000000000000000000000000000000000000000000000000000815260206004820152601c60248201527f5265736572766520746f6b656e206973206e6f742057726170706564000000006044820152606401610833565b6040517f70a082310000000000000000000000000000000000000000000000000000000081523060048201527f000000000000000000000000000000000000000000000000000000000000000073ffffffffffffffffffffffffffffffffffffffff16906370a0823190602401602060405180830381865afa158015611056573d6000803e3d6000fd5b505050506040513d601f19601f8201168201806040525081019061107a9190613850565b9550600086116110e6576040517f08c379a000000000000000000000000000000000000000000000000000000000815260206004820152601b60248201527f446f206e6f7420686176652045544820746f207472616e7366657200000000006044820152606401610833565b6040517f2e1a7d4d000000000000000000000000000000000000000000000000000000008152600481018790527f000000000000000000000000000000000000000000000000000000000000000073ffffffffffffffffffffffffffffffffffffffff1690632e1a7d4d90602401600060405180830381600087803b15801561116e57600080fd5b505af1158015611182573d6000803e3d6000fd5b505050506111948560600151876125ac565b60006111a38860e00151611e24565b9050876060015173ffffffffffffffffffffffffffffffffffffffff16886020015173ffffffffffffffffffffffffffffffffffffffff16876040015173ffffffffffffffffffffffffffffffffffffffff167f7ae20bbbc1e9d63498613f872e04683422aadad8612e9cbb0b14b8a9eff0f36289606001518a600001518b602001518e608001518e8b8a6040516106de979695949392919073ffffffffffffffffffffffffffffffffffffffff979097168752602087019590955260408601939093526060850191909152608084015260a083015260c082015260e00190565b600080826020015173ffffffffffffffffffffffffffffffffffffffff166322d659516040518163ffffffff1660e01b815260040161016060405180830381865afa1580156112d7573d6000803e3d6000fd5b505050506040513d601f19601f820116820180604052508101906112fb9190613660565b905060006113d3604051806101200160405280866060015173ffffffffffffffffffffffffffffffffffffffff168152602001846040015173ffffffffffffffffffffffffffffffffffffffff168152602001866040015173ffffffffffffffffffffffffffffffffffffffff1681526020013073ffffffffffffffffffffffffffffffffffffffff1681526020016113998760a001516000611e9a565b73ffffffffffffffffffffffffffffffffffffffff16815233602082015260808088015160408301526000606083018190529101526106f1565b925060008390506113ed83604001518660200151866126bb565b604080516060808201835233825282516020808201855260008083528185019290925260c08a015173ffffffffffffffffffffffffffffffffffffffff168486015289518551918201839052948101949094529083018790529091608001604080517fffffffffffffffffffffffffffffffffffffffffffffffffffffffffffffffe081840301815282825260208a810151608085018452600085528b519185019190915230848401526060840182905291517f2b2f291300000000000000000000000000000000000000000000000000000000815290935073ffffffffffffffffffffffffffffffffffffffff90911691632b2f2913916114f4919086906004016137be565b6060604051808303816000875af1158015611513573d6000803e3d6000fd5b505050506040513d601f19601f820116820180604052508101906115379190613822565b60408881015160208c015191517fdd62ed3e00000000000000000000000000000000000000000000000000000000815230600482015273ffffffffffffffffffffffffffffffffffffffff9283166024820152939a5091975060009350169063dd62ed3e90604401602060405180830381865afa1580156115bc573d6000803e3d6000fd5b505050506040513d601f19601f820116820180604052508101906115e09190613850565b11156115fa576115fa8560400151886020015160006126bb565b60006116098860e00151611e24565b602089015160a08a015191925073ffffffffffffffffffffffffffffffffffffffff1690819061163a906000611e9a565b60c0808c01518c516040805173ffffffffffffffffffffffffffffffffffffffff93841681526000602082015290810191909152606081018a9052608081018d905260a081018b905291820186905291909116907f7ae20bbbc1e9d63498613f872e04683422aadad8612e9cbb0b14b8a9eff0f3629060e0016106de565b6040517efdd58e000000000000000000000000000000000000000000000000000000008152306004820152602481018390526000907f000000000000000000000000000000000000000000000000000000000000000073ffffffffffffffffffffffffffffffffffffffff169062fdd58e90604401602060405180830381865afa15801561174a573d6000803e3d6000fd5b505050506040513d601f19601f8201168201806040525081019061176e9190613850565b9050801561036a576040517ff242432a00000000000000000000000000000000000000000000000000000000815230600482015273ffffffffffffffffffffffffffffffffffffffff8381166024830152604482018590526064820183905260a06084830152600060a48301527f0000000000000000000000000000000000000000000000000000000000000000169063f242432a9060c401600060405180830381600087803b15801561182157600080fd5b505af1158015611835573d6000803e3d6000fd5b5050505092915050565b61186360405180606001604052806000815260200160008152602001600081525090565b6000808061187385870187613894565b60208a013587529194509250905060408701356060880135846118aa5782866000018181516118a291906138ef565b905250611955565b60006118b586612851565b9050601086036118e1576118ce848b6040013583612908565b93506118da8484613902565b9250611953565b6020860361190b576118f8848b6060013583612908565b93506119048483613902565b9150611953565b600060608b013561192460408d013560208e0135613902565b61192e9190613902565b905061194f8561193f600284613902565b61194a8560016138ef565b612908565b9450505b505b8361197457828660000181815161196c9190613902565b9052506119a2565b6010840361198d5761198683836138ef565b91506119a2565b602084036119a25761199f83826138ef565b90505b85516119b2908a359084906129d9565b60208701526119ee6119e58a357fffffffffffffffffffffffffffffffffffffffffffffffffffffffffffffffff613944565b875183906129d9565b60408701525093979650505050505050565b6040517f86999c4d00000000000000000000000000000000000000000000000000000000815260009073ffffffffffffffffffffffffffffffffffffffff8316906386999c4d90611a5590879060040161397f565b6020604051808303816000875af1158015611a74573d6000803e3d6000fd5b505050506040513d601f19601f82011682018060405250810190611a989190613a2c565b90507f000000000000000000000000000000000000000000000000000000000000000073ffffffffffffffffffffffffffffffffffffffff1663d0e30db0346040518263ffffffff1660e01b81526004016000604051808303818588803b158015611b0257600080fd5b505af1158015611b16573d6000803e3d6000fd5b50506040517f70a08231000000000000000000000000000000000000000000000000000000008152306004820152600093507f000000000000000000000000000000000000000000000000000000000000000073ffffffffffffffffffffffffffffffffffffffff1692506370a0823191506024016020604051808303816000875af1158015611baa573d6000803e3d6000fd5b505050506040513d601f19601f82011682018060405250810190611bce9190613850565b6040517f095ea7b300000000000000000000000000000000000000000000000000000000815273ffffffffffffffffffffffffffffffffffffffff8481166004830152602482018390529192507f00000000000000000000000000000000000000000000000000000000000000009091169063095ea7b3906044016020604051808303816000875af1158015611c68573d6000803e3d6000fd5b505050506040513d601f19601f82011682018060405250810190611c8c9190613879565b5060408051606081018252600080825282516020818101855291815290820152338183015290517fdc1a6f3300000000000000000000000000000000000000000000000000000000815273ffffffffffffffffffffffffffffffffffffffff84169163dc1a6f3391611d02918891600401613a49565b600060405180830381600087803b158015611d1c57600080fd5b505af1158015611d30573d6000803e3d6000fd5b50505050509392505050565b6000841380611d4b5750600083135b611d5457600080fd5b6000611d6282840184613a7f565b8051909150600090611d749082611e9a565b8251909150600090611d87906014611e9a565b905060008060008913611dc9578373ffffffffffffffffffffffffffffffffffffffff168373ffffffffffffffffffffffffffffffffffffffff161088611dfa565b8273ffffffffffffffffffffffffffffffffffffffff168473ffffffffffffffffffffffffffffffffffffffff1610895b915091508115611e1957611e1985604001518587602001513385612a41565b505050505050505050565b600081600003611e3657506000919050565b7f4000000000000000000000000000000000000000000000000000000000000000821615611e9157611e8960017f4000000000000000000000000000000000000000000000000000000000000000613902565b909116919050565b61036a82612b37565b6000611ea78260146138ef565b83511015611f11576040517f08c379a000000000000000000000000000000000000000000000000000000000815260206004820152601560248201527f746f416464726573735f6f75744f66426f756e647300000000000000000000006044820152606401610833565b5001602001516c01000000000000000000000000900490565b600073ffffffffffffffffffffffffffffffffffffffff8416611f4b573093505b8151600090611f5a9082611e9a565b8351909150600090611f6d906014611e9a565b8451909150600090611f80906028611e9a565b905060008273ffffffffffffffffffffffffffffffffffffffff168473ffffffffffffffffffffffffffffffffffffffff161090506000808373ffffffffffffffffffffffffffffffffffffffff1663128acb088b85611fdf8f612c47565b73ffffffffffffffffffffffffffffffffffffffff8e1615612001578d61203a565b8761202a57612025600173fffd8963efd1fc6a506488495d951d5263988d26613b19565b61203a565b61203a6401000276a36001613b4d565b8d60405160200161204b9190613b7a565b6040516020818303038152906040526040518663ffffffff1660e01b815260040161207a959493929190613bd2565b60408051808303816000875af1158015612098573d6000803e3d6000fd5b505050506040513d601f19601f820116820180604052508101906120bc9190613c19565b91509150826120cb57816120cd565b805b6120d690613c3d565b9b9a5050505050505050505050565b815160808301516040516000928392612114928491906020019283526020830191909152604082015260600190565b604080517fffffffffffffffffffffffffffffffffffffffffffffffffffffffffffffffe0818403018152828252602087810151608085018452885185526000858301523085850181905260608087018590528551908101865233815260a08b0151938101939093528285015292517f2b2f291300000000000000000000000000000000000000000000000000000000815291945073ffffffffffffffffffffffffffffffffffffffff90921692632b2f2913926121d4926004016137be565b6060604051808303816000875af11580156121f3573d6000803e3d6000fd5b505050506040513d601f19601f820116820180604052508101906122179190613822565b5060608601516040517f095ea7b300000000000000000000000000000000000000000000000000000000815273ffffffffffffffffffffffffffffffffffffffff9182166004820152602481018390529194508516915063095ea7b3906044016020604051808303816000875af1158015612296573d6000803e3d6000fd5b505050506040513d601f19601f820116820180604052508101906122ba9190613879565b5060408085015181516000602082018190529281019190915260608101849052608001604080517fffffffffffffffffffffffffffffffffffffffffffffffffffffffffffffffe081840301815282825260608089015160808501845260008086528a8501516020878101919091523087870152838701859052855193840186523384528551808201875291825283015260c08a015173ffffffffffffffffffffffffffffffffffffffff9081168386015293517f2b2f29130000000000000000000000000000000000000000000000000000000081529296509290921692632b2f2913926123ab926004016137be565b6060604051808303816000875af11580156123ca573d6000803e3d6000fd5b505050506040513d601f19601f820116820180604052508101906123ee9190613822565b60a08801519195509250600091506124069082611e9a565b6040517f70a0823100000000000000000000000000000000000000000000000000000000815230600482015290915060009073ffffffffffffffffffffffffffffffffffffffff8716906370a0823190602401602060405180830381865afa158015612476573d6000803e3d6000fd5b505050506040513d601f19601f8201168201806040525081019061249a9190613850565b905080156124ad576124ad868383612c79565b60006124bc8860e00151611e24565b9050876060015173ffffffffffffffffffffffffffffffffffffffff16886020015173ffffffffffffffffffffffffffffffffffffffff168473ffffffffffffffffffffffffffffffffffffffff167f7ae20bbbc1e9d63498613f872e04683422aadad8612e9cbb0b14b8a9eff0f3628b60c001518c600001518d604001518e608001518d8c8a604051612599979695949392919073ffffffffffffffffffffffffffffffffffffffff979097168752602087019590955260408601939093526060850191909152608084015260a083015260c082015260e00190565b60405180910390a4505050505092915050565b6040805160008082526020820190925273ffffffffffffffffffffffffffffffffffffffff84169083906040516125e39190613c75565b60006040518083038185875af1925050503d8060008114612620576040519150601f19603f3d011682016040523d82523d6000602084013e612625565b606091505b50509050806126b6576040517f08c379a000000000000000000000000000000000000000000000000000000000815260206004820152603460248201527f5472616e7366657248656c7065723a3a736166655472616e736665724554483a60448201527f20455448207472616e73666572206661696c65640000000000000000000000006064820152608401610833565b505050565b6040805173ffffffffffffffffffffffffffffffffffffffff8481166024830152604480830185905283518084039091018152606490920183526020820180517bffffffffffffffffffffffffffffffffffffffffffffffffffffffff167f095ea7b30000000000000000000000000000000000000000000000000000000017905291516000928392908716916127529190613c75565b6000604051808303816000865af19150503d806000811461278f576040519150601f19603f3d011682016040523d82523d6000602084013e612794565b606091505b50915091508180156127be5750805115806127be5750808060200190518101906127be9190613879565b61284a576040517f08c379a000000000000000000000000000000000000000000000000000000000815260206004820152602b60248201527f5472616e7366657248656c7065723a3a73616665417070726f76653a2061707060448201527f726f7665206661696c65640000000000000000000000000000000000000000006064820152608401610833565b5050505050565b6040517fbd85b0390000000000000000000000000000000000000000000000000000000081523360a083901b1760048201526000907f000000000000000000000000000000000000000000000000000000000000000073ffffffffffffffffffffffffffffffffffffffff169063bd85b03990602401602060405180830381865afa1580156128e4573d6000803e3d6000fd5b505050506040513d601f19601f8201168201806040525081019061036a9190613850565b600080807fffffffffffffffffffffffffffffffffffffffffffffffffffffffffffffffff8587098587029250828110838203039150508060000361295f576000841161295457600080fd5b5082900490506129d2565b80841161296b57600080fd5b6000848688096000868103871696879004966002600389028118808a02820302808a02820302808a02820302808a02820302808a02820302808a02909103029181900381900460010186841190950394909402919094039290920491909117919091029150505b9392505050565b6000600182901c8311612a0957612a028370010000000000000000000000000000000086612e08565b90506129d2565b6000612a34612a188585613902565b600287901b700100000000000000000000000000000000612e08565b9050610973838483612e08565b73ffffffffffffffffffffffffffffffffffffffff8516612a6c57612a67848383612c79565b61284a565b6040805173ffffffffffffffffffffffffffffffffffffffff858116602083015284811682840152601460608301528681166080830152600060a0808401919091528351808403909101815260c08301938490527f715ef7f90000000000000000000000000000000000000000000000000000000090935287169063715ef7f990612afd908490869060c401613c91565b600060405180830381600087803b158015612b1757600080fd5b505af1158015612b2b573d6000803e3d6000fd5b50505050505050505050565b60008082905060008173ffffffffffffffffffffffffffffffffffffffff16633850c7bd6040518163ffffffff1660e01b815260040160e060405180830381865afa158015612b8a573d6000803e3d6000fd5b505050506040513d601f19601f82011682018060405250810190612bae9190613cc5565b505050505050905060208173ffffffffffffffffffffffffffffffffffffffff16901b73ffffffffffffffffffffffffffffffffffffffff1692507f80000000000000000000000000000000000000000000000000000000000000008416600003612c4057612c3d837fffffffffffffffffffffffffffffffffffffffffffffffffffffffffffffffff613944565b92505b5050919050565b60007f80000000000000000000000000000000000000000000000000000000000000008210612c7557600080fd5b5090565b6040805173ffffffffffffffffffffffffffffffffffffffff8481166024830152604480830185905283518084039091018152606490920183526020820180517bffffffffffffffffffffffffffffffffffffffffffffffffffffffff167fa9059cbb000000000000000000000000000000000000000000000000000000001790529151600092839290871691612d109190613c75565b6000604051808303816000865af19150503d8060008114612d4d576040519150601f19603f3d011682016040523d82523d6000602084013e612d52565b606091505b5091509150818015612d7c575080511580612d7c575080806020019051810190612d7c9190613879565b61284a576040517f08c379a000000000000000000000000000000000000000000000000000000000815260206004820152602d60248201527f5472616e7366657248656c7065723a3a736166655472616e736665723a20747260448201527f616e73666572206661696c6564000000000000000000000000000000000000006064820152608401610833565b6000612e15848484612908565b905060008280612e2757612e27613915565b84860911156129d2577fffffffffffffffffffffffffffffffffffffffffffffffffffffffffffffffff8110612e5c57600080fd5b6001019392505050565b600060208284031215612e7857600080fd5b81357fffffffff00000000000000000000000000000000000000000000000000000000811681146129d257600080fd5b7f4e487b7100000000000000000000000000000000000000000000000000000000600052604160045260246000fd5b604051610100810167ffffffffffffffff81118282101715612efb57612efb612ea8565b60405290565b604051610120810167ffffffffffffffff81118282101715612efb57612efb612ea8565b6040516060810167ffffffffffffffff81118282101715612efb57612efb612ea8565b604051610160810167ffffffffffffffff81118282101715612efb57612efb612ea8565b604051601f82017fffffffffffffffffffffffffffffffffffffffffffffffffffffffffffffffe016810167ffffffffffffffff81118282101715612fb357612fb3612ea8565b604052919050565b73ffffffffffffffffffffffffffffffffffffffff81168114612fdd57600080fd5b50565b803561083c81612fbb565b600082601f830112612ffc57600080fd5b813567ffffffffffffffff81111561301657613016612ea8565b61304760207fffffffffffffffffffffffffffffffffffffffffffffffffffffffffffffffe0601f84011601612f6c565b81815284602083860101111561305c57600080fd5b816020850160208301376000918101602001919091529392505050565b60006020828403121561308b57600080fd5b813567ffffffffffffffff808211156130a357600080fd5b9083019061010082860312156130b857600080fd5b6130c0612ed7565b823581526130d060208401612fe0565b60208201526130e160408401612fe0565b60408201526130f260608401612fe0565b60608201526080830135608082015260a08301358281111561311357600080fd5b61311f87828601612feb565b60a08301525061313160c08401612fe0565b60c082015260e083013560e082015280935050505092915050565b6000610120828403121561315f57600080fd5b613167612f01565b61317083612fe0565b815261317e60208401612fe0565b602082015261318f60408401612fe0565b60408201526131a060608401612fe0565b60608201526131b160808401612fe0565b60808201526131c260a08401612fe0565b60a082015260c083013560c082015260e083013560e08201526101006131e9818501612fe0565b908201529392505050565b60006020828403121561320657600080fd5b813567ffffffffffffffff8082111561321e57600080fd5b90830190610100828603121561323357600080fd5b61323b612ed7565b8235815261324b60208401612fe0565b6020820152604083013560408201526130f260608401612fe0565b600082601f83011261327757600080fd5b8135602067ffffffffffffffff82111561329357613293612ea8565b8160051b6132a2828201612f6c565b92835284810182019282810190878511156132bc57600080fd5b83870192505b848310156132db578235825291830191908301906132c2565b979650505050505050565b600080600080600060a086880312156132fe57600080fd5b853561330981612fbb565b9450602086013561331981612fbb565b9350604086013567ffffffffffffffff8082111561333657600080fd5b61334289838a01613266565b9450606088013591508082111561335857600080fd5b61336489838a01613266565b9350608088013591508082111561337a57600080fd5b5061338788828901612feb565b9150509295509295909350565b600080604083850312156133a757600080fd5b8235915060208301356133b981612fbb565b809150509250929050565b60008083601f8401126133d657600080fd5b50813567ffffffffffffffff8111156133ee57600080fd5b60208301915083602082850101111561340657600080fd5b9250929050565b600080600083850360a081121561342357600080fd5b608081121561343157600080fd5b50839250608084013567ffffffffffffffff81111561344f57600080fd5b61345b868287016133c4565b9497909650939450505050565b8151815260208083015190820152604080830151908201526060810161036a565b60006060828403121561349b57600080fd5b6134a3612f25565b905081358152602082013560208201526040820135604082015292915050565b60008060008385036101e08112156134da57600080fd5b610160808212156134ea57600080fd5b6134f2612f48565b91506134fd86612fe0565b82526020860135602083015261351560408701612fe0565b6040830152606086013560608301526080860135608083015260a086013560a083015260c086013560c083015260e086013560e083015261010080870135818401525061012080870135818401525061014080870135818401525081945061357f87828801613489565b935050506135906101c08501612fe0565b90509250925092565b600080600080600060a086880312156135b157600080fd5b85356135bc81612fbb565b945060208601356135cc81612fbb565b93506040860135925060608601359150608086013567ffffffffffffffff8111156135f657600080fd5b61338788828901612feb565b6000806000806060858703121561361857600080fd5b8435935060208501359250604085013567ffffffffffffffff81111561363d57600080fd5b613649878288016133c4565b95989497509550505050565b805161083c81612fbb565b6000610160828403121561367357600080fd5b61367b612f48565b61368483613655565b81526020830151602082015261369c60408401613655565b6040820152606083015160608201526080830151608082015260a083015160a082015260c083015160c082015260e083015160e08201526101008084015181830152506101208084015181830152506101408084015181830152508091505092915050565b60005b8381101561371c578181015183820152602001613704565b50506000910152565b6000815180845261373d816020860160208601613701565b601f017fffffffffffffffffffffffffffffffffffffffffffffffffffffffffffffffe0169290920160200192915050565b600073ffffffffffffffffffffffffffffffffffffffff8083511684526020830151606060208601526137a56060860182613725565b9050816040850151166040860152809250505092915050565b60408152825160408201526020830151606082015273ffffffffffffffffffffffffffffffffffffffff604084015116608082015260006060840151608060a084015261380e60c0840182613725565b90508281036020840152610973818561376f565b60008060006060848603121561383757600080fd5b8351925060208401519150604084015190509250925092565b60006020828403121561386257600080fd5b5051919050565b8051801515811461083c57600080fd5b60006020828403121561388b57600080fd5b6129d282613869565b6000806000606084860312156138a957600080fd5b505081359360208301359350604090920135919050565b7f4e487b7100000000000000000000000000000000000000000000000000000000600052601160045260246000fd5b8082018082111561036a5761036a6138c0565b8181038181111561036a5761036a6138c0565b7f4e487b7100000000000000000000000000000000000000000000000000000000600052601260045260246000fd5b60008261397a577f4e487b7100000000000000000000000000000000000000000000000000000000600052601260045260246000fd5b500490565b815173ffffffffffffffffffffffffffffffffffffffff16815261016081016020830151602083015260408301516139cf604084018273ffffffffffffffffffffffffffffffffffffffff169052565b50606083015160608301526080830151608083015260a083015160a083015260c083015160c083015260e083015160e083015261010080840151818401525061012080840151818401525061014080840151818401525092915050565b600060208284031215613a3e57600080fd5b81516129d281612fbb565b825181526020808401519082015260408084015190820152608060608201526000613a77608083018461376f565b949350505050565b600060208284031215613a9157600080fd5b813567ffffffffffffffff80821115613aa957600080fd5b9083019060608286031215613abd57600080fd5b613ac5612f25565b823582811115613ad457600080fd5b613ae087828601612feb565b82525060208301359150613af382612fbb565b81602082015260408301359250613b0983612fbb565b6040810192909252509392505050565b73ffffffffffffffffffffffffffffffffffffffff828116828216039080821115613b4657613b466138c0565b5092915050565b73ffffffffffffffffffffffffffffffffffffffff818116838216019080821115613b4657613b466138c0565b602081526000825160606020840152613b966080840182613725565b9050602084015173ffffffffffffffffffffffffffffffffffffffff808216604086015280604087015116606086015250508091505092915050565b600073ffffffffffffffffffffffffffffffffffffffff8088168352861515602084015285604084015280851660608401525060a060808301526132db60a0830184613725565b60008060408385031215613c2c57600080fd5b505080516020909101519092909150565b60007f80000000000000000000000000000000000000000000000000000000000000008203613c6e57613c6e6138c0565b5060000390565b60008251613c87818460208701613701565b9190910192915050565b604081526000613ca46040830185613725565b90508260208301529392505050565b805161ffff8116811461083c57600080fd5b600080600080600080600060e0888a031215613ce057600080fd5b8751613ceb81612fbb565b8097505060208801518060020b8114613d0357600080fd5b9550613d1160408901613cb3565b9450613d1f60608901613cb3565b9350613d2d60808901613cb3565b925060a088015160ff81168114613d4357600080fd5b9150613d5160c08901613869565b90509295989194975092955056fea2646970667358221220031765864409d1ebc6baafc2ecf658779c898bcdf62b66da6adcd192c202e24664736f6c63430008140033",
  "linkReferences": {},
  "deployedLinkReferences": {}
}