{
  "_format": "hh-sol-artifact-1",
  "contractName": "Helper",
  "sourceName": "contracts/support/Helper.sol",
  "abi": [
    {
      "inputs": [
        {
          "internalType": "address",
          "name": "token",
          "type": "address"
        },
        {
          "internalType": "address",
          "name": "weth",
          "type": "address"
        }
      ],
      "stateMutability": "nonpayable",
      "type": "constructor"
    },
    {
      "anonymous": false,
      "inputs": [
        {
          "indexed": true,
          "internalType": "address",
          "name": "payer",
          "type": "address"
        },
        {
          "indexed": true,
          "internalType": "address",
          "name": "poolIn",
          "type": "address"
        },
        {
          "indexed": true,
          "internalType": "address",
          "name": "poolOut",
          "type": "address"
        },
        {
          "indexed": false,
          "internalType": "address",
          "name": "recipient",
          "type": "address"
        },
        {
          "indexed": false,
          "internalType": "uint256",
          "name": "sideIn",
          "type": "uint256"
        },
        {
          "indexed": false,
          "internalType": "uint256",
          "name": "sideOut",
          "type": "uint256"
        },
        {
          "indexed": false,
          "internalType": "uint256",
          "name": "amountIn",
          "type": "uint256"
        },
        {
          "indexed": false,
          "internalType": "uint256",
          "name": "amountOut",
          "type": "uint256"
        },
        {
          "indexed": false,
          "internalType": "uint256",
          "name": "price",
          "type": "uint256"
        },
        {
          "indexed": false,
          "internalType": "uint256",
          "name": "priceR",
          "type": "uint256"
        }
      ],
      "name": "Swap",
      "type": "event"
    },
    {
      "inputs": [
        {
          "components": [
            {
              "internalType": "uint256",
              "name": "side",
              "type": "uint256"
            },
            {
              "internalType": "address",
              "name": "deriPool",
              "type": "address"
            },
            {
              "internalType": "address",
              "name": "uniPool",
              "type": "address"
            },
            {
              "internalType": "address",
              "name": "token",
              "type": "address"
            },
            {
              "internalType": "uint256",
              "name": "amount",
              "type": "uint256"
            },
            {
              "internalType": "bytes",
              "name": "payer",
              "type": "bytes"
            },
            {
              "internalType": "address",
              "name": "recipient",
              "type": "address"
            },
            {
              "internalType": "uint256",
              "name": "INDEX_R",
              "type": "uint256"
            }
          ],
          "internalType": "struct Helper.SwapAndSwapParams",
          "name": "params",
          "type": "tuple"
        }
      ],
      "name": "closeAndSwap",
      "outputs": [
        {
          "internalType": "uint256",
          "name": "amountOut",
          "type": "uint256"
        }
      ],
      "stateMutability": "nonpayable",
      "type": "function"
    },
    {
      "inputs": [
        {
          "components": [
            {
              "internalType": "address",
              "name": "FETCHER",
              "type": "address"
            },
            {
              "internalType": "bytes32",
              "name": "ORACLE",
              "type": "bytes32"
            },
            {
              "internalType": "address",
              "name": "TOKEN_R",
              "type": "address"
            },
            {
              "internalType": "uint256",
              "name": "K",
              "type": "uint256"
            },
            {
              "internalType": "uint256",
              "name": "MARK",
              "type": "uint256"
            },
            {
              "internalType": "uint256",
              "name": "INTEREST_HL",
              "type": "uint256"
            },
            {
              "internalType": "uint256",
              "name": "PREMIUM_HL",
              "type": "uint256"
            },
            {
              "internalType": "uint256",
              "name": "MATURITY",
              "type": "uint256"
            },
            {
              "internalType": "uint256",
              "name": "MATURITY_VEST",
              "type": "uint256"
            },
            {
              "internalType": "uint256",
              "name": "MATURITY_RATE",
              "type": "uint256"
            },
            {
              "internalType": "uint256",
              "name": "OPEN_RATE",
              "type": "uint256"
            }
          ],
          "internalType": "struct Config",
          "name": "config",
          "type": "tuple"
        },
        {
          "components": [
            {
              "internalType": "uint256",
              "name": "R",
              "type": "uint256"
            },
            {
              "internalType": "uint256",
              "name": "a",
              "type": "uint256"
            },
            {
              "internalType": "uint256",
              "name": "b",
              "type": "uint256"
            }
          ],
          "internalType": "struct State",
          "name": "state",
          "type": "tuple"
        },
        {
          "internalType": "address",
          "name": "factory",
          "type": "address"
        }
      ],
      "name": "createPool",
      "outputs": [
        {
          "internalType": "address",
          "name": "pool",
          "type": "address"
        }
      ],
      "stateMutability": "payable",
      "type": "function"
    },
    {
      "inputs": [
        {
          "components": [
            {
              "internalType": "address",
              "name": "tokenIn",
              "type": "address"
            },
            {
              "internalType": "address",
              "name": "tokenOut",
              "type": "address"
            },
            {
              "internalType": "address",
              "name": "pool",
              "type": "address"
            },
            {
              "internalType": "address",
              "name": "recipient",
              "type": "address"
            },
            {
              "internalType": "address",
              "name": "payer",
              "type": "address"
            },
            {
              "internalType": "address",
              "name": "utr",
              "type": "address"
            },
            {
              "internalType": "uint256",
              "name": "amountIn",
              "type": "uint256"
            },
            {
              "internalType": "uint256",
              "name": "amountOutMinimum",
              "type": "uint256"
            },
            {
              "internalType": "uint160",
              "name": "sqrtPriceLimitX96",
              "type": "uint160"
            }
          ],
          "internalType": "struct Helper.ExactInputSingleParams",
          "name": "params",
          "type": "tuple"
        }
      ],
      "name": "exactInputSingle",
      "outputs": [
        {
          "internalType": "uint256",
          "name": "amountOut",
          "type": "uint256"
        }
      ],
      "stateMutability": "payable",
      "type": "function"
    },
    {
      "inputs": [
        {
          "internalType": "address",
          "name": "",
          "type": "address"
        },
        {
          "internalType": "address",
          "name": "",
          "type": "address"
        },
        {
          "internalType": "uint256[]",
          "name": "",
          "type": "uint256[]"
        },
        {
          "internalType": "uint256[]",
          "name": "",
          "type": "uint256[]"
        },
        {
          "internalType": "bytes",
          "name": "",
          "type": "bytes"
        }
      ],
      "name": "onERC1155BatchReceived",
      "outputs": [
        {
          "internalType": "bytes4",
          "name": "",
          "type": "bytes4"
        }
      ],
      "stateMutability": "nonpayable",
      "type": "function"
    },
    {
      "inputs": [
        {
          "internalType": "address",
          "name": "",
          "type": "address"
        },
        {
          "internalType": "address",
          "name": "",
          "type": "address"
        },
        {
          "internalType": "uint256",
          "name": "",
          "type": "uint256"
        },
        {
          "internalType": "uint256",
          "name": "",
          "type": "uint256"
        },
        {
          "internalType": "bytes",
          "name": "",
          "type": "bytes"
        }
      ],
      "name": "onERC1155Received",
      "outputs": [
        {
          "internalType": "bytes4",
          "name": "",
          "type": "bytes4"
        }
      ],
      "stateMutability": "nonpayable",
      "type": "function"
    },
    {
      "inputs": [
        {
          "internalType": "bytes4",
          "name": "interfaceId",
          "type": "bytes4"
        }
      ],
      "name": "supportsInterface",
      "outputs": [
        {
          "internalType": "bool",
          "name": "",
          "type": "bool"
        }
      ],
      "stateMutability": "view",
      "type": "function"
    },
    {
      "inputs": [
        {
          "components": [
            {
              "internalType": "uint256",
              "name": "sideIn",
              "type": "uint256"
            },
            {
              "internalType": "address",
              "name": "poolIn",
              "type": "address"
            },
            {
              "internalType": "uint256",
              "name": "sideOut",
              "type": "uint256"
            },
            {
              "internalType": "address",
              "name": "poolOut",
              "type": "address"
            },
            {
              "internalType": "uint256",
              "name": "amountIn",
              "type": "uint256"
            },
            {
              "internalType": "bytes",
              "name": "payer",
              "type": "bytes"
            },
            {
              "internalType": "address",
              "name": "recipient",
              "type": "address"
            },
            {
              "internalType": "uint256",
              "name": "INDEX_R",
              "type": "uint256"
            }
          ],
          "internalType": "struct Helper.SwapParams",
          "name": "params",
          "type": "tuple"
        }
      ],
      "name": "swap",
      "outputs": [
        {
          "internalType": "uint256",
          "name": "amountOut",
          "type": "uint256"
        }
      ],
      "stateMutability": "payable",
      "type": "function"
    },
    {
      "inputs": [
        {
          "components": [
            {
              "internalType": "uint256",
              "name": "side",
              "type": "uint256"
            },
            {
              "internalType": "address",
              "name": "deriPool",
              "type": "address"
            },
            {
              "internalType": "address",
              "name": "uniPool",
              "type": "address"
            },
            {
              "internalType": "address",
              "name": "token",
              "type": "address"
            },
            {
              "internalType": "uint256",
              "name": "amount",
              "type": "uint256"
            },
            {
              "internalType": "bytes",
              "name": "payer",
              "type": "bytes"
            },
            {
              "internalType": "address",
              "name": "recipient",
              "type": "address"
            },
            {
              "internalType": "uint256",
              "name": "INDEX_R",
              "type": "uint256"
            }
          ],
          "internalType": "struct Helper.SwapAndSwapParams",
          "name": "params",
          "type": "tuple"
        }
      ],
      "name": "swapAndOpen",
      "outputs": [
        {
          "internalType": "uint256",
          "name": "amountOut",
          "type": "uint256"
        }
      ],
      "stateMutability": "nonpayable",
      "type": "function"
    },
    {
      "inputs": [
        {
          "components": [
            {
              "internalType": "uint256",
              "name": "xk",
              "type": "uint256"
            },
            {
              "internalType": "uint256",
              "name": "R",
              "type": "uint256"
            },
            {
              "internalType": "uint256",
              "name": "rA",
              "type": "uint256"
            },
            {
              "internalType": "uint256",
              "name": "rB",
              "type": "uint256"
            }
          ],
          "internalType": "struct Slippable",
          "name": "__",
          "type": "tuple"
        },
        {
          "internalType": "bytes",
          "name": "payload",
          "type": "bytes"
        }
      ],
      "name": "swapToState",
      "outputs": [
        {
          "components": [
            {
              "internalType": "uint256",
              "name": "R",
              "type": "uint256"
            },
            {
              "internalType": "uint256",
              "name": "a",
              "type": "uint256"
            },
            {
              "internalType": "uint256",
              "name": "b",
              "type": "uint256"
            }
          ],
          "internalType": "struct State",
          "name": "state1",
          "type": "tuple"
        }
      ],
      "stateMutability": "view",
      "type": "function"
    },
    {
      "inputs": [
        {
          "internalType": "uint256",
          "name": "id",
          "type": "uint256"
        },
        {
          "internalType": "address",
          "name": "recipient",
          "type": "address"
        }
      ],
      "name": "sweep",
      "outputs": [
        {
          "internalType": "uint256",
          "name": "amountOut",
          "type": "uint256"
        }
      ],
      "stateMutability": "nonpayable",
      "type": "function"
    },
    {
      "inputs": [
        {
          "internalType": "int256",
          "name": "amount0Delta",
          "type": "int256"
        },
        {
          "internalType": "int256",
          "name": "amount1Delta",
          "type": "int256"
        },
        {
          "internalType": "bytes",
          "name": "_data",
          "type": "bytes"
        }
      ],
      "name": "uniswapV3SwapCallback",
      "outputs": [],
      "stateMutability": "nonpayable",
      "type": "function"
    },
    {
      "stateMutability": "payable",
      "type": "receive"
    }
  ],
  "bytecode": "0x60c06040523480156200001157600080fd5b5060405162003f1c38038062003f1c833981016040819052620000349162000069565b6001600160a01b039182166080521660a052620000a1565b80516001600160a01b03811681146200006457600080fd5b919050565b600080604083850312156200007d57600080fd5b62000088836200004c565b915062000098602084016200004c565b90509250929050565b60805160a051613e016200011b6000396000818161096901528181610a8801528181610b3601528181610c0e01528181610ca601528181610edc01528181610fbd015281816110d801528181611a6a01528181611b180152611beb0152600081816116b2015281816117a001526128ed0152613e016000f3fe6080604052600436106100c05760003560e01c8063bc197c8111610074578063dda926611161004e578063dda9266114610238578063f23a6e6114610270578063fa461e33146102b557600080fd5b8063bc197c8114610175578063cbf9b84b146101eb578063dc0192e81461020b57600080fd5b806320c4ea08116100a557806320c4ea081461012f5780633ae7f94114610142578063a7d427c41461015557600080fd5b806301ffc9a7146100cc5780631fc6fe2b1461010157600080fd5b366100c757005b600080fd5b3480156100d857600080fd5b506100ec6100e7366004612ec6565b6102d7565b60405190151581526020015b60405180910390f35b34801561010d57600080fd5b5061012161011c3660046130d9565b610333565b6040519081526020016100f8565b61012161013d3660046131ac565b6106b4565b610121610150366004613254565b610804565b34801561016157600080fd5b506101216101703660046130d9565b611247565b34801561018157600080fd5b506101ba610190366004613346565b7fbc197c810000000000000000000000000000000000000000000000000000000095945050505050565b6040517fffffffff0000000000000000000000000000000000000000000000000000000090911681526020016100f8565b3480156101f757600080fd5b506101216102063660046133f4565b61167b565b34801561021757600080fd5b5061022b61022636600461346d565b611802565b6040516100f891906134c8565b61024b610246366004613523565b6119ce565b60405173ffffffffffffffffffffffffffffffffffffffff90911681526020016100f8565b34801561027c57600080fd5b506101ba61028b3660046135f9565b7ff23a6e610000000000000000000000000000000000000000000000000000000095945050505050565b3480156102c157600080fd5b506102d56102d0366004613662565b611d0a565b005b60007f61206120000000000000000000000000000000000000000000000000000000007fffffffff000000000000000000000000000000000000000000000000000000008316148061032d575061032d82611df2565b92915050565b600080826020015173ffffffffffffffffffffffffffffffffffffffff166322d659516040518163ffffffff1660e01b815260040161016060405180830381865afa158015610386573d6000803e3d6000fd5b505050506040513d601f19601f820116820180604052508101906103aa91906136c0565b604080516060808201835233825260a0870151602080840191909152308385015287516080808a015186519384019290925260009583018690529282015293945091929091839101604080517fffffffffffffffffffffffffffffffffffffffffffffffffffffffffffffffe08184030181528282526020898101516080850184528a51855260009185019190915230848401526060840182905291517f2b2f291300000000000000000000000000000000000000000000000000000000815290935073ffffffffffffffffffffffffffffffffffffffff90911691632b2f29139161049b9190869060040161381e565b6060604051808303816000875af11580156104ba573d6000803e3d6000fd5b505050506040513d601f19601f820116820180604052508101906104de9190613882565b909150809450819650505060008590506105e3604051806101200160405280876040015173ffffffffffffffffffffffffffffffffffffffff168152602001896060015173ffffffffffffffffffffffffffffffffffffffff168152602001896040015173ffffffffffffffffffffffffffffffffffffffff1681526020018960c0015173ffffffffffffffffffffffffffffffffffffffff1681526020013073ffffffffffffffffffffffffffffffffffffffff168152602001600073ffffffffffffffffffffffffffffffffffffffff16815260200188815260200160008152602001600073ffffffffffffffffffffffffffffffffffffffff168152506106b4565b955060006105f48860e00151611e89565b602089015160a08a015191925073ffffffffffffffffffffffffffffffffffffffff16908190610625906000611eff565b60c0808c01518c516080808f01516040805173ffffffffffffffffffffffffffffffffffffffff958616815260208101949094526000908401526060830152810188905260a081018b905291820186905291909116907f7ae20bbbc1e9d63498613f872e04683422aadad8612e9cbb0b14b8a9eff0f3629060e0015b60405180910390a4505050505050919050565b600061078a8260c001518360600151846101000151604051806060016040528087600001518860200151896040015160405160200161073393929190606093841b7fffffffffffffffffffffffffffffffffffffffff000000000000000000000000908116825292841b83166014820152921b166028820152603c0190565b6040516020818303038152906040528152602001876080015173ffffffffffffffffffffffffffffffffffffffff1681526020018760a0015173ffffffffffffffffffffffffffffffffffffffff16815250611f8f565b90508160e001518110156107ff576040517f08c379a000000000000000000000000000000000000000000000000000000000815260206004820152601360248201527f546f6f206c6974746c652072656365697665640000000000000000000000000060448201526064015b60405180910390fd5b919050565b600080604051806080016040528084600001518152602001846040015181526020016108358560a001516000611eff565b73ffffffffffffffffffffffffffffffffffffffff1681526020018460c0015173ffffffffffffffffffffffffffffffffffffffff1681525090506000836020015173ffffffffffffffffffffffffffffffffffffffff166322d659516040518163ffffffff1660e01b815260040161016060405180830381865afa1580156108c2573d6000803e3d6000fd5b505050506040513d601f19601f820116820180604052508101906108e691906136c0565b9050600081604001519050846060015173ffffffffffffffffffffffffffffffffffffffff16856020015173ffffffffffffffffffffffffffffffffffffffff161461093f57610936858261214a565b95945050505050565b84517fffffffffffffffffffffffffffffffffffffffffffffffffffffffffffffffff01610c98577f000000000000000000000000000000000000000000000000000000000000000073ffffffffffffffffffffffffffffffffffffffff168173ffffffffffffffffffffffffffffffffffffffff1614610a1c576040517f08c379a000000000000000000000000000000000000000000000000000000000815260206004820152601c60248201527f5265736572766520746f6b656e206973206e6f7420577261707065640000000060448201526064016107f6565b34600003610a86576040517f08c379a000000000000000000000000000000000000000000000000000000000815260206004820152600e60248201527f56616c7565206e656564203e203000000000000000000000000000000000000060448201526064016107f6565b7f000000000000000000000000000000000000000000000000000000000000000073ffffffffffffffffffffffffffffffffffffffff1663d0e30db0346040518263ffffffff1660e01b81526004016000604051808303818588803b158015610aee57600080fd5b505af1158015610b02573d6000803e3d6000fd5b50506040517f70a08231000000000000000000000000000000000000000000000000000000008152306004820152600093507f000000000000000000000000000000000000000000000000000000000000000073ffffffffffffffffffffffffffffffffffffffff1692506370a0823191506024016020604051808303816000875af1158015610b96573d6000803e3d6000fd5b505050506040513d601f19601f82011682018060405250810190610bba91906138b0565b60208701516040517f095ea7b300000000000000000000000000000000000000000000000000000000815273ffffffffffffffffffffffffffffffffffffffff9182166004820152602481018390529192507f0000000000000000000000000000000000000000000000000000000000000000169063095ea7b3906044016020604051808303816000875af1158015610c57573d6000803e3d6000fd5b505050506040513d601f19601f82011682018060405250810190610c7b91906138d9565b50506040805160208101909152600080825260a087019190915285525b6001856040015103610d67577f000000000000000000000000000000000000000000000000000000000000000073ffffffffffffffffffffffffffffffffffffffff168173ffffffffffffffffffffffffffffffffffffffff1614610d59576040517f08c379a000000000000000000000000000000000000000000000000000000000815260206004820152601c60248201527f5265736572766520746f6b656e206973206e6f7420577261707065640000000060448201526064016107f6565b600060408601523060c08601525b600080866000015187604001518860800151604051602001610d9c939291909283526020830191909152604082015260600190565b604080517fffffffffffffffffffffffffffffffffffffffffffffffffffffffffffffffe081840301815282825260208a8101516080850184528b5185528b84015185830152308585015260608086018490528451908101855233815260a08d01519281019290925260c08c015173ffffffffffffffffffffffffffffffffffffffff9081168386015293517f2b2f29130000000000000000000000000000000000000000000000000000000081529295509290921692632b2f291392610e659260040161381e565b6060604051808303816000875af1158015610e84573d6000803e3d6000fd5b505050506040513d601f19601f82011682018060405250810190610ea89190613882565b602088015191985093507fffffffffffffffffffffffffffffffffffffffffffffffffffffffffffffffff019050611157577f000000000000000000000000000000000000000000000000000000000000000073ffffffffffffffffffffffffffffffffffffffff168373ffffffffffffffffffffffffffffffffffffffff1614610f8f576040517f08c379a000000000000000000000000000000000000000000000000000000000815260206004820152601c60248201527f5265736572766520746f6b656e206973206e6f7420577261707065640000000060448201526064016107f6565b6040517f70a082310000000000000000000000000000000000000000000000000000000081523060048201527f000000000000000000000000000000000000000000000000000000000000000073ffffffffffffffffffffffffffffffffffffffff16906370a0823190602401602060405180830381865afa158015611019573d6000803e3d6000fd5b505050506040513d601f19601f8201168201806040525081019061103d91906138b0565b9550600086116110a9576040517f08c379a000000000000000000000000000000000000000000000000000000000815260206004820152601b60248201527f446f206e6f7420686176652045544820746f207472616e73666572000000000060448201526064016107f6565b6040517f2e1a7d4d000000000000000000000000000000000000000000000000000000008152600481018790527f000000000000000000000000000000000000000000000000000000000000000073ffffffffffffffffffffffffffffffffffffffff1690632e1a7d4d90602401600060405180830381600087803b15801561113157600080fd5b505af1158015611145573d6000803e3d6000fd5b50505050611157856060015187612611565b60006111668860e00151611e89565b9050876060015173ffffffffffffffffffffffffffffffffffffffff16886020015173ffffffffffffffffffffffffffffffffffffffff16876040015173ffffffffffffffffffffffffffffffffffffffff167f7ae20bbbc1e9d63498613f872e04683422aadad8612e9cbb0b14b8a9eff0f36289606001518a600001518b602001518e608001518e8b8a6040516106a1979695949392919073ffffffffffffffffffffffffffffffffffffffff979097168752602087019590955260408601939093526060850191909152608084015260a083015260c082015260e00190565b600080826020015173ffffffffffffffffffffffffffffffffffffffff166322d659516040518163ffffffff1660e01b815260040161016060405180830381865afa15801561129a573d6000803e3d6000fd5b505050506040513d601f19601f820116820180604052508101906112be91906136c0565b90506000611396604051806101200160405280866060015173ffffffffffffffffffffffffffffffffffffffff168152602001846040015173ffffffffffffffffffffffffffffffffffffffff168152602001866040015173ffffffffffffffffffffffffffffffffffffffff1681526020013073ffffffffffffffffffffffffffffffffffffffff16815260200161135c8760a001516000611eff565b73ffffffffffffffffffffffffffffffffffffffff16815233602082015260808088015160408301526000606083018190529101526106b4565b925060008390506113b08360400151866020015186612720565b604080516060808201835233825282516020808201855260008083528185019290925260c08a015173ffffffffffffffffffffffffffffffffffffffff168486015289518551918201839052948101949094529083018790529091608001604080517fffffffffffffffffffffffffffffffffffffffffffffffffffffffffffffffe081840301815282825260208a810151608085018452600085528b519185019190915230848401526060840182905291517f2b2f291300000000000000000000000000000000000000000000000000000000815290935073ffffffffffffffffffffffffffffffffffffffff90911691632b2f2913916114b79190869060040161381e565b6060604051808303816000875af11580156114d6573d6000803e3d6000fd5b505050506040513d601f19601f820116820180604052508101906114fa9190613882565b60408881015160208c015191517fdd62ed3e00000000000000000000000000000000000000000000000000000000815230600482015273ffffffffffffffffffffffffffffffffffffffff9283166024820152939a5091975060009350169063dd62ed3e90604401602060405180830381865afa15801561157f573d6000803e3d6000fd5b505050506040513d601f19601f820116820180604052508101906115a391906138b0565b11156115bd576115bd856040015188602001516000612720565b60006115cc8860e00151611e89565b602089015160a08a015191925073ffffffffffffffffffffffffffffffffffffffff169081906115fd906000611eff565b60c0808c01518c516040805173ffffffffffffffffffffffffffffffffffffffff93841681526000602082015290810191909152606081018a9052608081018d905260a081018b905291820186905291909116907f7ae20bbbc1e9d63498613f872e04683422aadad8612e9cbb0b14b8a9eff0f3629060e0016106a1565b6040517efdd58e000000000000000000000000000000000000000000000000000000008152306004820152602481018390526000907f000000000000000000000000000000000000000000000000000000000000000073ffffffffffffffffffffffffffffffffffffffff169062fdd58e90604401602060405180830381865afa15801561170d573d6000803e3d6000fd5b505050506040513d601f19601f8201168201806040525081019061173191906138b0565b9050801561032d576040517ff242432a00000000000000000000000000000000000000000000000000000000815230600482015273ffffffffffffffffffffffffffffffffffffffff8381166024830152604482018590526064820183905260a06084830152600060a48301527f0000000000000000000000000000000000000000000000000000000000000000169063f242432a9060c401600060405180830381600087803b1580156117e457600080fd5b505af11580156117f8573d6000803e3d6000fd5b5050505092915050565b61182660405180606001604052806000815260200160008152602001600081525090565b60008080611836858701876138f4565b60208a0135875291945092509050604087013560608801358461186d578286600001818151611865919061394f565b905250611923565b6000611878866128b6565b9050601086036118a457611891848b604001358361296d565b935061189d8484613962565b9250611921565b602086036118ce576118bb848b606001358361296d565b93506118c78483613962565b9150611921565b600060608b01356118e760408d013560208e0135613962565b6118f19190613962565b905060018111156119085761190581613975565b90505b61191d81611917600188613962565b8461296d565b9450505b505b8361194257828660000181815161193a9190613962565b905250611970565b6010840361195b57611954838361394f565b9150611970565b602084036119705761196d838261394f565b90505b8551611980908a35908490612a3e565b60208701526119bc6119b38a357fffffffffffffffffffffffffffffffffffffffffffffffffffffffffffffffff6139d9565b87518390612a3e565b60408701525093979650505050505050565b6040517f86999c4d00000000000000000000000000000000000000000000000000000000815260009073ffffffffffffffffffffffffffffffffffffffff8316906386999c4d90611a23908790600401613a14565b6020604051808303816000875af1158015611a42573d6000803e3d6000fd5b505050506040513d601f19601f82011682018060405250810190611a669190613ac1565b90507f000000000000000000000000000000000000000000000000000000000000000073ffffffffffffffffffffffffffffffffffffffff1663d0e30db0346040518263ffffffff1660e01b81526004016000604051808303818588803b158015611ad057600080fd5b505af1158015611ae4573d6000803e3d6000fd5b50506040517f70a08231000000000000000000000000000000000000000000000000000000008152306004820152600093507f000000000000000000000000000000000000000000000000000000000000000073ffffffffffffffffffffffffffffffffffffffff1692506370a0823191506024016020604051808303816000875af1158015611b78573d6000803e3d6000fd5b505050506040513d601f19601f82011682018060405250810190611b9c91906138b0565b6040517f095ea7b300000000000000000000000000000000000000000000000000000000815273ffffffffffffffffffffffffffffffffffffffff8481166004830152602482018390529192507f00000000000000000000000000000000000000000000000000000000000000009091169063095ea7b3906044016020604051808303816000875af1158015611c36573d6000803e3d6000fd5b505050506040513d601f19601f82011682018060405250810190611c5a91906138d9565b5060408051606081018252600080825282516020818101855291815290820152338183015290517fdc1a6f3300000000000000000000000000000000000000000000000000000000815273ffffffffffffffffffffffffffffffffffffffff84169163dc1a6f3391611cd0918891600401613ade565b600060405180830381600087803b158015611cea57600080fd5b505af1158015611cfe573d6000803e3d6000fd5b50505050509392505050565b6000841380611d195750600083135b611d2257600080fd5b6000611d3082840184613b14565b8051909150600090611d429082611eff565b8251909150600090611d55906014611eff565b905060008060008913611d97578373ffffffffffffffffffffffffffffffffffffffff168373ffffffffffffffffffffffffffffffffffffffff161088611dc8565b8273ffffffffffffffffffffffffffffffffffffffff168473ffffffffffffffffffffffffffffffffffffffff1610895b915091508115611de757611de785604001518587602001513385612aa1565b505050505050505050565b60007fffffffff0000000000000000000000000000000000000000000000000000000082167f4e2312e000000000000000000000000000000000000000000000000000000000148061032d57507f01ffc9a7000000000000000000000000000000000000000000000000000000007fffffffff0000000000000000000000000000000000000000000000000000000083161461032d565b600081600003611e9b57506000919050565b7f4000000000000000000000000000000000000000000000000000000000000000821615611ef657611eee60017f4000000000000000000000000000000000000000000000000000000000000000613962565b909116919050565b61032d82612b97565b6000611f0c82601461394f565b83511015611f76576040517f08c379a000000000000000000000000000000000000000000000000000000000815260206004820152601560248201527f746f416464726573735f6f75744f66426f756e6473000000000000000000000060448201526064016107f6565b5001602001516c01000000000000000000000000900490565b600073ffffffffffffffffffffffffffffffffffffffff8416611fb0573093505b8151600090611fbf9082611eff565b8351909150600090611fd2906014611eff565b8451909150600090611fe5906028611eff565b905060008273ffffffffffffffffffffffffffffffffffffffff168473ffffffffffffffffffffffffffffffffffffffff161090506000808373ffffffffffffffffffffffffffffffffffffffff1663128acb088b856120448f612ca7565b73ffffffffffffffffffffffffffffffffffffffff8e1615612066578d61209f565b8761208f5761208a600173fffd8963efd1fc6a506488495d951d5263988d26613bae565b61209f565b61209f6401000276a36001613be2565b8d6040516020016120b09190613c0f565b6040516020818303038152906040526040518663ffffffff1660e01b81526004016120df959493929190613c67565b60408051808303816000875af11580156120fd573d6000803e3d6000fd5b505050506040513d601f19601f820116820180604052508101906121219190613cae565b91509150826121305781612132565b805b61213b90613cd2565b9b9a5050505050505050505050565b815160808301516040516000928392612179928491906020019283526020830191909152604082015260600190565b604080517fffffffffffffffffffffffffffffffffffffffffffffffffffffffffffffffe0818403018152828252602087810151608085018452885185526000858301523085850181905260608087018590528551908101865233815260a08b0151938101939093528285015292517f2b2f291300000000000000000000000000000000000000000000000000000000815291945073ffffffffffffffffffffffffffffffffffffffff90921692632b2f2913926122399260040161381e565b6060604051808303816000875af1158015612258573d6000803e3d6000fd5b505050506040513d601f19601f8201168201806040525081019061227c9190613882565b5060608601516040517f095ea7b300000000000000000000000000000000000000000000000000000000815273ffffffffffffffffffffffffffffffffffffffff9182166004820152602481018390529194508516915063095ea7b3906044016020604051808303816000875af11580156122fb573d6000803e3d6000fd5b505050506040513d601f19601f8201168201806040525081019061231f91906138d9565b5060408085015181516000602082018190529281019190915260608101849052608001604080517fffffffffffffffffffffffffffffffffffffffffffffffffffffffffffffffe081840301815282825260608089015160808501845260008086528a8501516020878101919091523087870152838701859052855193840186523384528551808201875291825283015260c08a015173ffffffffffffffffffffffffffffffffffffffff9081168386015293517f2b2f29130000000000000000000000000000000000000000000000000000000081529296509290921692632b2f2913926124109260040161381e565b6060604051808303816000875af115801561242f573d6000803e3d6000fd5b505050506040513d601f19601f820116820180604052508101906124539190613882565b60a088015191955092506000915061246b9082611eff565b6040517f70a0823100000000000000000000000000000000000000000000000000000000815230600482015290915060009073ffffffffffffffffffffffffffffffffffffffff8716906370a0823190602401602060405180830381865afa1580156124db573d6000803e3d6000fd5b505050506040513d601f19601f820116820180604052508101906124ff91906138b0565b9050801561251257612512868383612cd9565b60006125218860e00151611e89565b9050876060015173ffffffffffffffffffffffffffffffffffffffff16886020015173ffffffffffffffffffffffffffffffffffffffff168473ffffffffffffffffffffffffffffffffffffffff167f7ae20bbbc1e9d63498613f872e04683422aadad8612e9cbb0b14b8a9eff0f3628b60c001518c600001518d604001518e608001518d8c8a6040516125fe979695949392919073ffffffffffffffffffffffffffffffffffffffff979097168752602087019590955260408601939093526060850191909152608084015260a083015260c082015260e00190565b60405180910390a4505050505092915050565b6040805160008082526020820190925273ffffffffffffffffffffffffffffffffffffffff84169083906040516126489190613d0a565b60006040518083038185875af1925050503d8060008114612685576040519150601f19603f3d011682016040523d82523d6000602084013e61268a565b606091505b505090508061271b576040517f08c379a000000000000000000000000000000000000000000000000000000000815260206004820152603460248201527f5472616e7366657248656c7065723a3a736166655472616e736665724554483a60448201527f20455448207472616e73666572206661696c656400000000000000000000000060648201526084016107f6565b505050565b6040805173ffffffffffffffffffffffffffffffffffffffff8481166024830152604480830185905283518084039091018152606490920183526020820180517bffffffffffffffffffffffffffffffffffffffffffffffffffffffff167f095ea7b30000000000000000000000000000000000000000000000000000000017905291516000928392908716916127b79190613d0a565b6000604051808303816000865af19150503d80600081146127f4576040519150601f19603f3d011682016040523d82523d6000602084013e6127f9565b606091505b509150915081801561282357508051158061282357508080602001905181019061282391906138d9565b6128af576040517f08c379a000000000000000000000000000000000000000000000000000000000815260206004820152602b60248201527f5472616e7366657248656c7065723a3a73616665417070726f76653a2061707060448201527f726f7665206661696c656400000000000000000000000000000000000000000060648201526084016107f6565b5050505050565b6040517fbd85b0390000000000000000000000000000000000000000000000000000000081523360a083901b1760048201526000907f000000000000000000000000000000000000000000000000000000000000000073ffffffffffffffffffffffffffffffffffffffff169063bd85b03990602401602060405180830381865afa158015612949573d6000803e3d6000fd5b505050506040513d601f19601f8201168201806040525081019061032d91906138b0565b600080807fffffffffffffffffffffffffffffffffffffffffffffffffffffffffffffffff858709858702925082811083820303915050806000036129c457600084116129b957600080fd5b508290049050612a37565b8084116129d057600080fd5b6000848688096000868103871696879004966002600389028118808a02820302808a02820302808a02820302808a02820302808a02820302808a02909103029181900381900460010186841190950394909402919094039290920491909117919091029150505b9392505050565b6000600182901c8311612a6e57612a678370010000000000000000000000000000000086612e68565b9050612a37565b6000612a94612a7d8585613962565b866f4000000000000000000000000000000061296d565b9050610936838483612e68565b73ffffffffffffffffffffffffffffffffffffffff8516612acc57612ac7848383612cd9565b6128af565b6040805173ffffffffffffffffffffffffffffffffffffffff858116602083015284811682840152601460608301528681166080830152600060a0808401919091528351808403909101815260c08301938490527f715ef7f90000000000000000000000000000000000000000000000000000000090935287169063715ef7f990612b5d908490869060c401613d26565b600060405180830381600087803b158015612b7757600080fd5b505af1158015612b8b573d6000803e3d6000fd5b50505050505050505050565b60008082905060008173ffffffffffffffffffffffffffffffffffffffff16633850c7bd6040518163ffffffff1660e01b815260040160e060405180830381865afa158015612bea573d6000803e3d6000fd5b505050506040513d601f19601f82011682018060405250810190612c0e9190613d5a565b505050505050905060208173ffffffffffffffffffffffffffffffffffffffff16901b73ffffffffffffffffffffffffffffffffffffffff1692507f80000000000000000000000000000000000000000000000000000000000000008416600003612ca057612c9d837fffffffffffffffffffffffffffffffffffffffffffffffffffffffffffffffff6139d9565b92505b5050919050565b60007f80000000000000000000000000000000000000000000000000000000000000008210612cd557600080fd5b5090565b6040805173ffffffffffffffffffffffffffffffffffffffff8481166024830152604480830185905283518084039091018152606490920183526020820180517bffffffffffffffffffffffffffffffffffffffffffffffffffffffff167fa9059cbb000000000000000000000000000000000000000000000000000000001790529151600092839290871691612d709190613d0a565b6000604051808303816000865af19150503d8060008114612dad576040519150601f19603f3d011682016040523d82523d6000602084013e612db2565b606091505b5091509150818015612ddc575080511580612ddc575080806020019051810190612ddc91906138d9565b6128af576040517f08c379a000000000000000000000000000000000000000000000000000000000815260206004820152602d60248201527f5472616e7366657248656c7065723a3a736166655472616e736665723a20747260448201527f616e73666572206661696c65640000000000000000000000000000000000000060648201526084016107f6565b6000612e7584848461296d565b905060008280612e8757612e876139aa565b8486091115612a37577fffffffffffffffffffffffffffffffffffffffffffffffffffffffffffffffff8110612ebc57600080fd5b6001019392505050565b600060208284031215612ed857600080fd5b81357fffffffff0000000000000000000000000000000000000000000000000000000081168114612a3757600080fd5b7f4e487b7100000000000000000000000000000000000000000000000000000000600052604160045260246000fd5b604051610100810167ffffffffffffffff81118282101715612f5b57612f5b612f08565b60405290565b604051610120810167ffffffffffffffff81118282101715612f5b57612f5b612f08565b6040516060810167ffffffffffffffff81118282101715612f5b57612f5b612f08565b604051610160810167ffffffffffffffff81118282101715612f5b57612f5b612f08565b604051601f82017fffffffffffffffffffffffffffffffffffffffffffffffffffffffffffffffe016810167ffffffffffffffff8111828210171561301357613013612f08565b604052919050565b73ffffffffffffffffffffffffffffffffffffffff8116811461303d57600080fd5b50565b80356107ff8161301b565b600082601f83011261305c57600080fd5b813567ffffffffffffffff81111561307657613076612f08565b6130a760207fffffffffffffffffffffffffffffffffffffffffffffffffffffffffffffffe0601f84011601612fcc565b8181528460208386010111156130bc57600080fd5b816020850160208301376000918101602001919091529392505050565b6000602082840312156130eb57600080fd5b813567ffffffffffffffff8082111561310357600080fd5b90830190610100828603121561311857600080fd5b613120612f37565b8235815261313060208401613040565b602082015261314160408401613040565b604082015261315260608401613040565b60608201526080830135608082015260a08301358281111561317357600080fd5b61317f8782860161304b565b60a08301525061319160c08401613040565b60c082015260e083013560e082015280935050505092915050565b600061012082840312156131bf57600080fd5b6131c7612f61565b6131d083613040565b81526131de60208401613040565b60208201526131ef60408401613040565b604082015261320060608401613040565b606082015261321160808401613040565b608082015261322260a08401613040565b60a082015260c083013560c082015260e083013560e0820152610100613249818501613040565b908201529392505050565b60006020828403121561326657600080fd5b813567ffffffffffffffff8082111561327e57600080fd5b90830190610100828603121561329357600080fd5b61329b612f37565b823581526132ab60208401613040565b60208201526040830135604082015261315260608401613040565b600082601f8301126132d757600080fd5b8135602067ffffffffffffffff8211156132f3576132f3612f08565b8160051b613302828201612fcc565b928352848101820192828101908785111561331c57600080fd5b83870192505b8483101561333b57823582529183019190830190613322565b979650505050505050565b600080600080600060a0868803121561335e57600080fd5b85356133698161301b565b945060208601356133798161301b565b9350604086013567ffffffffffffffff8082111561339657600080fd5b6133a289838a016132c6565b945060608801359150808211156133b857600080fd5b6133c489838a016132c6565b935060808801359150808211156133da57600080fd5b506133e78882890161304b565b9150509295509295909350565b6000806040838503121561340757600080fd5b8235915060208301356134198161301b565b809150509250929050565b60008083601f84011261343657600080fd5b50813567ffffffffffffffff81111561344e57600080fd5b60208301915083602082850101111561346657600080fd5b9250929050565b600080600083850360a081121561348357600080fd5b608081121561349157600080fd5b50839250608084013567ffffffffffffffff8111156134af57600080fd5b6134bb86828701613424565b9497909650939450505050565b8151815260208083015190820152604080830151908201526060810161032d565b6000606082840312156134fb57600080fd5b613503612f85565b905081358152602082013560208201526040820135604082015292915050565b60008060008385036101e081121561353a57600080fd5b6101608082121561354a57600080fd5b613552612fa8565b915061355d86613040565b82526020860135602083015261357560408701613040565b6040830152606086013560608301526080860135608083015260a086013560a083015260c086013560c083015260e086013560e08301526101008087013581840152506101208087013581840152506101408087013581840152508194506135df878288016134e9565b935050506135f06101c08501613040565b90509250925092565b600080600080600060a0868803121561361157600080fd5b853561361c8161301b565b9450602086013561362c8161301b565b93506040860135925060608601359150608086013567ffffffffffffffff81111561365657600080fd5b6133e78882890161304b565b6000806000806060858703121561367857600080fd5b8435935060208501359250604085013567ffffffffffffffff81111561369d57600080fd5b6136a987828801613424565b95989497509550505050565b80516107ff8161301b565b600061016082840312156136d357600080fd5b6136db612fa8565b6136e4836136b5565b8152602083015160208201526136fc604084016136b5565b6040820152606083015160608201526080830151608082015260a083015160a082015260c083015160c082015260e083015160e08201526101008084015181830152506101208084015181830152506101408084015181830152508091505092915050565b60005b8381101561377c578181015183820152602001613764565b50506000910152565b6000815180845261379d816020860160208601613761565b601f017fffffffffffffffffffffffffffffffffffffffffffffffffffffffffffffffe0169290920160200192915050565b600073ffffffffffffffffffffffffffffffffffffffff8083511684526020830151606060208601526138056060860182613785565b9050816040850151166040860152809250505092915050565b60408152825160408201526020830151606082015273ffffffffffffffffffffffffffffffffffffffff604084015116608082015260006060840151608060a084015261386e60c0840182613785565b9050828103602084015261093681856137cf565b60008060006060848603121561389757600080fd5b8351925060208401519150604084015190509250925092565b6000602082840312156138c257600080fd5b5051919050565b805180151581146107ff57600080fd5b6000602082840312156138eb57600080fd5b612a37826138c9565b60008060006060848603121561390957600080fd5b505081359360208301359350604090920135919050565b7f4e487b7100000000000000000000000000000000000000000000000000000000600052601160045260246000fd5b8082018082111561032d5761032d613920565b8181038181111561032d5761032d613920565b60008161398457613984613920565b507fffffffffffffffffffffffffffffffffffffffffffffffffffffffffffffffff0190565b7f4e487b7100000000000000000000000000000000000000000000000000000000600052601260045260246000fd5b600082613a0f577f4e487b7100000000000000000000000000000000000000000000000000000000600052601260045260246000fd5b500490565b815173ffffffffffffffffffffffffffffffffffffffff1681526101608101602083015160208301526040830151613a64604084018273ffffffffffffffffffffffffffffffffffffffff169052565b50606083015160608301526080830151608083015260a083015160a083015260c083015160c083015260e083015160e083015261010080840151818401525061012080840151818401525061014080840151818401525092915050565b600060208284031215613ad357600080fd5b8151612a378161301b565b825181526020808401519082015260408084015190820152608060608201526000613b0c60808301846137cf565b949350505050565b600060208284031215613b2657600080fd5b813567ffffffffffffffff80821115613b3e57600080fd5b9083019060608286031215613b5257600080fd5b613b5a612f85565b823582811115613b6957600080fd5b613b758782860161304b565b82525060208301359150613b888261301b565b81602082015260408301359250613b9e8361301b565b6040810192909252509392505050565b73ffffffffffffffffffffffffffffffffffffffff828116828216039080821115613bdb57613bdb613920565b5092915050565b73ffffffffffffffffffffffffffffffffffffffff818116838216019080821115613bdb57613bdb613920565b602081526000825160606020840152613c2b6080840182613785565b9050602084015173ffffffffffffffffffffffffffffffffffffffff808216604086015280604087015116606086015250508091505092915050565b600073ffffffffffffffffffffffffffffffffffffffff8088168352861515602084015285604084015280851660608401525060a0608083015261333b60a0830184613785565b60008060408385031215613cc157600080fd5b505080516020909101519092909150565b60007f80000000000000000000000000000000000000000000000000000000000000008203613d0357613d03613920565b5060000390565b60008251613d1c818460208701613761565b9190910192915050565b604081526000613d396040830185613785565b90508260208301529392505050565b805161ffff811681146107ff57600080fd5b600080600080600080600060e0888a031215613d7557600080fd5b8751613d808161301b565b8097505060208801518060020b8114613d9857600080fd5b9550613da660408901613d48565b9450613db460608901613d48565b9350613dc260808901613d48565b925060a088015160ff81168114613dd857600080fd5b9150613de660c089016138c9565b90509295989194975092955056fea164736f6c6343000814000a",
  "linkReferences": {},
  "deployedLinkReferences": {}
}