{
  "_format": "hh-sol-artifact-1",
  "contractName": "PoolFactory",
  "sourceName": "contracts/PoolFactory.sol",
  "abi": [
    {
      "inputs": [
        {
          "internalType": "address",
          "name": "logic",
          "type": "address"
        }
      ],
      "stateMutability": "nonpayable",
      "type": "constructor"
    },
    {
      "anonymous": false,
      "inputs": [
        {
          "indexed": true,
          "internalType": "bytes32",
          "name": "topic1",
          "type": "bytes32"
        },
        {
          "indexed": true,
          "internalType": "bytes32",
          "name": "topic2",
          "type": "bytes32"
        },
        {
          "indexed": true,
          "internalType": "bytes32",
          "name": "topic3",
          "type": "bytes32"
        },
        {
          "indexed": false,
          "internalType": "bytes",
          "name": "data",
          "type": "bytes"
        }
      ],
      "name": "Derivable",
      "type": "event"
    },
    {
      "inputs": [],
      "name": "LOGIC",
      "outputs": [
        {
          "internalType": "address",
          "name": "",
          "type": "address"
        }
      ],
      "stateMutability": "view",
      "type": "function"
    },
    {
      "inputs": [
        {
          "components": [
            {
              "internalType": "address",
              "name": "FETCHER",
              "type": "address"
            },
            {
              "internalType": "bytes32",
              "name": "ORACLE",
              "type": "bytes32"
            },
            {
              "internalType": "address",
              "name": "TOKEN_R",
              "type": "address"
            },
            {
              "internalType": "uint256",
              "name": "K",
              "type": "uint256"
            },
            {
              "internalType": "uint256",
              "name": "MARK",
              "type": "uint256"
            },
            {
              "internalType": "uint256",
              "name": "INTEREST_HL",
              "type": "uint256"
            },
            {
              "internalType": "uint256",
              "name": "PREMIUM_HL",
              "type": "uint256"
            },
            {
              "internalType": "uint256",
              "name": "MATURITY",
              "type": "uint256"
            },
            {
              "internalType": "uint256",
              "name": "MATURITY_VEST",
              "type": "uint256"
            },
            {
              "internalType": "uint256",
              "name": "MATURITY_RATE",
              "type": "uint256"
            },
            {
              "internalType": "uint256",
              "name": "OPEN_RATE",
              "type": "uint256"
            }
          ],
          "internalType": "struct Config",
          "name": "config",
          "type": "tuple"
        }
      ],
      "name": "createPool",
      "outputs": [
        {
          "internalType": "address",
          "name": "pool",
          "type": "address"
        }
      ],
      "stateMutability": "nonpayable",
      "type": "function"
    }
  ],
  "bytecode": "0x60a060405234801561001057600080fd5b5060405161072938038061072983398101604081905261002f9161009a565b6001600160a01b0381166100895760405162461bcd60e51b815260206004820152601960248201527f506f6f6c466163746f72793a205a45524f5f4144445245535300000000000000604482015260640160405180910390fd5b6001600160a01b03166080526100ca565b6000602082840312156100ac57600080fd5b81516001600160a01b03811681146100c357600080fd5b9392505050565b60805161063f6100ea60003960008181607c015260c8015261063f6000f3fe608060405234801561001057600080fd5b50600436106100365760003560e01c806386999c4d1461003b5780639f61f4ff14610077575b600080fd5b61004e61004936600461044f565b61009e565b60405173ffffffffffffffffffffffffffffffffffffffff909116815260200160405180910390f35b61004e7f000000000000000000000000000000000000000000000000000000000000000081565b600080826040516020016100b291906104f0565b60405160208183030381529060405290506100ed7f00000000000000000000000000000000000000000000000000000000000000008261031f565b915073ffffffffffffffffffffffffffffffffffffffff8216610170576040517f08c379a000000000000000000000000000000000000000000000000000000000815260206004820152601b60248201527f506f6f6c466163746f72793a20435245415445325f4641494c45440000000000604482015260640160405180910390fd5b826040015173ffffffffffffffffffffffffffffffffffffffff1660001b73ffffffffffffffffffffffffffffffffffffffff80167f80000000000000000000000000000000000000000000000000000000000000001760001b8460200151167f506f6f6c437265617465640000000000000000000000000000000000000000007fe17be4ebc00f711cfd440c6386f98af2b21ea80c4efc6bb5e6008fc122caa63086600001518760200151886060015189608001518a60a001518b60c001518c60e001518d61010001518e61012001518f61014001518f73ffffffffffffffffffffffffffffffffffffffff166040516020016102d99b9a9998979695949392919073ffffffffffffffffffffffffffffffffffffffff9b909b168b5260208b019990995260408a01979097526060890195909552608088019390935260a087019190915260c086015260e08501526101008401526101208301526101408201526101600190565b604080517fffffffffffffffffffffffffffffffffffffffffffffffffffffffffffffffe0818403018152908290526103119161059d565b60405180910390a450919050565b6000806020830190506103348482855161033c565b949350505050565b6040517f600b380380600b3d393df3363d3d373d3d3d3d60368038038091363936013d738152606084901b60208201527f5af43d3d93803e603457fd5bf300000000000000000000000000000000000000603482015260009060418101825b848110156103b357858101518282015260200161039b565b5083810190508381526020810190506000828203836000f59695505050505050565b604051610160810167ffffffffffffffff81118282101715610420577f4e487b7100000000000000000000000000000000000000000000000000000000600052604160045260246000fd5b60405290565b803573ffffffffffffffffffffffffffffffffffffffff8116811461044a57600080fd5b919050565b6000610160828403121561046257600080fd5b61046a6103d5565b61047383610426565b81526020830135602082015261048b60408401610426565b6040820152606083013560608201526080830135608082015260a083013560a082015260c083013560c082015260e083013560e08201526101008084013581830152506101208084013581830152506101408084013581830152508091505092915050565b815173ffffffffffffffffffffffffffffffffffffffff1681526101608101602083015160208301526040830151610540604084018273ffffffffffffffffffffffffffffffffffffffff169052565b50606083015160608301526080830151608083015260a083015160a083015260c083015160c083015260e083015160e083015261010080840151818401525061012080840151818401525061014080840151818401525092915050565b600060208083528351808285015260005b818110156105ca578581018301518582016040015282016105ae565b5060006040828601015260407fffffffffffffffffffffffffffffffffffffffffffffffffffffffffffffffe0601f830116850101925050509291505056fea26469706673582212200a757e80e6858c4648801d91e820bbfee09344c6b8851b84036d066f05f406f264736f6c63430008140033",
  "linkReferences": {},
  "deployedLinkReferences": {}
}