{
  "_format": "hh-sol-artifact-1",
  "contractName": "PoolLogic",
  "sourceName": "contracts/PoolLogic.sol",
  "abi": [
    {
      "inputs": [
        {
          "internalType": "address",
          "name": "token",
          "type": "address"
        },
        {
          "internalType": "address",
          "name": "feeTo",
          "type": "address"
        },
        {
          "internalType": "uint256",
          "name": "feeRate",
          "type": "uint256"
        }
      ],
      "stateMutability": "nonpayable",
      "type": "constructor"
    },
    {
      "inputs": [],
      "name": "T",
      "type": "error"
    },
    {
      "anonymous": false,
      "inputs": [
        {
          "indexed": true,
          "internalType": "address",
          "name": "payer",
          "type": "address"
        },
        {
          "indexed": true,
          "internalType": "address",
          "name": "recipient",
          "type": "address"
        },
        {
          "indexed": true,
          "internalType": "uint256",
          "name": "sideMax",
          "type": "uint256"
        },
        {
          "indexed": false,
          "internalType": "uint256",
          "name": "sideIn",
          "type": "uint256"
        },
        {
          "indexed": false,
          "internalType": "uint256",
          "name": "sideOut",
          "type": "uint256"
        },
        {
          "indexed": false,
          "internalType": "uint256",
          "name": "maturity",
          "type": "uint256"
        },
        {
          "indexed": false,
          "internalType": "uint256",
          "name": "amountIn",
          "type": "uint256"
        },
        {
          "indexed": false,
          "internalType": "uint256",
          "name": "amountOut",
          "type": "uint256"
        },
        {
          "indexed": false,
          "internalType": "uint256",
          "name": "price",
          "type": "uint256"
        }
      ],
      "name": "Swap",
      "type": "event"
    },
    {
      "inputs": [],
      "name": "ensureStateIntegrity",
      "outputs": [],
      "stateMutability": "view",
      "type": "function"
    },
    {
      "inputs": [
        {
          "internalType": "uint256",
          "name": "ORACLE",
          "type": "uint256"
        }
      ],
      "name": "fetch",
      "outputs": [
        {
          "internalType": "uint256",
          "name": "twap",
          "type": "uint256"
        },
        {
          "internalType": "uint256",
          "name": "spot",
          "type": "uint256"
        }
      ],
      "stateMutability": "view",
      "type": "function"
    },
    {
      "inputs": [],
      "name": "getStates",
      "outputs": [
        {
          "internalType": "uint256",
          "name": "R",
          "type": "uint256"
        },
        {
          "internalType": "uint256",
          "name": "a",
          "type": "uint256"
        },
        {
          "internalType": "uint256",
          "name": "b",
          "type": "uint256"
        },
        {
          "internalType": "uint32",
          "name": "i",
          "type": "uint32"
        },
        {
          "internalType": "uint32",
          "name": "f",
          "type": "uint32"
        }
      ],
      "stateMutability": "view",
      "type": "function"
    },
    {
      "inputs": [
        {
          "components": [
            {
              "internalType": "uint256",
              "name": "R",
              "type": "uint256"
            },
            {
              "internalType": "uint256",
              "name": "a",
              "type": "uint256"
            },
            {
              "internalType": "uint256",
              "name": "b",
              "type": "uint256"
            }
          ],
          "internalType": "struct State",
          "name": "state",
          "type": "tuple"
        },
        {
          "components": [
            {
              "internalType": "address",
              "name": "utr",
              "type": "address"
            },
            {
              "internalType": "bytes",
              "name": "payer",
              "type": "bytes"
            },
            {
              "internalType": "address",
              "name": "recipient",
              "type": "address"
            }
          ],
          "internalType": "struct Payment",
          "name": "payment",
          "type": "tuple"
        }
      ],
      "name": "init",
      "outputs": [],
      "stateMutability": "nonpayable",
      "type": "function"
    },
    {
      "inputs": [],
      "name": "loadConfig",
      "outputs": [
        {
          "components": [
            {
              "internalType": "address",
              "name": "FETCHER",
              "type": "address"
            },
            {
              "internalType": "bytes32",
              "name": "ORACLE",
              "type": "bytes32"
            },
            {
              "internalType": "address",
              "name": "TOKEN_R",
              "type": "address"
            },
            {
              "internalType": "uint256",
              "name": "K",
              "type": "uint256"
            },
            {
              "internalType": "uint256",
              "name": "MARK",
              "type": "uint256"
            },
            {
              "internalType": "uint256",
              "name": "INTEREST_HL",
              "type": "uint256"
            },
            {
              "internalType": "uint256",
              "name": "PREMIUM_HL",
              "type": "uint256"
            },
            {
              "internalType": "uint256",
              "name": "MATURITY",
              "type": "uint256"
            },
            {
              "internalType": "uint256",
              "name": "MATURITY_VEST",
              "type": "uint256"
            },
            {
              "internalType": "uint256",
              "name": "MATURITY_RATE",
              "type": "uint256"
            },
            {
              "internalType": "uint256",
              "name": "OPEN_RATE",
              "type": "uint256"
            }
          ],
          "internalType": "struct Config",
          "name": "config",
          "type": "tuple"
        }
      ],
      "stateMutability": "pure",
      "type": "function"
    },
    {
      "inputs": [
        {
          "internalType": "address",
          "name": "",
          "type": "address"
        },
        {
          "internalType": "address",
          "name": "",
          "type": "address"
        },
        {
          "internalType": "uint256[]",
          "name": "",
          "type": "uint256[]"
        },
        {
          "internalType": "uint256[]",
          "name": "",
          "type": "uint256[]"
        },
        {
          "internalType": "bytes",
          "name": "",
          "type": "bytes"
        }
      ],
      "name": "onERC1155BatchReceived",
      "outputs": [
        {
          "internalType": "bytes4",
          "name": "",
          "type": "bytes4"
        }
      ],
      "stateMutability": "nonpayable",
      "type": "function"
    },
    {
      "inputs": [
        {
          "internalType": "address",
          "name": "",
          "type": "address"
        },
        {
          "internalType": "address",
          "name": "",
          "type": "address"
        },
        {
          "internalType": "uint256",
          "name": "",
          "type": "uint256"
        },
        {
          "internalType": "uint256",
          "name": "",
          "type": "uint256"
        },
        {
          "internalType": "bytes",
          "name": "",
          "type": "bytes"
        }
      ],
      "name": "onERC1155Received",
      "outputs": [
        {
          "internalType": "bytes4",
          "name": "",
          "type": "bytes4"
        }
      ],
      "stateMutability": "nonpayable",
      "type": "function"
    },
    {
      "inputs": [
        {
          "internalType": "bytes4",
          "name": "interfaceId",
          "type": "bytes4"
        }
      ],
      "name": "supportsInterface",
      "outputs": [
        {
          "internalType": "bool",
          "name": "",
          "type": "bool"
        }
      ],
      "stateMutability": "view",
      "type": "function"
    },
    {
      "inputs": [
        {
          "components": [
            {
              "internalType": "uint256",
              "name": "sideIn",
              "type": "uint256"
            },
            {
              "internalType": "uint256",
              "name": "sideOut",
              "type": "uint256"
            },
            {
              "internalType": "address",
              "name": "helper",
              "type": "address"
            },
            {
              "internalType": "bytes",
              "name": "payload",
              "type": "bytes"
            }
          ],
          "internalType": "struct Param",
          "name": "param",
          "type": "tuple"
        },
        {
          "components": [
            {
              "internalType": "address",
              "name": "utr",
              "type": "address"
            },
            {
              "internalType": "bytes",
              "name": "payer",
              "type": "bytes"
            },
            {
              "internalType": "address",
              "name": "recipient",
              "type": "address"
            }
          ],
          "internalType": "struct Payment",
          "name": "payment",
          "type": "tuple"
        }
      ],
      "name": "swap",
      "outputs": [
        {
          "internalType": "uint256",
          "name": "amountIn",
          "type": "uint256"
        },
        {
          "internalType": "uint256",
          "name": "amountOut",
          "type": "uint256"
        },
        {
          "internalType": "uint256",
          "name": "price",
          "type": "uint256"
        }
      ],
      "stateMutability": "nonpayable",
      "type": "function"
    }
  ],
  "bytecode": "0x60e06040523480156200001157600080fd5b50604051620051b4380380620051b4833981016040819052620000349162000124565b826001600160a01b038116620000915760405162461bcd60e51b815260206004820152601660248201527f506f6f6c426173653a205a45524f5f414444524553530000000000000000000060448201526064015b60405180910390fd5b6001600160a01b039081166080528216620000ef5760405162461bcd60e51b815260206004820152601760248201527f506f6f6c4c6f6769633a205a45524f5f41444452455353000000000000000000604482015260640162000088565b6001600160a01b0390911660a05260c0525062000165565b80516001600160a01b03811681146200011f57600080fd5b919050565b6000806000606084860312156200013a57600080fd5b620001458462000107565b9250620001556020850162000107565b9150604084015190509250925092565b60805160a05160c051614fc4620001f060003960008181611e7b0152611ea301526000611eed01526000818161075c0152818161081f015281816108e001528181610a0e01528181610b3001528181610bef01528181610c9b01528181610d5a01528181610e9d015281816117d10152818161189f015281816118ff01526135530152614fc46000f3fe608060405234801561001057600080fd5b50600436106100a35760003560e01c8063bc197c8111610076578063dc1a6f331161005b578063dc1a6f33146101dd578063eb7e50dd146101f2578063f23a6e61146101fa57600080fd5b8063bc197c811461013b578063d8ab8274146101a457600080fd5b806301ffc9a7146100a857806322d65951146100d05780632b2f2913146100e55780637a33e3b014610113575b600080fd5b6100bb6100b6366004614266565b610232565b60405190151581526020015b60405180910390f35b6100d86102cb565b6040516100c791906142a8565b6100f86100f3366004614561565b61039a565b604080519384526020840192909252908201526060016100c7565b61012661012136600461461a565b610fc9565b604080519283526020830191909152016100c7565b6101736101493660046146c2565b7fbc197c810000000000000000000000000000000000000000000000000000000095945050505050565b6040517fffffffff0000000000000000000000000000000000000000000000000000000090911681526020016100c7565b6101ac611146565b6040805195865260208601949094529284019190915263ffffffff908116606084015216608082015260a0016100c7565b6101f06101eb366004614770565b61123c565b005b6101f0611a01565b6101736102083660046147dd565b7ff23a6e610000000000000000000000000000000000000000000000000000000095945050505050565b60007fffffffff0000000000000000000000000000000000000000000000000000000082167f4e2312e00000000000000000000000000000000000000000000000000000000014806102c557507f01ffc9a7000000000000000000000000000000000000000000000000000000007fffffffff000000000000000000000000000000000000000000000000000000008316145b92915050565b610357604051806101600160405280600073ffffffffffffffffffffffffffffffffffffffff16815260200160008019168152602001600073ffffffffffffffffffffffffffffffffffffffff16815260200160008152602001600081526020016000815260200160008152602001600081526020016000815260200160008152602001600081525090565b6060602036038035808203915060405192506020810183016040528083526020830181838237505050808060200190518101906103949190614856565b91505090565b60008060006103a7611a01565b600180547fffffffffffffffffffffffffffffffffffffffffffffffffffffffff00000000811663ffffffff909116178117905560006103e56102cb565b905060006103f38288611a84565b8051602082015160408301518a51929850909650945090915060009061070a57602087015151156106f3578660200151516014036104ba5761043a87602001516000612756565b604080850151815173ffffffffffffffffffffffffffffffffffffffff808516602083015230938201939093526014606082015291166080820152600060a082015290915060c001604080517fffffffffffffffffffffffffffffffffffffffffffffffffffffffffffffffe081840301815291905260208801526104bd565b50325b60408084015190517f70a0823100000000000000000000000000000000000000000000000000000000815230600482015260009173ffffffffffffffffffffffffffffffffffffffff16906370a0823190602401602060405180830381865afa15801561052e573d6000803e3d6000fd5b505050506040513d601f19601f8201168201806040525081019061055291906148f7565b61055c908861493f565b885160208a01516040517f715ef7f900000000000000000000000000000000000000000000000000000000815292935073ffffffffffffffffffffffffffffffffffffffff9091169163715ef7f9916105b9918b906004016149c0565b600060405180830381600087803b1580156105d357600080fd5b505af11580156105e7573d6000803e3d6000fd5b50505060408086015190517f70a0823100000000000000000000000000000000000000000000000000000000815230600482015273ffffffffffffffffffffffffffffffffffffffff90911691506370a0823190602401602060405180830381865afa15801561065b573d6000803e3d6000fd5b505050506040513d601f19601f8201168201806040525081019061067f91906148f7565b8111156106ed576040517f08c379a000000000000000000000000000000000000000000000000000000000815260206004820152601e60248201527f506f6f6c426173653a20494e53554646494349454e545f5041594d454e54000060448201526064015b60405180910390fd5b50610ddf565b61070383604001513330896127e6565b5033610ddf565b875160009060a01b301790506000808960200151511115610c66576040517efdd58e000000000000000000000000000000000000000000000000000000008152306004820152602481018390526000907f000000000000000000000000000000000000000000000000000000000000000073ffffffffffffffffffffffffffffffffffffffff169062fdd58e90604401602060405180830381865afa1580156107b7573d6000803e3d6000fd5b505050506040513d601f19601f820116820180604052508101906107db91906148f7565b90508015610891576040517ff5298aca00000000000000000000000000000000000000000000000000000000815230600482015260248101849052604481018290527f000000000000000000000000000000000000000000000000000000000000000073ffffffffffffffffffffffffffffffffffffffff169063f5298aca90606401600060405180830381600087803b15801561087857600080fd5b505af115801561088c573d6000803e3d6000fd5b505050505b89602001515160140361094c576108ad8a602001516000612756565b6040805173ffffffffffffffffffffffffffffffffffffffff8381166020830152309282019290925261048360608201527f0000000000000000000000000000000000000000000000000000000000000000909116608082015260a0810185905290945060c001604080517fffffffffffffffffffffffffffffffffffffffffffffffffffffffffffffffe081840301815291905260208b0152610950565b3293505b895160208b01516040517f715ef7f900000000000000000000000000000000000000000000000000000000815273ffffffffffffffffffffffffffffffffffffffff9092169163715ef7f9916109aa918d906004016149c0565b600060405180830381600087803b1580156109c457600080fd5b505af11580156109d8573d6000803e3d6000fd5b50506040517efdd58e000000000000000000000000000000000000000000000000000000008152306004820152602481018690527f000000000000000000000000000000000000000000000000000000000000000073ffffffffffffffffffffffffffffffffffffffff16925062fdd58e9150604401602060405180830381865afa158015610a6b573d6000803e3d6000fd5b505050506040513d601f19601f82011682018060405250810190610a8f91906148f7565b905080891115610afb576040517f08c379a000000000000000000000000000000000000000000000000000000000815260206004820152601e60248201527f506f6f6c426173653a20494e53554646494349454e545f5041594d454e54000060448201526064016106e4565b6040517fcb263dc6000000000000000000000000000000000000000000000000000000008152306004820152602481018490527f000000000000000000000000000000000000000000000000000000000000000073ffffffffffffffffffffffffffffffffffffffff169063cb263dc690604401602060405180830381865afa158015610b8c573d6000803e3d6000fd5b505050506040513d601f19601f82011682018060405250810190610bb091906148f7565b6040517ff5298aca00000000000000000000000000000000000000000000000000000000815230600482015260248101859052604481018390529092507f000000000000000000000000000000000000000000000000000000000000000073ffffffffffffffffffffffffffffffffffffffff169063f5298aca90606401600060405180830381600087803b158015610c4857600080fd5b505af1158015610c5c573d6000803e3d6000fd5b5050505050610dcf565b6040517fcb263dc6000000000000000000000000000000000000000000000000000000008152336004820152602481018390527f000000000000000000000000000000000000000000000000000000000000000073ffffffffffffffffffffffffffffffffffffffff169063cb263dc690604401602060405180830381865afa158015610cf7573d6000803e3d6000fd5b505050506040513d601f19601f82011682018060405250810190610d1b91906148f7565b6040517ff5298aca00000000000000000000000000000000000000000000000000000000815233600482015260248101849052604481018a90529091507f000000000000000000000000000000000000000000000000000000000000000073ffffffffffffffffffffffffffffffffffffffff169063f5298aca90606401600060405180830381600087803b158015610db357600080fd5b505af1158015610dc7573d6000803e3d6000fd5b505050503392505b610dda858289612985565b965050505b6020880151600090610e0357610dfe8460400151896040015188612a0d565b610efb565b602089015160009060a01b301790508460e001514263ffffffff16610e28919061493f565b60408a81015190517f3c8cb4ef00000000000000000000000000000000000000000000000000000000815273ffffffffffffffffffffffffffffffffffffffff918216600482015260248101849052604481018a905263ffffffff8316606482015260a06084820152600060a48201529193507f00000000000000000000000000000000000000000000000000000000000000001690633c8cb4ef9060c401600060405180830381600087803b158015610ee157600080fd5b505af1158015610ef5573d6000803e3d6000fd5b50505050505b610f0d89600001518a60200151612ba3565b6040808a01518b516020808e0151845192835290820152918201849052606082018a90526080820189905260a0820188905273ffffffffffffffffffffffffffffffffffffffff90811691908516907f2ad8739d64c070ab4ae9d9c0743d56550b22c3c8c96e7a6045fac37b5b8e89e39060c00160405180910390a45050600180547fffffffffffffffffffffffffffffffffffffffffffffffffffffffff00000000811663fffffffe90911617905550929591945092509050565b600080600083905060008173ffffffffffffffffffffffffffffffffffffffff16633850c7bd6040518163ffffffff1660e01b815260040160e060405180830381865afa15801561101e573d6000803e3d6000fd5b505050506040513d601f19601f820116820180604052508101906110429190614a04565b5050505050509050600061105a8360c088901c612bb9565b509050600061106882612e7d565b73ffffffffffffffffffffffffffffffffffffffff16905060208373ffffffffffffffffffffffffffffffffffffffff16901b73ffffffffffffffffffffffffffffffffffffffff169450602081901b95507f8000000000000000000000000000000000000000000000000000000000000000871660000361113d5761110e857fffffffffffffffffffffffffffffffffffffffffffffffffffffffffffffffff614acd565b945061113a867fffffffffffffffffffffffffffffffffffffffffffffffffffffffffffffffff614acd565b95505b50505050915091565b6000806000806000806111576102cb565b60408082015190517f70a0823100000000000000000000000000000000000000000000000000000000815230600482015291925073ffffffffffffffffffffffffffffffffffffffff16906370a0823190602401602060405180830381865afa1580156111c8573d6000803e3d6000fd5b505050506040513d601f19601f820116820180604052508101906111ec91906148f7565b60005460015491987bffffffffffffffffffffffffffffffffffffffffffffffffffffffff64010000000080840482169a50840416975063ffffffff909116955063fffffffe9091169350915050565b60005463ffffffff16156112ac576040517f08c379a000000000000000000000000000000000000000000000000000000000815260206004820152601d60248201527f506f6f6c426173653a20414c52454144595f494e495449414c495a454400000060448201526064016106e4565b81516020830151604084015182158015906112c75750600082115b80156112d35750600081115b611339576040517f08c379a000000000000000000000000000000000000000000000000000000000815260206004820152601460248201527f506f6f6c426173653a205a45524f5f504152414d00000000000000000000000060448201526064016106e4565b600183901c82111580156113515750600183901c8111155b6113b7576040517f08c379a000000000000000000000000000000000000000000000000000000000815260206004820152601760248201527f506f6f6c426173653a20494e56414c49445f504152414d00000000000000000060448201526064016106e4565b4263ffffffff81166401000000007bffffffffffffffffffffffffffffffffffffffffffffffffffffffff858116820292909217600090815563fffffffe90931691841602176001556114086102cb565b602086015151909150156116e15760408082015190517f70a0823100000000000000000000000000000000000000000000000000000000815230600482015260009173ffffffffffffffffffffffffffffffffffffffff16906370a0823190602401602060405180830381865afa158015611487573d6000803e3d6000fd5b505050506040513d601f19601f820116820180604052508101906114ab91906148f7565b6114b5908661493f565b90508560200151516014036115525760006114d587602001516000612756565b604080850151815173ffffffffffffffffffffffffffffffffffffffff808516602083015230938201939093526014606082015291166080820152600060a082015290915060c001604080517fffffffffffffffffffffffffffffffffffffffffffffffffffffffffffffffe08184030181529190526020880152505b855160208701516040517f715ef7f900000000000000000000000000000000000000000000000000000000815273ffffffffffffffffffffffffffffffffffffffff9092169163715ef7f9916115ac9189906004016149c0565b600060405180830381600087803b1580156115c657600080fd5b505af11580156115da573d6000803e3d6000fd5b50505060408084015190517f70a0823100000000000000000000000000000000000000000000000000000000815230600482015273ffffffffffffffffffffffffffffffffffffffff90911691506370a0823190602401602060405180830381865afa15801561164e573d6000803e3d6000fd5b505050506040513d601f19601f8201168201806040525081019061167291906148f7565b8111156116db576040517f08c379a000000000000000000000000000000000000000000000000000000000815260206004820152601e60248201527f506f6f6c426173653a20494e53554646494349454e545f5041594d454e54000060448201526064016106e4565b506116f1565b6116f181604001513330876127e6565b30741000000000000000000000000000000000000000008117907420000000000000000000000000000000000000000081179074300000000000000000000000000000000000000000176000611748600389614acd565b905060008560e001514261175c919061493f565b60408b81015190517f3c8cb4ef00000000000000000000000000000000000000000000000000000000815273ffffffffffffffffffffffffffffffffffffffff9182166004820152602481018890526044810185905263ffffffff8316606482015260a06084820152600060a48201529192507f00000000000000000000000000000000000000000000000000000000000000001690633c8cb4ef9060c401600060405180830381600087803b15801561181557600080fd5b505af1158015611829573d6000803e3d6000fd5b5050505060408a81015190517f3c8cb4ef00000000000000000000000000000000000000000000000000000000815273ffffffffffffffffffffffffffffffffffffffff9182166004820152602481018690526044810184905263ffffffff8316606482015260a06084820152600060a48201527f000000000000000000000000000000000000000000000000000000000000000090911690633c8cb4ef9060c401600060405180830381600087803b1580156118e557600080fd5b505af11580156118f9573d6000803e3d6000fd5b505050507f000000000000000000000000000000000000000000000000000000000000000073ffffffffffffffffffffffffffffffffffffffff16633c8cb4ef8b6040015185600186901b8d61194f9190614ae1565b6040517fffffffff0000000000000000000000000000000000000000000000000000000060e086901b16815273ffffffffffffffffffffffffffffffffffffffff90931660048401526024830191909152604482015263ffffffff8416606482015260a06084820152600060a482015260c401600060405180830381600087803b1580156119dc57600080fd5b505af11580156119f0573d6000803e3d6000fd5b505050505050505050505050505050565b6001805463ffffffff81169116158015611a1b5750600081115b611a81576040517f08c379a000000000000000000000000000000000000000000000000000000000815260206004820152601960248201527f506f6f6c426173653a2053544154455f494e544547524954590000000000000060448201526064016106e4565b50565b611aa860405180606001604052806000815260200160008152602001600081525090565b81516020830151808203611b18576040517f08c379a000000000000000000000000000000000000000000000000000000000815260206004820152601460248201527f506f6f6c4c6f6769633a2053414d455f5349444500000000000000000000000060448201526064016106e4565b811580611b255750601082145b80611b305750602082145b80611b3b5750603082145b611ba1576040517f08c379a000000000000000000000000000000000000000000000000000000000815260206004820152601a60248201527f506f6f6c4c6f6769633a20494e56414c49445f534944455f494e00000000000060448201526064016106e4565b801580611bae5750601081145b80611bb95750602081145b80611bc45750603081145b611c2a576040517f08c379a000000000000000000000000000000000000000000000000000000000815260206004820152601b60248201527f506f6f6c4c6f6769633a20494e56414c49445f534944455f4f5554000000000060448201526064016106e4565b60006040518060600160405280611c4488604001516131e4565b8152600080547bffffffffffffffffffffffffffffffffffffffffffffffffffffffff640100000000918290048116602085015260015491909104166040909201919091529091508080611c9a89858888613276565b60408b0152865160005493965091945092508390038290039063ffffffff908116420390811615611d67576000611cdb8263ffffffff168d60a0015161334e565b905068010000000000000000811015611d65576000611d04868368010000000000000000613394565b90506000611d1c868468010000000000000000613394565b90508082018688011115611d6257600080547fffffffffffffffffffffffffffffffffffffffffffffffffffffffff00000000164263ffffffff16179055909550935084845b50505b505b5060015463fffffffe908116429091160363ffffffff811615611e79576000611d9a8263ffffffff168d60c0015161334e565b905068010000000000000000811015611e77576000848611611dcc57611dc7868603868a600001516133f2565b611ddd565b611ddd858703878a600001516133f2565b9050611df3818368010000000000000000613394565b8082039114611e755784861115611e2357611e158186888b6000015103613394565b850194508086039550611e3e565b611e348187878b6000015103613394565b8601955080850394505b6001805463ffffffff8082168601167fffffffffffffffffffffffffffffffffffffffffffffffffffffffff000000009091161790555b505b505b7f000000000000000000000000000000000000000000000000000000000000000015611f1c5760007f00000000000000000000000000000000000000000000000000000000000000008385878a6000015103030381611eda57611eda614a9e565b0490508015611f1a57611f128c604001517f000000000000000000000000000000000000000000000000000000000000000083612a0d565b865181900387525b505b5050818101600181901c6103e8811015611f3d578093508382039250611f6b565b6103e8841015611f56576103e893508382039250611f6b565b6103e8831015611f6b576103e8925082820393505b50506000886040015173ffffffffffffffffffffffffffffffffffffffff1663dc0192e8604051806080016040528087815260200188600001518152602001868152602001858152508b606001516040518363ffffffff1660e01b8152600401611fd6929190614af4565b606060405180830381865afa158015611ff3573d6000803e3d6000fd5b505050506040513d601f19601f820116820180604052508101906120179190614b34565b90507bffffffffffffffffffffffffffffffffffffffffffffffffffffffff8016816020015111156120a5576040517f08c379a000000000000000000000000000000000000000000000000000000000815260206004820152601c60248201527f506f6f6c4c6f6769633a205354415445315f4f564552464c4f575f410000000060448201526064016106e4565b60408101517bffffffffffffffffffffffffffffffffffffffffffffffffffffffff101561212f576040517f08c379a000000000000000000000000000000000000000000000000000000000815260206004820152601c60248201527f506f6f6c4c6f6769633a205354415445315f4f564552464c4f575f420000000060448201526064016106e4565b60008061213c86846134c2565b9092509050886121d1578482101580156121565750838110155b6121bc576040517f08c379a000000000000000000000000000000000000000000000000000000000815260206004820152601b60248201527f506f6f6c4c6f6769633a20494e56414c49445f5354415445315f52000000000060448201526064016106e4565b865183516121ca9190614ae1565b8a5261248f565b82518751101561223d576040517f08c379a000000000000000000000000000000000000000000000000000000000815260206004820152601c60248201527f506f6f6c4c6f6769633a20494e56414c49445f5354415445315f4e520000000060448201526064016106e4565b60006122488a61351c565b905060108a036122d757848210156122bc576040517f08c379a000000000000000000000000000000000000000000000000000000000815260206004820152601b60248201527f506f6f6c4c6f6769633a20494e56414c49445f5354415445315f41000000000060448201526064016106e4565b6122d0816122ca8589614ae1565b88613394565b8b5261241e565b85831015612341576040517f08c379a000000000000000000000000000000000000000000000000000000000815260206004820152601c60248201527f506f6f6c4c6f6769633a20494e56414c49445f5354415445315f4e410000000060448201526064016106e4565b60208a0361235d576122d0816123578488614ae1565b87613394565b848210156123c7576040517f08c379a000000000000000000000000000000000000000000000000000000000815260206004820152601c60248201527f506f6f6c4c6f6769633a20494e56414c49445f5354415445315f4e420000000060448201526064016106e4565b600085878a600001516123da9190614ae1565b6123e49190614ae1565b90506000838587600001516123f99190614ae1565b6124039190614ae1565b9050612419836124138385614ae1565b84613394565b8d5250505b8a5181036103e8111561248d576040517f08c379a000000000000000000000000000000000000000000000000000000000815260206004820152601960248201527f506f6f6c4c6f6769633a204d494e494d554d5f535550504c590000000000000060448201526064016106e4565b505b876124ac57825187516124a29190614ae1565b60208b01526126f4565b60308803612587576000848689600001516124c79190614ae1565b6124d19190614ae1565b90506000828486600001516124e69190614ae1565b6124f09190614ae1565b90506103e881101561255e576040517f08c379a000000000000000000000000000000000000000000000000000000000815260206004820152601c60248201527f506f6f6c4c6f6769633a204d494e494d554d5f524553455256455f430000000060448201526064016106e4565b61257a61256a8b61351c565b6125748484614ae1565b846133f2565b60208d0152506126f49050565b60108803612621576103e88210156125fb576040517f08c379a000000000000000000000000000000000000000000000000000000000815260206004820152601c60248201527f506f6f6c4c6f6769633a204d494e494d554d5f524553455256455f410000000060448201526064016106e4565b6126176126078961351c565b6126118785614ae1565b876133f2565b60208b01526126af565b6103e881101561268d576040517f08c379a000000000000000000000000000000000000000000000000000000000815260206004820152601c60248201527f506f6f6c4c6f6769633a204d494e494d554d5f524553455256455f420000000060448201526064016106e4565b6126a96126998961351c565b6126a38684614ae1565b866133f2565b60208b01525b7001000000000000000000000000000000008c6101400151146126f4576126f18a600001517001000000000000000000000000000000008e61014001516133f2565b8a525b505060208101516000805463ffffffff9081166401000000007bffffffffffffffffffffffffffffffffffffffffffffffffffffffff948516810291909117909255604090930151600180549094169216021790555094979650505050505050565b600061276382601461493f565b835110156127cd576040517f08c379a000000000000000000000000000000000000000000000000000000000815260206004820152601560248201527f746f416464726573735f6f75744f66426f756e6473000000000000000000000060448201526064016106e4565b5001602001516c01000000000000000000000000900490565b6040805173ffffffffffffffffffffffffffffffffffffffff85811660248301528481166044830152606480830185905283518084039091018152608490920183526020820180517bffffffffffffffffffffffffffffffffffffffffffffffffffffffff167f23b872dd0000000000000000000000000000000000000000000000000000000017905291516000928392908816916128859190614b70565b6000604051808303816000865af19150503d80600081146128c2576040519150601f19603f3d011682016040523d82523d6000602084013e6128c7565b606091505b50915091508180156128f15750805115806128f15750808060200190518101906128f19190614b8c565b61297d576040517f08c379a000000000000000000000000000000000000000000000000000000000815260206004820152603160248201527f5472616e7366657248656c7065723a3a7472616e7366657246726f6d3a20747260448201527f616e7366657246726f6d206661696c656400000000000000000000000000000060648201526084016106e4565b505050505050565b6000428311612995575080612a06565b60e08401514284039081106129ae576000915050612a06565b6000818660e001510390508561010001518110156129e057856101000151818502816129dc576129dc614a9e565b0493505b612a01848761012001517001000000000000000000000000000000006133f2565b925050505b9392505050565b6040805173ffffffffffffffffffffffffffffffffffffffff8481166024830152604480830185905283518084039091018152606490920183526020820180517bffffffffffffffffffffffffffffffffffffffffffffffffffffffff167fa9059cbb000000000000000000000000000000000000000000000000000000001790529151600092839290871691612aa49190614b70565b6000604051808303816000865af19150503d8060008114612ae1576040519150601f19603f3d011682016040523d82523d6000602084013e612ae6565b606091505b5091509150818015612b10575080511580612b10575080806020019051810190612b109190614b8c565b612b9c576040517f08c379a000000000000000000000000000000000000000000000000000000000815260206004820152602d60248201527f5472616e7366657248656c7065723a3a736166655472616e736665723a20747260448201527f616e73666572206661696c65640000000000000000000000000000000000000060648201526084016106e4565b5050505050565b6000818311612bb25781612a06565b5090919050565b6000808263ffffffff16600003612c2c576040517f08c379a000000000000000000000000000000000000000000000000000000000815260206004820152600260248201527f425000000000000000000000000000000000000000000000000000000000000060448201526064016106e4565b6040805160028082526060820183526000926020830190803683370190505090508381600081518110612c6157612c61614ba7565b602002602001019063ffffffff16908163ffffffff1681525050600081600181518110612c9057612c90614ba7565b602002602001019063ffffffff16908163ffffffff16815250506000808673ffffffffffffffffffffffffffffffffffffffff1663883bdbfd846040518263ffffffff1660e01b8152600401612ce69190614bd6565b600060405180830381865afa158015612d03573d6000803e3d6000fd5b505050506040513d6000823e601f3d9081017fffffffffffffffffffffffffffffffffffffffffffffffffffffffffffffffe0168201604052612d499190810190614c84565b91509150600082600081518110612d6257612d62614ba7565b602002602001015183600181518110612d7d57612d7d614ba7565b6020026020010151612d8f9190614d46565b9050600082600081518110612da657612da6614ba7565b602002602001015183600181518110612dc157612dc1614ba7565b6020026020010151612dd39190614d8b565b9050612de563ffffffff891683614dbf565b965060008260060b128015612e0b5750612e0563ffffffff891683614e33565b60060b15155b15612e1e5786612e1a81614e55565b9750505b6000612e4473ffffffffffffffffffffffffffffffffffffffff63ffffffff8b16614eb2565b9050612e6e77ffffffffffffffffffffffffffffffffffffffff00000000602084901b1682614ef5565b96505050505050509250929050565b60008060008360020b12612e94578260020b612e9c565b8260020b6000035b9050620d89e8811115612edb576040517f2bc80f3a00000000000000000000000000000000000000000000000000000000815260040160405180910390fd5b600081600116600003612eff57700100000000000000000000000000000000612f11565b6ffffcb933bd6fad37aa2d162d1a5940015b70ffffffffffffffffffffffffffffffffff1690506002821615612f45576ffff97272373d413259a46990580e213a0260801c5b6004821615612f64576ffff2e50f5f656932ef12357cf3c7fdcc0260801c5b6008821615612f83576fffe5caca7e10e4e61c3624eaa0941cd00260801c5b6010821615612fa2576fffcb9843d60f6159c9db58835c9266440260801c5b6020821615612fc1576fff973b41fa98c081472e6896dfb254c00260801c5b6040821615612fe0576fff2ea16466c96a3843ec78b326b528610260801c5b6080821615612fff576ffe5dee046a99a2a811c461f1969c30530260801c5b61010082161561301f576ffcbe86c7900a88aedcffc83b479aa3a40260801c5b61020082161561303f576ff987a7253ac413176f2b074cf7815e540260801c5b61040082161561305f576ff3392b0822b70005940c7a398e4b70f30260801c5b61080082161561307f576fe7159475a2c29b7443b29c7fa6e889d90260801c5b61100082161561309f576fd097f3bdfd2022b8845ad8f792aa58250260801c5b6120008216156130bf576fa9f746462d870fdf8a65dc1f90e061e50260801c5b6140008216156130df576f70d869a156d2a1b890bb3df62baf32f70260801c5b6180008216156130ff576f31be135f97d08fd981231505542fcfa60260801c5b62010000821615613120576f09aa508b5b7a84e1c677de54f3e99bc90260801c5b62020000821615613140576e5d6af8dedb81196699c329225ee6040260801c5b6204000082161561315f576d2216e584f5fa1ea926041bedfe980260801c5b6208000082161561317c576b048a170391f7dc42444e8fa20260801c5b60008460020b13156131bb57807fffffffffffffffffffffffffffffffffffffffffffffffffffffffffffffffff816131b7576131b7614a9e565b0490505b6401000000008106156131cf5760016131d2565b60005b60ff16602082901c0192505050919050565b6040517f70a0823100000000000000000000000000000000000000000000000000000000815230600482015260009073ffffffffffffffffffffffffffffffffffffffff8316906370a08231906024015b602060405180830381865afa158015613252573d6000803e3d6000fd5b505050506040513d601f19601f820116820180604052508101906102c591906148f7565b6000806000806000806132948a600001518b6020015160001c613597565b91509150808211156132a257905b60108714806132b15750602088145b156132d9576132c38a8294508461365e565b95506132cf868a6134c2565b9095509350613341565b60208714806132e85750601088145b156132fa576132c38a8394508461365e565b6133078a8394508461365e565b9550613313868a6134c2565b90955093508484118815036133415761332f8a8294508461365e565b955061333b868a6134c2565b90955093505b5050945094509450949050565b6000816000036133685750680100000000000000006102c5565b600061338961337b84604087901b614acd565b61338490614f2c565b61368d565b600f0b949350505050565b60006133a18484846133f2565b9050600082806133b3576133b3614a9e565b8486091115612a06577fffffffffffffffffffffffffffffffffffffffffffffffffffffffffffffffff81106133e857600080fd5b6001019392505050565b600080807fffffffffffffffffffffffffffffffffffffffffffffffffffffffffffffffff85870985870292508281108382030391505080600003613449576000841161343e57600080fd5b508290049050612a06565b80841161345557600080fd5b6000848688096000868103871696879004966002600389028118808a02820302808a02820302808a02820302808a02820302808a02820302808a02909103029181900381900460010186841190950394909402919094039290920491909117919091029150509392505050565b6000806134d88484602001518560000151614176565b9150613513613507857fffffffffffffffffffffffffffffffffffffffffffffffffffffffffffffffff614acd565b60408501518551614176565b90509250929050565b6040517fbd85b0390000000000000000000000000000000000000000000000000000000081523060a083901b1760048201526000907f000000000000000000000000000000000000000000000000000000000000000073ffffffffffffffffffffffffffffffffffffffff169063bd85b03990602401613235565b60008073ffffffffffffffffffffffffffffffffffffffff84166135c7576135be83610fc9565b91509150613657565b6040517f7a33e3b00000000000000000000000000000000000000000000000000000000081526004810184905273ffffffffffffffffffffffffffffffffffffffff851690637a33e3b09060240160408051808303816000875af1158015613633573d6000803e3d6000fd5b505050506040513d601f19601f820116820180604052508101906135be9190614f6a565b9250929050565b6000612a066136837001000000000000000000000000000000008486608001516133f2565b84606001516141df565b60006840000000000000000082600f0b126136a757600080fd5b7fffffffffffffffffffffffffffffffffffffffffffffffc0000000000000000082600f0b12156136da57506000919050565b6f8000000000000000000000000000000060006780000000000000008416600f0b13156137185770016a09e667f3bcc908b2fb1366ea957d3e0260801c5b60008367400000000000000016600f0b1315613745577001306fe0a31b7152de8d5a46305c85edec0260801c5b60008367200000000000000016600f0b1315613772577001172b83c7d517adcdf7c8c50eb14a791f0260801c5b60008367100000000000000016600f0b131561379f5770010b5586cf9890f6298b92b71842a983630260801c5b60008367080000000000000016600f0b13156137cc577001059b0d31585743ae7c548eb68ca417fd0260801c5b60008367040000000000000016600f0b13156137f957700102c9a3e778060ee6f7caca4f7a29bde80260801c5b60008367020000000000000016600f0b13156138265770010163da9fb33356d84a66ae336dcdfa3f0260801c5b60008367010000000000000016600f0b131561385357700100b1afa5abcbed6129ab13ec11dc95430260801c5b600083668000000000000016600f0b131561387f5770010058c86da1c09ea1ff19d294cf2f679b0260801c5b600083664000000000000016600f0b13156138ab577001002c605e2e8cec506d21bfc89a23a00f0260801c5b600083662000000000000016600f0b13156138d757700100162f3904051fa128bca9c55c31e5df0260801c5b600083661000000000000016600f0b1315613903577001000b175effdc76ba38e31671ca9397250260801c5b600083660800000000000016600f0b131561392f57700100058ba01fb9f96d6cacd4b180917c3d0260801c5b600083660400000000000016600f0b131561395b5770010002c5cc37da9491d0985c348c68e7b30260801c5b600083660200000000000016600f0b1315613987577001000162e525ee054754457d59952920260260801c5b600083660100000000000016600f0b13156139b35770010000b17255775c040618bf4a4ade83fc0260801c5b6000836580000000000016600f0b13156139de577001000058b91b5bc9ae2eed81e9b7d4cfab0260801c5b6000836540000000000016600f0b1315613a0957700100002c5c89d5ec6ca4d7c8acc017b7c90260801c5b6000836520000000000016600f0b1315613a345770010000162e43f4f831060e02d839a9d16d0260801c5b6000836510000000000016600f0b1315613a5f57700100000b1721bcfc99d9f890ea069117630260801c5b6000836508000000000016600f0b1315613a8a5770010000058b90cf1e6d97f9ca14dbcc16280260801c5b6000836504000000000016600f0b1315613ab5577001000002c5c863b73f016468f6bac5ca2b0260801c5b6000836502000000000016600f0b1315613ae057700100000162e430e5a18f6119e3c02282a50260801c5b6000836501000000000016600f0b1315613b0b577001000000b1721835514b86e6d96efd1bfe0260801c5b60008364800000000016600f0b1315613b3557700100000058b90c0b48c6be5df846c5b2ef0260801c5b60008364400000000016600f0b1315613b5f5770010000002c5c8601cc6b9e94213c72737a0260801c5b60008364200000000016600f0b1315613b89577001000000162e42fff037df38aa2b219f060260801c5b60008364100000000016600f0b1315613bb35770010000000b17217fba9c739aa5819f44f90260801c5b60008364080000000016600f0b1315613bdd577001000000058b90bfcdee5acd3c1cedc8230260801c5b60008364040000000016600f0b1315613c0757700100000002c5c85fe31f35a6a30da1be500260801c5b60008364020000000016600f0b1315613c315770010000000162e42ff0999ce3541b9fffcf0260801c5b60008364010000000016600f0b1315613c5b57700100000000b17217f80f4ef5aadda455540260801c5b600083638000000016600f0b1315613c845770010000000058b90bfbf8479bd5a81b51ad0260801c5b600083634000000016600f0b1315613cad577001000000002c5c85fdf84bd62ae30a74cc0260801c5b600083632000000016600f0b1315613cd657700100000000162e42fefb2fed257559bdaa0260801c5b600083631000000016600f0b1315613cff577001000000000b17217f7d5a7716bba4a9ae0260801c5b600083630800000016600f0b1315613d2857700100000000058b90bfbe9ddbac5e109cce0260801c5b600083630400000016600f0b1315613d515770010000000002c5c85fdf4b15de6f17eb0d0260801c5b600083630200000016600f0b1315613d7a577001000000000162e42fefa494f1478fde050260801c5b600083630100000016600f0b1315613da35770010000000000b17217f7d20cf927c8e94c0260801c5b6000836280000016600f0b1315613dcb577001000000000058b90bfbe8f71cb4e4b33d0260801c5b6000836240000016600f0b1315613df357700100000000002c5c85fdf477b662b269450260801c5b6000836220000016600f0b1315613e1b5770010000000000162e42fefa3ae53369388c0260801c5b6000836210000016600f0b1315613e4357700100000000000b17217f7d1d351a389d400260801c5b6000836208000016600f0b1315613e6b5770010000000000058b90bfbe8e8b2d3d4ede0260801c5b6000836204000016600f0b1315613e93577001000000000002c5c85fdf4741bea6e77e0260801c5b6000836202000016600f0b1315613ebb57700100000000000162e42fefa39fe95583c20260801c5b6000836201000016600f0b1315613ee3577001000000000000b17217f7d1cfb72b45e10260801c5b60008361800016600f0b1315613f0a57700100000000000058b90bfbe8e7cc35c3f00260801c5b60008361400016600f0b1315613f315770010000000000002c5c85fdf473e242ea380260801c5b60008361200016600f0b1315613f58577001000000000000162e42fefa39f02b772c0260801c5b60008361100016600f0b1315613f7f5770010000000000000b17217f7d1cf7d83c1a0260801c5b60008361080016600f0b1315613fa6577001000000000000058b90bfbe8e7bdcbe2e0260801c5b60008361040016600f0b1315613fcd57700100000000000002c5c85fdf473dea871f0260801c5b60008361020016600f0b1315613ff45770010000000000000162e42fefa39ef44d910260801c5b60008361010016600f0b131561401b57700100000000000000b17217f7d1cf79e9490260801c5b600083608016600f0b13156140415770010000000000000058b90bfbe8e7bce5440260801c5b600083604016600f0b1315614067577001000000000000002c5c85fdf473de6eca0260801c5b600083602016600f0b131561408d57700100000000000000162e42fefa39ef366f0260801c5b600083601016600f0b13156140b3577001000000000000000b17217f7d1cf79afa0260801c5b600083600816600f0b13156140d957700100000000000000058b90bfbe8e7bcd6d0260801c5b600083600416600f0b13156140ff5770010000000000000002c5c85fdf473de6b20260801c5b600083600216600f0b1315614125577001000000000000000162e42fefa39ef3580260801c5b600083600116600f0b131561414b5770010000000000000000b17217f7d1cf79ab0260801c5b600f83810b60401d603f03900b1c6f7fffffffffffffffffffffffffffffff8111156102c557600080fd5b600061419483857001000000000000000000000000000000006133f2565b9050600182901c811115612a065760006141c484600287901b7001000000000000000000000000000000006133f2565b905060006141d38485846133f2565b9050612a018185614ae1565b600080826001161161420257700100000000000000000000000000000000614204565b825b9050600182901c91505b81156102c55761423083847001000000000000000000000000000000006133f2565b9250600182161561425a5761425781847001000000000000000000000000000000006133f2565b90505b600182901c915061420e565b60006020828403121561427857600080fd5b81357fffffffff0000000000000000000000000000000000000000000000000000000081168114612a0657600080fd5b815173ffffffffffffffffffffffffffffffffffffffff16815261016081016020830151602083015260408301516142f8604084018273ffffffffffffffffffffffffffffffffffffffff169052565b50606083015160608301526080830151608083015260a083015160a083015260c083015160c083015260e083015160e083015261010080840151818401525061012080840151818401525061014080840151818401525092915050565b7f4e487b7100000000000000000000000000000000000000000000000000000000600052604160045260246000fd5b6040516060810167ffffffffffffffff811182821017156143a7576143a7614355565b60405290565b6040516080810167ffffffffffffffff811182821017156143a7576143a7614355565b604051610160810167ffffffffffffffff811182821017156143a7576143a7614355565b604051601f82017fffffffffffffffffffffffffffffffffffffffffffffffffffffffffffffffe016810167ffffffffffffffff8111828210171561443b5761443b614355565b604052919050565b73ffffffffffffffffffffffffffffffffffffffff81168114611a8157600080fd5b600082601f83011261447657600080fd5b813567ffffffffffffffff81111561449057614490614355565b6144c160207fffffffffffffffffffffffffffffffffffffffffffffffffffffffffffffffe0601f840116016143f4565b8181528460208386010111156144d657600080fd5b816020850160208301376000918101602001919091529392505050565b60006060828403121561450557600080fd5b61450d614384565b9050813561451a81614443565b8152602082013567ffffffffffffffff81111561453657600080fd5b61454284828501614465565b602083015250604082013561455681614443565b604082015292915050565b6000806040838503121561457457600080fd5b823567ffffffffffffffff8082111561458c57600080fd5b90840190608082870312156145a057600080fd5b6145a86143ad565b823581526020830135602082015260408301356145c481614443565b60408201526060830135828111156145db57600080fd5b6145e788828601614465565b6060830152509350602085013591508082111561460357600080fd5b50614610858286016144f3565b9150509250929050565b60006020828403121561462c57600080fd5b5035919050565b600067ffffffffffffffff82111561464d5761464d614355565b5060051b60200190565b600082601f83011261466857600080fd5b8135602061467d61467883614633565b6143f4565b82815260059290921b8401810191818101908684111561469c57600080fd5b8286015b848110156146b757803583529183019183016146a0565b509695505050505050565b600080600080600060a086880312156146da57600080fd5b85356146e581614443565b945060208601356146f581614443565b9350604086013567ffffffffffffffff8082111561471257600080fd5b61471e89838a01614657565b9450606088013591508082111561473457600080fd5b61474089838a01614657565b9350608088013591508082111561475657600080fd5b5061476388828901614465565b9150509295509295909350565b600080828403608081121561478457600080fd5b606081121561479257600080fd5b5061479b614384565b83358152602084013560208201526040840135604082015280925050606083013567ffffffffffffffff8111156147d157600080fd5b614610858286016144f3565b600080600080600060a086880312156147f557600080fd5b853561480081614443565b9450602086013561481081614443565b93506040860135925060608601359150608086013567ffffffffffffffff81111561483a57600080fd5b61476388828901614465565b805161485181614443565b919050565b6000610160828403121561486957600080fd5b6148716143d0565b61487a83614846565b81526020830151602082015261489260408401614846565b6040820152606083015160608201526080830151608082015260a083015160a082015260c083015160c082015260e083015160e08201526101008084015181830152506101208084015181830152506101408084015181830152508091505092915050565b60006020828403121561490957600080fd5b5051919050565b7f4e487b7100000000000000000000000000000000000000000000000000000000600052601160045260246000fd5b808201808211156102c5576102c5614910565b60005b8381101561496d578181015183820152602001614955565b50506000910152565b6000815180845261498e816020860160208601614952565b601f017fffffffffffffffffffffffffffffffffffffffffffffffffffffffffffffffe0169290920160200192915050565b6040815260006149d36040830185614976565b90508260208301529392505050565b805161ffff8116811461485157600080fd5b8051801515811461485157600080fd5b600080600080600080600060e0888a031215614a1f57600080fd5b8751614a2a81614443565b8097505060208801518060020b8114614a4257600080fd5b9550614a50604089016149e2565b9450614a5e606089016149e2565b9350614a6c608089016149e2565b925060a088015160ff81168114614a8257600080fd5b9150614a9060c089016149f4565b905092959891949750929550565b7f4e487b7100000000000000000000000000000000000000000000000000000000600052601260045260246000fd5b600082614adc57614adc614a9e565b500490565b818103818111156102c5576102c5614910565b8251815260208301516020820152604083015160408201526060830151606082015260a060808201526000614b2c60a0830184614976565b949350505050565b600060608284031215614b4657600080fd5b614b4e614384565b8251815260208301516020820152604083015160408201528091505092915050565b60008251614b82818460208701614952565b9190910192915050565b600060208284031215614b9e57600080fd5b612a06826149f4565b7f4e487b7100000000000000000000000000000000000000000000000000000000600052603260045260246000fd5b6020808252825182820181905260009190848201906040850190845b81811015614c1457835163ffffffff1683529284019291840191600101614bf2565b50909695505050505050565b600082601f830112614c3157600080fd5b81516020614c4161467883614633565b82815260059290921b84018101918181019086841115614c6057600080fd5b8286015b848110156146b7578051614c7781614443565b8352918301918301614c64565b60008060408385031215614c9757600080fd5b825167ffffffffffffffff80821115614caf57600080fd5b818501915085601f830112614cc357600080fd5b81516020614cd361467883614633565b82815260059290921b84018101918181019089841115614cf257600080fd5b948201945b83861015614d205785518060060b8114614d115760008081fd5b82529482019490820190614cf7565b91880151919650909350505080821115614d3957600080fd5b5061461085828601614c20565b600682810b9082900b037fffffffffffffffffffffffffffffffffffffffffffffffffff800000000000008112667fffffffffffff821317156102c5576102c5614910565b73ffffffffffffffffffffffffffffffffffffffff828116828216039080821115614db857614db8614910565b5092915050565b60008160060b8360060b80614dd657614dd6614a9e565b7fffffffffffffffffffffffffffffffffffffffffffffffffffffffffffffffff81147fffffffffffffffffffffffffffffffffffffffffffffffffff8000000000000083141615614e2a57614e2a614910565b90059392505050565b60008260060b80614e4657614e46614a9e565b808360060b0791505092915050565b60008160020b7fffffffffffffffffffffffffffffffffffffffffffffffffffffffffff8000008103614e8a57614e8a614910565b7fffffffffffffffffffffffffffffffffffffffffffffffffffffffffffffffff0192915050565b77ffffffffffffffffffffffffffffffffffffffffffffffff828116828216818102831692918115828504821417614eec57614eec614910565b50505092915050565b600077ffffffffffffffffffffffffffffffffffffffffffffffff80841680614f2057614f20614a9e565b92169190910492915050565b600081600f0b7fffffffffffffffffffffffffffffffff800000000000000000000000000000008103614f6157614f61614910565b60000392915050565b60008060408385031215614f7d57600080fd5b50508051602090910151909290915056fea26469706673582212208e80f8a7d5a0e3e89887101632d45eb41588d2e6c13a0a6f75dafde1e5e26a5164736f6c63430008140033",
  "linkReferences": {},
  "deployedLinkReferences": {}
}