{
  "_format": "hh-sol-artifact-1",
  "contractName": "TokenDescriptor",
  "sourceName": "contracts/support/TokenDescriptor.sol",
  "abi": [
    {
      "inputs": [
        {
          "internalType": "address",
          "name": "poolFactory",
          "type": "address"
        }
      ],
      "stateMutability": "nonpayable",
      "type": "constructor"
    },
    {
      "inputs": [
        {
          "internalType": "uint256",
          "name": "id",
          "type": "uint256"
        }
      ],
      "name": "constructMetadata",
      "outputs": [
        {
          "internalType": "string",
          "name": "",
          "type": "string"
        }
      ],
      "stateMutability": "view",
      "type": "function"
    },
    {
      "inputs": [
        {
          "internalType": "uint256",
          "name": "id",
          "type": "uint256"
        }
      ],
      "name": "getDecimals",
      "outputs": [
        {
          "internalType": "uint8",
          "name": "",
          "type": "uint8"
        }
      ],
      "stateMutability": "view",
      "type": "function"
    },
    {
      "inputs": [
        {
          "internalType": "uint256",
          "name": "id",
          "type": "uint256"
        }
      ],
      "name": "getName",
      "outputs": [
        {
          "internalType": "string",
          "name": "",
          "type": "string"
        }
      ],
      "stateMutability": "view",
      "type": "function"
    },
    {
      "inputs": [
        {
          "internalType": "uint256",
          "name": "id",
          "type": "uint256"
        }
      ],
      "name": "getSymbol",
      "outputs": [
        {
          "internalType": "string",
          "name": "",
          "type": "string"
        }
      ],
      "stateMutability": "view",
      "type": "function"
    }
  ],
  "bytecode": "0x60a06040523480156200001157600080fd5b50604051620032ed380380620032ed833981016040819052620000349162000046565b6001600160a01b031660805262000078565b6000602082840312156200005957600080fd5b81516001600160a01b03811681146200007157600080fd5b9392505050565b6080516132526200009b6000396000818161081d01526108ba01526132526000f3fe608060405234801561001057600080fd5b506004361061004c5760003560e01c80636418413c146100515780636b8ff5741461007a578063b9257a811461008d578063ff42fe18146100a0575b600080fd5b61006461005f366004611ced565b6100c5565b6040516100719190611d2a565b60405180910390f35b610064610088366004611ced565b61028a565b61006461009b366004611ced565b610414565b6100b36100ae366004611ced565b610616565b60405160ff9091168152602001610071565b60608160008190508073ffffffffffffffffffffffffffffffffffffffff1661015c8273ffffffffffffffffffffffffffffffffffffffff166322d659516040518163ffffffff1660e01b815260040161016060405180830381865afa158015610133573d6000803e3d6000fd5b505050506040513d601f19601f820116820180604052508101906101579190611dfd565b6107f1565b73ffffffffffffffffffffffffffffffffffffffff16146101de576040517f08c379a000000000000000000000000000000000000000000000000000000000815260206004820152601560248201527f4e4f545f415f444552495641424c455f544f4b454e000000000000000000000060448201526064015b60405180910390fd5b600084905060008173ffffffffffffffffffffffffffffffffffffffff166322d659516040518163ffffffff1660e01b815260040161016060405180830381865afa158015610231573d6000803e3d6000fd5b505050506040513d601f19601f820116820180604052508101906102559190611dfd565b602001519050600080610267836108e6565b909250905060a088901c61027d83838784610aff565b9998505050505050505050565b60608160008190508073ffffffffffffffffffffffffffffffffffffffff166102f88273ffffffffffffffffffffffffffffffffffffffff166322d659516040518163ffffffff1660e01b815260040161016060405180830381865afa158015610133573d6000803e3d6000fd5b73ffffffffffffffffffffffffffffffffffffffff1614610375576040517f08c379a000000000000000000000000000000000000000000000000000000000815260206004820152601560248201527f4e4f545f415f444552495641424c455f544f4b454e000000000000000000000060448201526064016101d5565b600084905060008173ffffffffffffffffffffffffffffffffffffffff166322d659516040518163ffffffff1660e01b815260040161016060405180830381865afa1580156103c8573d6000803e3d6000fd5b505050506040513d601f19601f820116820180604052508101906103ec9190611dfd565b6020015190506000806103fe836108e6565b909250905060a088901c61027d83838784610e3d565b60608160008190508073ffffffffffffffffffffffffffffffffffffffff166104828273ffffffffffffffffffffffffffffffffffffffff166322d659516040518163ffffffff1660e01b815260040161016060405180830381865afa158015610133573d6000803e3d6000fd5b73ffffffffffffffffffffffffffffffffffffffff16146104ff576040517f08c379a000000000000000000000000000000000000000000000000000000000815260206004820152601560248201527f4e4f545f415f444552495641424c455f544f4b454e000000000000000000000060448201526064016101d5565b600084905060008173ffffffffffffffffffffffffffffffffffffffff166322d659516040518163ffffffff1660e01b815260040161016060405180830381865afa158015610552573d6000803e3d6000fd5b505050506040513d601f19601f820116820180604052508101906105769190611dfd565b602001519050600080610588836108e6565b909250905060a088901c60006105a461059f611160565b611185565b90506105e86105b585858986610e3d565b6105c186868a876112d8565b836040516020016105d493929190611eba565b604051602081830303815290604052611185565b6040516020016105f89190611fca565b60405160208183030381529060405298505050505050505050919050565b60008160008190508073ffffffffffffffffffffffffffffffffffffffff166106848273ffffffffffffffffffffffffffffffffffffffff166322d659516040518163ffffffff1660e01b815260040161016060405180830381865afa158015610133573d6000803e3d6000fd5b73ffffffffffffffffffffffffffffffffffffffff1614610701576040517f08c379a000000000000000000000000000000000000000000000000000000000815260206004820152601560248201527f4e4f545f415f444552495641424c455f544f4b454e000000000000000000000060448201526064016101d5565b60008490508073ffffffffffffffffffffffffffffffffffffffff166322d659516040518163ffffffff1660e01b815260040161016060405180830381865afa158015610752573d6000803e3d6000fd5b505050506040513d601f19601f820116820180604052508101906107769190611dfd565b6040015173ffffffffffffffffffffffffffffffffffffffff1663313ce5676040518163ffffffff1660e01b8152600401602060405180830381865afa1580156107c4573d6000803e3d6000fd5b505050506040513d601f19601f820116820180604052508101906107e8919061200f565b95945050505050565b600080826040516020016108059190612032565b604051602081830303815290604052905060006108b07f000000000000000000000000000000000000000000000000000000000000000073ffffffffffffffffffffffffffffffffffffffff16639f61f4ff6040518163ffffffff1660e01b8152600401602060405180830381865afa158015610886573d6000803e3d6000fd5b505050506040513d601f19601f820116820180604052508101906108aa91906120df565b836117e4565b90506108de6000827f000000000000000000000000000000000000000000000000000000000000000061187c565b949350505050565b600080807f800000000000000000000000000000000000000000000000000000000000000084161561091957600161091c565b60005b60ff16905083811561099c578073ffffffffffffffffffffffffffffffffffffffff16630dfe16816040518163ffffffff1660e01b8152600401602060405180830381865afa158015610973573d6000803e3d6000fd5b505050506040513d601f19601f8201168201806040525081019061099791906120df565b610a0b565b8073ffffffffffffffffffffffffffffffffffffffff1663d21220a76040518163ffffffff1660e01b8152600401602060405180830381865afa1580156109e7573d6000803e3d6000fd5b505050506040513d601f19601f82011682018060405250810190610a0b91906120df565b93508115610a87578073ffffffffffffffffffffffffffffffffffffffff1663d21220a76040518163ffffffff1660e01b8152600401602060405180830381865afa158015610a5e573d6000803e3d6000fd5b505050506040513d601f19601f82011682018060405250810190610a8291906120df565b610af6565b8073ffffffffffffffffffffffffffffffffffffffff16630dfe16816040518163ffffffff1660e01b8152600401602060405180830381865afa158015610ad2573d6000803e3d6000fd5b505050506040513d601f19601f82011682018060405250810190610af691906120df565b92505050915091565b606060008373ffffffffffffffffffffffffffffffffffffffff166322d659516040518163ffffffff1660e01b815260040161016060405180830381865afa158015610b4f573d6000803e3d6000fd5b505050506040513d601f19601f82011682018060405250810190610b739190611dfd565b60408051808201909152600481527f284c50290000000000000000000000000000000000000000000000000000000060208201529091507ffffffffffffffffffffffffffffffffffffffffffffffffffffffffffffffff08401610c0b575060408051808201909152600181527f2b000000000000000000000000000000000000000000000000000000000000006020820152610c49565b60208403610c49575060408051808201909152600181527f2d0000000000000000000000000000000000000000000000000000000000000060208201525b816040015173ffffffffffffffffffffffffffffffffffffffff166395d89b416040518163ffffffff1660e01b8152600401600060405180830381865afa158015610c98573d6000803e3d6000fd5b505050506040513d6000823e601f3d9081017fffffffffffffffffffffffffffffffffffffffffffffffffffffffffffffffe0168201604052610cde91908101906120fa565b81610cec84606001516118a6565b8973ffffffffffffffffffffffffffffffffffffffff166395d89b416040518163ffffffff1660e01b8152600401600060405180830381865afa158015610d37573d6000803e3d6000fd5b505050506040513d6000823e601f3d9081017fffffffffffffffffffffffffffffffffffffffffffffffffffffffffffffffe0168201604052610d7d91908101906120fa565b8973ffffffffffffffffffffffffffffffffffffffff166395d89b416040518163ffffffff1660e01b8152600401600060405180830381865afa158015610dc8573d6000803e3d6000fd5b505050506040513d6000823e601f3d9081017fffffffffffffffffffffffffffffffffffffffffffffffffffffffffffffffe0168201604052610e0e91908101906120fa565b604051602001610e229594939291906121c5565b60405160208183030381529060405292505050949350505050565b606060008373ffffffffffffffffffffffffffffffffffffffff166322d659516040518163ffffffff1660e01b815260040161016060405180830381865afa158015610e8d573d6000803e3d6000fd5b505050506040513d601f19601f82011682018060405250810190610eb19190611dfd565b60408051808201909152600281527f4c5000000000000000000000000000000000000000000000000000000000000060208201529091507ffffffffffffffffffffffffffffffffffffffffffffffffffffffffffffffff08401610f49575060408051808201909152600481527f4c6f6e67000000000000000000000000000000000000000000000000000000006020820152610f87565b60208403610f87575060408051808201909152600581527f53686f727400000000000000000000000000000000000000000000000000000060208201525b80610f9583606001516118a6565b8873ffffffffffffffffffffffffffffffffffffffff166395d89b416040518163ffffffff1660e01b8152600401600060405180830381865afa158015610fe0573d6000803e3d6000fd5b505050506040513d6000823e601f3d9081017fffffffffffffffffffffffffffffffffffffffffffffffffffffffffffffffe016820160405261102691908101906120fa565b8873ffffffffffffffffffffffffffffffffffffffff166395d89b416040518163ffffffff1660e01b8152600401600060405180830381865afa158015611071573d6000803e3d6000fd5b505050506040513d6000823e601f3d9081017fffffffffffffffffffffffffffffffffffffffffffffffffffffffffffffffe01682016040526110b791908101906120fa565b856040015173ffffffffffffffffffffffffffffffffffffffff166395d89b416040518163ffffffff1660e01b8152600401600060405180830381865afa158015611106573d6000803e3d6000fd5b505050506040513d6000823e601f3d9081017fffffffffffffffffffffffffffffffffffffffffffffffffffffffffffffffe016820160405261114c91908101906120fa565b604051602001610e22959493929190612284565b6060604051602001611171906123c8565b604051602081830303815290604052905090565b606081516000036111a457505060408051602081019091526000815290565b60006040518060600160405280604081526020016131dd60409139905060006003845160026111d39190612d68565b6111dd9190612daa565b6111e8906004612dbe565b67ffffffffffffffff81111561120057611200611d7b565b6040519080825280601f01601f19166020018201604052801561122a576020820181803683370190505b509050600182016020820185865187015b80821015611296576003820191508151603f8160121c168501518453600184019350603f81600c1c168501518453600184019350603f8160061c168501518453600184019350603f811685015184535060018301925061123b565b50506003865106600181146112b257600281146112c5576112cd565b603d6001830353603d60028303536112cd565b603d60018303535b509195945050505050565b606060008373ffffffffffffffffffffffffffffffffffffffff166322d659516040518163ffffffff1660e01b815260040161016060405180830381865afa158015611328573d6000803e3d6000fd5b505050506040513d601f19601f8201168201806040525081019061134c9190611dfd565b9050606060308403611569578673ffffffffffffffffffffffffffffffffffffffff166395d89b416040518163ffffffff1660e01b8152600401600060405180830381865afa1580156113a3573d6000803e3d6000fd5b505050506040513d6000823e601f3d9081017fffffffffffffffffffffffffffffffffffffffffffffffffffffffffffffffe01682016040526113e991908101906120fa565b8673ffffffffffffffffffffffffffffffffffffffff166395d89b416040518163ffffffff1660e01b8152600401600060405180830381865afa158015611434573d6000803e3d6000fd5b505050506040513d6000823e601f3d9081017fffffffffffffffffffffffffffffffffffffffffffffffffffffffffffffffe016820160405261147a91908101906120fa565b61148784606001516118a6565b6114a88873ffffffffffffffffffffffffffffffffffffffff166014611903565b856040015173ffffffffffffffffffffffffffffffffffffffff166395d89b416040518163ffffffff1660e01b8152600401600060405180830381865afa1580156114f7573d6000803e3d6000fd5b505050506040513d6000823e601f3d9081017fffffffffffffffffffffffffffffffffffffffffffffffffffffffffffffffe016820160405261153d91908101906120fa565b604051602001611551959493929190612dd5565b604051602081830303815290604052925050506108de565b601084036115ab575060408051808201909152600481527f4c4f4e470000000000000000000000000000000000000000000000000000000060208201526115e9565b602084036115e9575060408051808201909152600581527f53484f525400000000000000000000000000000000000000000000000000000060208201525b806115f783606001516118a6565b8873ffffffffffffffffffffffffffffffffffffffff166395d89b416040518163ffffffff1660e01b8152600401600060405180830381865afa158015611642573d6000803e3d6000fd5b505050506040513d6000823e601f3d9081017fffffffffffffffffffffffffffffffffffffffffffffffffffffffffffffffe016820160405261168891908101906120fa565b8873ffffffffffffffffffffffffffffffffffffffff166395d89b416040518163ffffffff1660e01b8152600401600060405180830381865afa1580156116d3573d6000803e3d6000fd5b505050506040513d6000823e601f3d9081017fffffffffffffffffffffffffffffffffffffffffffffffffffffffffffffffe016820160405261171991908101906120fa565b61173a8973ffffffffffffffffffffffffffffffffffffffff166014611903565b866040015173ffffffffffffffffffffffffffffffffffffffff166395d89b416040518163ffffffff1660e01b8152600401600060405180830381865afa158015611789573d6000803e3d6000fd5b505050506040513d6000823e601f3d9081017fffffffffffffffffffffffffffffffffffffffffffffffffffffffffffffffe01682016040526117cf91908101906120fa565b60405160200161155196959493929190612faa565b80516040517f600b380380600b3d393df3363d3d373d3d3d3d60368038038091363936013d738152606084901b6020828101919091527f5af43d3d93803e603457fd5bf30000000000000000000000000000000000000060348301526000929084019160418101845b8381101561186557848101518282015260200161184d565b508201918252908190036020019020949350505050565b6000604051836040820152846020820152828152600b8101905060ff815360559020949350505050565b60606118b3600283613123565b156118ef576118cb6118c6600284612daa565b611b4d565b6040516020016118db9190613137565b6040516020818303038152906040526118fd565b6118fd6118c6600284612daa565b92915050565b60606000611912836002612dbe565b61191d906002612d68565b67ffffffffffffffff81111561193557611935611d7b565b6040519080825280601f01601f19166020018201604052801561195f576020820181803683370190505b5090507f30000000000000000000000000000000000000000000000000000000000000008160008151811061199657611996613178565b60200101907effffffffffffffffffffffffffffffffffffffffffffffffffffffffffffff1916908160001a9053507f7800000000000000000000000000000000000000000000000000000000000000816001815181106119f9576119f9613178565b60200101907effffffffffffffffffffffffffffffffffffffffffffffffffffffffffffff1916908160001a9053506000611a35846002612dbe565b611a40906001612d68565b90505b6001811115611add577f303132333435363738396162636465660000000000000000000000000000000085600f1660108110611a8157611a81613178565b1a60f81b828281518110611a9757611a97613178565b60200101907effffffffffffffffffffffffffffffffffffffffffffffffffffffffffffff1916908160001a90535060049490941c93611ad6816131a7565b9050611a43565b508315611b46576040517f08c379a000000000000000000000000000000000000000000000000000000000815260206004820181905260248201527f537472696e67733a20686578206c656e67746820696e73756666696369656e7460448201526064016101d5565b9392505050565b60606000611b5a83611c0b565b600101905060008167ffffffffffffffff811115611b7a57611b7a611d7b565b6040519080825280601f01601f191660200182016040528015611ba4576020820181803683370190505b5090508181016020015b7fffffffffffffffffffffffffffffffffffffffffffffffffffffffffffffffff017f3031323334353637383961626364656600000000000000000000000000000000600a86061a8153600a8504945084611bae57509392505050565b6000807a184f03e93ff9f4daa797ed6e38ed64bf6a1f0100000000000000008310611c54577a184f03e93ff9f4daa797ed6e38ed64bf6a1f010000000000000000830492506040015b6d04ee2d6d415b85acef81000000008310611c80576d04ee2d6d415b85acef8100000000830492506020015b662386f26fc100008310611c9e57662386f26fc10000830492506010015b6305f5e1008310611cb6576305f5e100830492506008015b6127108310611cca57612710830492506004015b60648310611cdc576064830492506002015b600a83106118fd5760010192915050565b600060208284031215611cff57600080fd5b5035919050565b60005b83811015611d21578181015183820152602001611d09565b50506000910152565b6020815260008251806020840152611d49816040850160208701611d06565b601f017fffffffffffffffffffffffffffffffffffffffffffffffffffffffffffffffe0169190910160400192915050565b7f4e487b7100000000000000000000000000000000000000000000000000000000600052604160045260246000fd5b604051610160810167ffffffffffffffff81118282101715611dce57611dce611d7b565b60405290565b805173ffffffffffffffffffffffffffffffffffffffff81168114611df857600080fd5b919050565b60006101608284031215611e1057600080fd5b611e18611daa565b611e2183611dd4565b815260208301516020820152611e3960408401611dd4565b6040820152606083015160608201526080830151608082015260a083015160a082015260c083015160c082015260e083015160e08201526101008084015181830152506101208084015181830152506101408084015181830152508091505092915050565b60008151611eb0818560208601611d06565b9290920192915050565b7f7b226e616d65223a220000000000000000000000000000000000000000000000815260008451611ef2816009850160208901611d06565b7f222c20226465736372697074696f6e223a2200000000000000000000000000006009918401918201528451611f2f81601b840160208901611d06565b7f222c2022696d616765223a202200000000000000000000000000000000000000601b92909101918201527f646174613a696d6167652f7376672b786d6c3b6261736536342c00000000000060288201528351611f93816042840160208801611d06565b7f227d0000000000000000000000000000000000000000000000000000000000006042929091019182015260440195945050505050565b7f646174613a6170706c69636174696f6e2f6a736f6e3b6261736536342c00000081526000825161200281601d850160208701611d06565b91909101601d0192915050565b60006020828403121561202157600080fd5b815160ff81168114611b4657600080fd5b815173ffffffffffffffffffffffffffffffffffffffff1681526101608101602083015160208301526040830151612082604084018273ffffffffffffffffffffffffffffffffffffffff169052565b50606083015160608301526080830151608083015260a083015160a083015260c083015160c083015260e083015160e083015261010080840151818401525061012080840151818401525061014080840151818401525092915050565b6000602082840312156120f157600080fd5b611b4682611dd4565b60006020828403121561210c57600080fd5b815167ffffffffffffffff8082111561212457600080fd5b818401915084601f83011261213857600080fd5b81518181111561214a5761214a611d7b565b604051601f82017fffffffffffffffffffffffffffffffffffffffffffffffffffffffffffffffe0908116603f0116810190838211818310171561219057612190611d7b565b816040528281528760208487010111156121a957600080fd5b6121ba836020830160208801611d06565b979650505050505050565b600086516121d7818460208b01611d06565b8651908301906121eb818360208b01611d06565b86519101906121fe818360208a01611d06565b7f780000000000000000000000000000000000000000000000000000000000000091019081528451612237816001840160208901611d06565b7f2f00000000000000000000000000000000000000000000000000000000000000600192909101918201528351612275816002840160208801611d06565b01600201979650505050505050565b60008651612296818460208b01611d06565b80830190507f200000000000000000000000000000000000000000000000000000000000000080825287516122d2816001850160208c01611d06565b8083019250507f780000000000000000000000000000000000000000000000000000000000000060018301528060028301528651612317816003850160208b01611d06565b7f2f00000000000000000000000000000000000000000000000000000000000000600393909101928301528551612355816004850160208a01611d06565b60049201918201527f280000000000000000000000000000000000000000000000000000000000000060058201528351612396816006840160208801611d06565b61027d6006828401017f2900000000000000000000000000000000000000000000000000000000000000815260010190565b7f3c7376672077696474683d2231343822206865696768743d223133372220766981527f6577426f783d223020302031343820313337222066696c6c3d226e6f6e65222060208201527f786d6c6e733d22687474703a2f2f7777772e77332e6f72672f323030302f737660408201527f67223e000000000000000000000000000000000000000000000000000000000060608201527f3c7061746820643d224d38302e30353337203130382e313833563133362e333160638201527f483056304838342e31353738433131342e3138312030203134372e313239203260838201527f332e35203134372e3132392036392e32333639483131392e303031433131392e60a38201527f3030312034372e35203130332e3638312032392e303330312038342e3135373860c38201527f2032392e303330314832382e37313037563130382e3138334838302e3035333760e38201527f5a222066696c6c3d2223303141374641222f3e000000000000000000000000006101038201527f3c6d61736b2069643d22706174682d322d696e736964652d315f3136345f31336101168201527f313833222066696c6c3d227768697465223e00000000000000000000000000006101368201527f3c706174682066696c6c2d72756c653d226576656e6f64642220636c69702d726101488201527f756c653d226576656e6f64642220643d224d35362e3235352035312e393237376101688201527f4838382e373039385637372e303534384c3130352e3437332039302e383733356101888201527f483134372e313238563133362e33314839392e353238315639392e333930354c6101a88201527f38312e3332322038342e333832354835362e3235355635312e393237375a222f6101c88201527f3e000000000000000000000000000000000000000000000000000000000000006101e88201527f3c2f6d61736b3e000000000000000000000000000000000000000000000000006101e982015260006118fd612d106127986101f085017f3c706174682066696c6c2d72756c653d226576656e6f64642220636c69702d7281527f756c653d226576656e6f64642220643d224d35362e3235352035312e3932373760208201527f4838382e373039385637372e303534384c3130352e3437332039302e3837333560408201527f483134372e313238563133362e33314839392e353238315639392e333930354c60608201527f38312e3332322038342e333832354835362e3235355635312e393237375a222060808201527f66696c6c3d2223463246324632222f3e0000000000000000000000000000000060a082015260b00190565b7f3c7061746820643d224d38382e373039382035312e393237374838392e32303981527f385635312e343237374838382e373039385635312e393237375a4d35362e323560208201527f352035312e393237375635312e343237374835352e3735355635312e3932373760408201527f4835362e3235355a4d38382e373039382037372e303534384838382e3230393860608201527f5637372e323930364c38382e333931382037372e343430364c38382e3730393860808201527f2037372e303534385a4d3130352e3437332039302e383733354c3130352e313560a08201527f352039312e323539334c3130352e3239342039312e33373335483130352e343760c08201527f335639302e383733355a4d3134372e3132382039302e38373335483134372e3660e08201527f32385639302e33373335483134372e3132385639302e383733355a4d3134372e6101008201527f313238203133362e3331563133362e3831483134372e363238563133362e33316101208201527f483134372e3132385a4d39392e35323831203133362e33314839392e303238316101408201527f563133362e38314839392e35323831563133362e33315a4d39392e35323831206101608201527f39392e33393035483130302e3032385639392e313534374c39392e38343631206101808201527f39392e303034374c39392e353238312039392e333930355a4d38312e333232206101a08201527f38342e333832354c38312e36342038332e393936374c38312e353031352038336101c08201527f2e383832354838312e3332325638342e333832355a4d35362e3235352038342e6101e08201527f333832354835352e3735355638342e383832354835362e3235355638342e33386102008201527f32355a4d38382e373039382035312e343237374835362e3235355635322e34326102208201527f37374838382e373039385635312e343237375a4d38392e323039382037372e306102408201527f3534385635312e393237374838382e323039385637372e303534384838392e326102608201527f3039385a4d38382e333931382037372e343430364c3130352e3135352039312e6102808201527f323539334c3130352e3739312039302e343837374c38392e303237392037362e6102a08201527f3636394c38382e333931382037372e343430365a4d3134372e3132382039302e6102c08201527f33373335483130352e3437335639312e33373335483134372e3132385639302e6102e08201527f333733355a4d3134372e363238203133362e33315639302e38373335483134366103008201527f2e363238563133362e3331483134372e3632385a4d39392e35323831203133366103208201527f2e3831483134372e313238563133352e38314839392e35323831563133362e386103408201527f315a4d39392e303238312039392e33393035563133362e3331483130302e30326103608201527f385639392e333930354839392e303238315a4d39392e383436312039392e30306103808201527f34374c38312e36342038332e393936374c38312e303033392038342e373638346103a08201527f4c39392e32312039392e373736334c39392e383436312039392e303034375a4d6103c08201527f35362e3235352038342e383832354838312e3332325638332e383832354835366103e08201527f2e3235355638342e383832355a4d35352e3735352035312e393237375638342e6104008201527f333832354835362e3735355635312e393237374835352e3735355a222066696c6104208201527f6c3d222330314137464122206d61736b3d2275726c2823706174682d322d696e6104408201527f736964652d315f3136345f313331383329222f3e0000000000000000000000006104608201526104740190565b7f3c2f7376673e0000000000000000000000000000000000000000000000000000815260060190565b7f4e487b7100000000000000000000000000000000000000000000000000000000600052601160045260246000fd5b808201808211156118fd576118fd612d39565b7f4e487b7100000000000000000000000000000000000000000000000000000000600052601260045260246000fd5b600082612db957612db9612d7b565b500490565b80820281158282048414176118fd576118fd612d39565b7f54686973206973206120446572697661626c65204c697175696469747920507281527f6f766964657220746f6b656e20666f7220746865200000000000000000000000602082015260008651612e33816035850160208b01611d06565b7f2f000000000000000000000000000000000000000000000000000000000000006035918401918201528651612e70816036840160208b01611d06565b8082019150507f20000000000000000000000000000000000000000000000000000000000000008060368301527f780000000000000000000000000000000000000000000000000000000000000060378301528651612ed6816038850160208b01611d06565b60389201918201527f706f6f6c206174200000000000000000000000000000000000000000000000006039820152612f9e612f75612f6f612f46612f1d604186018a611e9e565b7f2000000000000000000000000000000000000000000000000000000000000000815260010190565b7f7769746820000000000000000000000000000000000000000000000000000000815260050190565b86611e9e565b7f20617320746865207265736572766520746f6b656e2e00000000000000000000815260160190565b98975050505050505050565b7f546869732066756e6769626c6520746f6b656e20726570726573656e7473206181527f20446572697661626c652000000000000000000000000000000000000000000060208201526000875161300881602b850160208c01611d06565b7f2078000000000000000000000000000000000000000000000000000000000000602b91840191820152875161304581602d840160208c01611d06565b7f2000000000000000000000000000000000000000000000000000000000000000602d92909101918201527f706f736974696f6e20666f722074686520000000000000000000000000000000602e82015286516130a981603f840160208b01611d06565b7f2f00000000000000000000000000000000000000000000000000000000000000603f929091019182015261027d612f75612f6f612f46612f1d61311d6130f482604089018e611e9e565b7f706f6f6c20617420000000000000000000000000000000000000000000000000815260080190565b8a611e9e565b60008261313257613132612d7b565b500690565b60008251613149818460208701611d06565b7f2e35000000000000000000000000000000000000000000000000000000000000920191825250600201919050565b7f4e487b7100000000000000000000000000000000000000000000000000000000600052603260045260246000fd5b6000816131b6576131b6612d39565b507fffffffffffffffffffffffffffffffffffffffffffffffffffffffffffffffff019056fe4142434445464748494a4b4c4d4e4f505152535455565758595a6162636465666768696a6b6c6d6e6f707172737475767778797a303132333435363738392b2fa2646970667358221220eb5cbf4e074951cab956b4749be4c41f1036bbe8a6768b19101419fcc2784d0064736f6c63430008140033",
  "linkReferences": {},
  "deployedLinkReferences": {}
}