{
  "_format": "hh-sol-artifact-1",
  "contractName": "Token",
  "sourceName": "contracts/Token.sol",
  "abi": [
    {
      "inputs": [
        {
          "internalType": "address",
          "name": "utr",
          "type": "address"
        },
        {
          "internalType": "address",
          "name": "descriptorSetter",
          "type": "address"
        },
        {
          "internalType": "address",
          "name": "descriptor",
          "type": "address"
        }
      ],
      "stateMutability": "nonpayable",
      "type": "constructor"
    },
    {
      "anonymous": false,
      "inputs": [
        {
          "indexed": true,
          "internalType": "address",
          "name": "account",
          "type": "address"
        },
        {
          "indexed": true,
          "internalType": "address",
          "name": "operator",
          "type": "address"
        },
        {
          "indexed": false,
          "internalType": "bool",
          "name": "approved",
          "type": "bool"
        }
      ],
      "name": "ApprovalForAll",
      "type": "event"
    },
    {
      "anonymous": false,
      "inputs": [
        {
          "indexed": true,
          "internalType": "address",
          "name": "operator",
          "type": "address"
        },
        {
          "indexed": true,
          "internalType": "address",
          "name": "from",
          "type": "address"
        },
        {
          "indexed": true,
          "internalType": "address",
          "name": "to",
          "type": "address"
        },
        {
          "indexed": false,
          "internalType": "uint256[]",
          "name": "ids",
          "type": "uint256[]"
        },
        {
          "indexed": false,
          "internalType": "uint256[]",
          "name": "values",
          "type": "uint256[]"
        }
      ],
      "name": "TransferBatch",
      "type": "event"
    },
    {
      "anonymous": false,
      "inputs": [
        {
          "indexed": true,
          "internalType": "address",
          "name": "operator",
          "type": "address"
        },
        {
          "indexed": true,
          "internalType": "address",
          "name": "from",
          "type": "address"
        },
        {
          "indexed": true,
          "internalType": "address",
          "name": "to",
          "type": "address"
        },
        {
          "indexed": false,
          "internalType": "uint256",
          "name": "id",
          "type": "uint256"
        },
        {
          "indexed": false,
          "internalType": "uint256",
          "name": "value",
          "type": "uint256"
        }
      ],
      "name": "TransferSingle",
      "type": "event"
    },
    {
      "anonymous": false,
      "inputs": [
        {
          "indexed": false,
          "internalType": "string",
          "name": "value",
          "type": "string"
        },
        {
          "indexed": true,
          "internalType": "uint256",
          "name": "id",
          "type": "uint256"
        }
      ],
      "name": "URI",
      "type": "event"
    },
    {
      "inputs": [
        {
          "internalType": "address",
          "name": "account",
          "type": "address"
        },
        {
          "internalType": "uint256",
          "name": "id",
          "type": "uint256"
        }
      ],
      "name": "balanceOf",
      "outputs": [
        {
          "internalType": "uint256",
          "name": "",
          "type": "uint256"
        }
      ],
      "stateMutability": "view",
      "type": "function"
    },
    {
      "inputs": [
        {
          "internalType": "address[]",
          "name": "owners",
          "type": "address[]"
        },
        {
          "internalType": "uint256[]",
          "name": "ids",
          "type": "uint256[]"
        }
      ],
      "name": "balanceOfBatch",
      "outputs": [
        {
          "internalType": "uint256[]",
          "name": "balances",
          "type": "uint256[]"
        }
      ],
      "stateMutability": "view",
      "type": "function"
    },
    {
      "inputs": [
        {
          "internalType": "address",
          "name": "from",
          "type": "address"
        },
        {
          "internalType": "uint256",
          "name": "id",
          "type": "uint256"
        },
        {
          "internalType": "uint256",
          "name": "amount",
          "type": "uint256"
        }
      ],
      "name": "burn",
      "outputs": [],
      "stateMutability": "nonpayable",
      "type": "function"
    },
    {
      "inputs": [
        {
          "internalType": "uint256",
          "name": "id",
          "type": "uint256"
        }
      ],
      "name": "computeShadowAddress",
      "outputs": [
        {
          "internalType": "address",
          "name": "pool",
          "type": "address"
        }
      ],
      "stateMutability": "view",
      "type": "function"
    },
    {
      "inputs": [
        {
          "internalType": "uint256",
          "name": "id",
          "type": "uint256"
        }
      ],
      "name": "deployShadow",
      "outputs": [
        {
          "internalType": "address",
          "name": "shadowToken",
          "type": "address"
        }
      ],
      "stateMutability": "nonpayable",
      "type": "function"
    },
    {
      "inputs": [
        {
          "internalType": "uint256",
          "name": "id",
          "type": "uint256"
        }
      ],
      "name": "getShadowDecimals",
      "outputs": [
        {
          "internalType": "uint8",
          "name": "",
          "type": "uint8"
        }
      ],
      "stateMutability": "view",
      "type": "function"
    },
    {
      "inputs": [
        {
          "internalType": "uint256",
          "name": "id",
          "type": "uint256"
        }
      ],
      "name": "getShadowName",
      "outputs": [
        {
          "internalType": "string",
          "name": "",
          "type": "string"
        }
      ],
      "stateMutability": "view",
      "type": "function"
    },
    {
      "inputs": [
        {
          "internalType": "uint256",
          "name": "id",
          "type": "uint256"
        }
      ],
      "name": "getShadowSymbol",
      "outputs": [
        {
          "internalType": "string",
          "name": "",
          "type": "string"
        }
      ],
      "stateMutability": "view",
      "type": "function"
    },
    {
      "inputs": [
        {
          "internalType": "address",
          "name": "account",
          "type": "address"
        },
        {
          "internalType": "address",
          "name": "operator",
          "type": "address"
        }
      ],
      "name": "isApprovedForAll",
      "outputs": [
        {
          "internalType": "bool",
          "name": "",
          "type": "bool"
        }
      ],
      "stateMutability": "view",
      "type": "function"
    },
    {
      "inputs": [
        {
          "internalType": "address",
          "name": "account",
          "type": "address"
        },
        {
          "internalType": "uint256",
          "name": "id",
          "type": "uint256"
        }
      ],
      "name": "maturityOf",
      "outputs": [
        {
          "internalType": "uint256",
          "name": "",
          "type": "uint256"
        }
      ],
      "stateMutability": "view",
      "type": "function"
    },
    {
      "inputs": [
        {
          "internalType": "address[]",
          "name": "accounts",
          "type": "address[]"
        },
        {
          "internalType": "uint256[]",
          "name": "ids",
          "type": "uint256[]"
        }
      ],
      "name": "maturityOfBatch",
      "outputs": [
        {
          "internalType": "uint256[]",
          "name": "",
          "type": "uint256[]"
        }
      ],
      "stateMutability": "view",
      "type": "function"
    },
    {
      "inputs": [
        {
          "internalType": "address",
          "name": "to",
          "type": "address"
        },
        {
          "internalType": "uint256",
          "name": "id",
          "type": "uint256"
        },
        {
          "internalType": "uint256",
          "name": "amount",
          "type": "uint256"
        },
        {
          "internalType": "uint32",
          "name": "maturity",
          "type": "uint32"
        },
        {
          "internalType": "bytes",
          "name": "data",
          "type": "bytes"
        }
      ],
      "name": "mint",
      "outputs": [],
      "stateMutability": "nonpayable",
      "type": "function"
    },
    {
      "inputs": [],
      "name": "name",
      "outputs": [
        {
          "internalType": "string",
          "name": "",
          "type": "string"
        }
      ],
      "stateMutability": "pure",
      "type": "function"
    },
    {
      "inputs": [
        {
          "internalType": "address",
          "name": "from",
          "type": "address"
        },
        {
          "internalType": "address",
          "name": "to",
          "type": "address"
        },
        {
          "internalType": "uint256[]",
          "name": "ids",
          "type": "uint256[]"
        },
        {
          "internalType": "uint256[]",
          "name": "amounts",
          "type": "uint256[]"
        },
        {
          "internalType": "bytes",
          "name": "data",
          "type": "bytes"
        }
      ],
      "name": "safeBatchTransferFrom",
      "outputs": [],
      "stateMutability": "nonpayable",
      "type": "function"
    },
    {
      "inputs": [
        {
          "internalType": "address",
          "name": "from",
          "type": "address"
        },
        {
          "internalType": "address",
          "name": "to",
          "type": "address"
        },
        {
          "internalType": "uint256",
          "name": "id",
          "type": "uint256"
        },
        {
          "internalType": "uint256",
          "name": "amount",
          "type": "uint256"
        },
        {
          "internalType": "bytes",
          "name": "data",
          "type": "bytes"
        }
      ],
      "name": "safeTransferFrom",
      "outputs": [],
      "stateMutability": "nonpayable",
      "type": "function"
    },
    {
      "inputs": [
        {
          "internalType": "address",
          "name": "from",
          "type": "address"
        },
        {
          "internalType": "address",
          "name": "to",
          "type": "address"
        },
        {
          "internalType": "uint256",
          "name": "id",
          "type": "uint256"
        },
        {
          "internalType": "uint256",
          "name": "amount",
          "type": "uint256"
        }
      ],
      "name": "safeTransferFromByShadow",
      "outputs": [],
      "stateMutability": "nonpayable",
      "type": "function"
    },
    {
      "inputs": [
        {
          "internalType": "address",
          "name": "operator",
          "type": "address"
        },
        {
          "internalType": "bool",
          "name": "approved",
          "type": "bool"
        }
      ],
      "name": "setApprovalForAll",
      "outputs": [],
      "stateMutability": "nonpayable",
      "type": "function"
    },
    {
      "inputs": [
        {
          "internalType": "address",
          "name": "descriptor",
          "type": "address"
        }
      ],
      "name": "setDescriptor",
      "outputs": [],
      "stateMutability": "nonpayable",
      "type": "function"
    },
    {
      "inputs": [
        {
          "internalType": "address",
          "name": "setter",
          "type": "address"
        }
      ],
      "name": "setDescriptorSetter",
      "outputs": [],
      "stateMutability": "nonpayable",
      "type": "function"
    },
    {
      "inputs": [
        {
          "internalType": "bytes4",
          "name": "interfaceId",
          "type": "bytes4"
        }
      ],
      "name": "supportsInterface",
      "outputs": [
        {
          "internalType": "bool",
          "name": "",
          "type": "bool"
        }
      ],
      "stateMutability": "view",
      "type": "function"
    },
    {
      "inputs": [],
      "name": "symbol",
      "outputs": [
        {
          "internalType": "string",
          "name": "",
          "type": "string"
        }
      ],
      "stateMutability": "pure",
      "type": "function"
    },
    {
      "inputs": [
        {
          "internalType": "uint256",
          "name": "id",
          "type": "uint256"
        }
      ],
      "name": "totalSupply",
      "outputs": [
        {
          "internalType": "uint256",
          "name": "",
          "type": "uint256"
        }
      ],
      "stateMutability": "view",
      "type": "function"
    },
    {
      "inputs": [
        {
          "internalType": "uint256",
          "name": "tokenId",
          "type": "uint256"
        }
      ],
      "name": "uri",
      "outputs": [
        {
          "internalType": "string",
          "name": "",
          "type": "string"
        }
      ],
      "stateMutability": "view",
      "type": "function"
    }
  ],
  "bytecode": "0x60c06040523480156200001157600080fd5b50604051620041ec380380620041ec833981016040819052620000349162000110565b604080516020810190915260008152806200004f81620000d3565b506000801b306040516200006390620000e5565b6001600160a01b0390911681526020018190604051809103906000f590508015801562000094573d6000803e3d6000fd5b506001600160a01b0390811660805293841660a05250600480549184166001600160a01b031992831617905560058054929093169116179055620002cb565b6003620000e18282620001ff565b5050565b6113b18062002e3b83390190565b80516001600160a01b03811681146200010b57600080fd5b919050565b6000806000606084860312156200012657600080fd5b6200013184620000f3565b92506200014160208501620000f3565b91506200015160408501620000f3565b90509250925092565b634e487b7160e01b600052604160045260246000fd5b600181811c908216806200018557607f821691505b602082108103620001a657634e487b7160e01b600052602260045260246000fd5b50919050565b601f821115620001fa57600081815260208120601f850160051c81016020861015620001d55750805b601f850160051c820191505b81811015620001f657828155600101620001e1565b5050505b505050565b81516001600160401b038111156200021b576200021b6200015a565b62000233816200022c845462000170565b84620001ac565b602080601f8311600181146200026b5760008415620002525750858301515b600019600386901b1c1916600185901b178555620001f6565b600085815260208120601f198616915b828110156200029c578886015182559484019460019091019084016200027b565b5085821015620002bb5787850151600019600388901b60f8161c191681555b5050505050600190811b01905550565b60805160a051612b43620002f8600039600061127a01526000818161075101526110ed0152612b436000f3fe608060405234801561001057600080fd5b506004361061018c5760003560e01c80634e1273f4116100e3578063bd85b0391161008c578063e985e9c511610066578063e985e9c5146103d8578063f242432a146103eb578063f5298aca146103fe57600080fd5b8063bd85b03914610392578063cb263dc6146103b2578063e47dd0a1146103c557600080fd5b8063a22cb465116100bd578063a22cb46514610359578063a5630b841461036c578063b0e069be1461037f57600080fd5b80634e1273f4146102fa57806353b612c01461030d57806395d89b411461032057600080fd5b806313dd3ebf116101455780632eb2c2d61161011f5780632eb2c2d6146102b45780633c8cb4ef146102c75780633e5bd429146102da57600080fd5b806313dd3ebf1461024457806318aa539214610257578063228e1a181461028f57600080fd5b806301ffc9a71161017657806301ffc9a7146101cc57806306fdde03146101ef5780630e89341c1461023157600080fd5b8062fdd58e1461019157806301b9a397146101b7575b600080fd5b6101a461019f366004612033565b610411565b6040519081526020015b60405180910390f35b6101ca6101c536600461205d565b610468565b005b6101df6101da3660046120a9565b610535565b60405190151581526020016101ae565b60408051808201909152601281527f446572697661626c6520506f736974696f6e000000000000000000000000000060208201525b6040516101ae9190612134565b61022461023f366004612147565b610616565b610224610252366004612147565b6106cf565b61026a610265366004612147565b610729565b60405173ffffffffffffffffffffffffffffffffffffffff90911681526020016101ae565b6102a261029d366004612147565b6107bf565b60405160ff90911681526020016101ae565b6101ca6102c23660046121e7565b610855565b6101ca6102d5366004612362565b610c2f565b6102ed6102e83660046124bd565b610cca565b6040516101ae91906125c3565b6102ed6103083660046125d6565b610dfc565b6101ca61031b36600461205d565b610f2d565b60408051808201909152600d81527f444552495641424c452d504f53000000000000000000000000000000000000006020820152610224565b6101ca610367366004612642565b610ff5565b61022461037a366004612147565b61108c565b61026a61038d366004612147565b6110e6565b6101a46103a0366004612147565b60009081526002602052604090205490565b6101a46103c0366004612033565b611196565b6101ca6103d336600461267e565b6111cd565b6101df6103e63660046126c0565b611276565b6101ca6103f93660046126f3565b611308565b6101ca61040c36600461276b565b611457565b73ffffffffffffffffffffffffffffffffffffffff82166000908152602081815260408083208484529091528120547bffffffffffffffffffffffffffffffffffffffffffffffffffffffff165b90505b92915050565b60055473ffffffffffffffffffffffffffffffffffffffff1633146104ee576040517f08c379a000000000000000000000000000000000000000000000000000000000815260206004820152600c60248201527f554e415554484f52495a4544000000000000000000000000000000000000000060448201526064015b60405180910390fd5b600480547fffffffffffffffffffffffff00000000000000000000000000000000000000001673ffffffffffffffffffffffffffffffffffffffff92909216919091179055565b60007f01ffc9a7000000000000000000000000000000000000000000000000000000007fffffffff00000000000000000000000000000000000000000000000000000000831614806105c857507fd9b67a26000000000000000000000000000000000000000000000000000000007fffffffff000000000000000000000000000000000000000000000000000000008316145b806104625750507fffffffff00000000000000000000000000000000000000000000000000000000167f0e89341c000000000000000000000000000000000000000000000000000000001490565b600480546040517fb9257a8100000000000000000000000000000000000000000000000000000000815291820183905260609173ffffffffffffffffffffffffffffffffffffffff9091169063b9257a81906024015b600060405180830381865afa158015610689573d6000803e3d6000fd5b505050506040513d6000823e601f3d9081017fffffffffffffffffffffffffffffffffffffffffffffffffffffffffffffffe0168201604052610462919081019061279e565b600480546040517f6418413c00000000000000000000000000000000000000000000000000000000815291820183905260609173ffffffffffffffffffffffffffffffffffffffff90911690636418413c9060240161066c565b6040517f600b380380600b3d393df3363d3d373d3d3d3d60368038038091363936013d7381527f000000000000000000000000000000000000000000000000000000000000000060601b60208201527f5af43d3d93803e603457fd5bf300000000000000000000000000000000000000603482015260418101829052606190206000906107b8600082306114e8565b9392505050565b600480546040517fff42fe1800000000000000000000000000000000000000000000000000000000815291820183905260009173ffffffffffffffffffffffffffffffffffffffff9091169063ff42fe1890602401602060405180830381865afa158015610831573d6000803e3d6000fd5b505050506040513d601f19601f820116820180604052508101906104629190612820565b73ffffffffffffffffffffffffffffffffffffffff87166108d2576040517f08c379a000000000000000000000000000000000000000000000000000000000815260206004820152600e60248201527f5a45524f5f524543495049454e5400000000000000000000000000000000000060448201526064016104e5565b8483811461093c576040517f08c379a000000000000000000000000000000000000000000000000000000000815260206004820152600f60248201527f4c454e4754485f4d49534d41544348000000000000000000000000000000000060448201526064016104e5565b3373ffffffffffffffffffffffffffffffffffffffff8a16148061096557506109658933611276565b6109cb576040517f08c379a000000000000000000000000000000000000000000000000000000000815260206004820152600e60248201527f4e4f545f415554484f52495a454400000000000000000000000000000000000060448201526064016104e5565b6000805b82811015610afc578888828181106109e9576109e9612843565b9050602002013591506000610a6e888884818110610a0957610a09612843565b905060200201356000808f73ffffffffffffffffffffffffffffffffffffffff1673ffffffffffffffffffffffffffffffffffffffff16815260200190815260200160002060008681526020019081526020016000205461151290919063ffffffff16565b73ffffffffffffffffffffffffffffffffffffffff808f16600090815260208181526040808320898452825280832095909555918f1681528082528381208782529091529190912054909150610ac490826115e4565b73ffffffffffffffffffffffffffffffffffffffff8c16600090815260208181526040808320878452909152902055506001016109cf565b508873ffffffffffffffffffffffffffffffffffffffff168a73ffffffffffffffffffffffffffffffffffffffff163373ffffffffffffffffffffffffffffffffffffffff167f4a39dc06d4c0dbc64b70af90fd698a233a518aa5d07e595d983b8c0526c8f7fb8b8b8b8b604051610b7794939291906128bd565b60405180910390a4610c23338b8b8b8b8080602002602001604051908101604052809392919081815260200183836020028082843760009201919091525050604080516020808f0282810182019093528e82529093508e92508d91829185019084908082843760009201919091525050604080516020601f8e018190048102820181019092528c815292508c91508b908190840183828082843760009201919091525061171592505050565b50505050505050505050565b833373ffffffffffffffffffffffffffffffffffffffff821614610caf576040517f08c379a000000000000000000000000000000000000000000000000000000000815260206004820152601660248201527f554e415554484f52495a45445f4d494e545f4255524e0000000000000000000060448201526064016104e5565b610cc28686868663ffffffff168661195c565b505050505050565b60608151835114610d37576040517f08c379a000000000000000000000000000000000000000000000000000000000815260206004820152600f60248201527f4c454e4754485f4d49534d41544348000000000000000000000000000000000060448201526064016104e5565b6000835167ffffffffffffffff811115610d5357610d536122a2565b604051908082528060200260200182016040528015610d7c578160200160208202803683370190505b50905060005b8451811015610df457610dc7858281518110610da057610da0612843565b6020026020010151858381518110610dba57610dba612843565b6020026020010151611196565b828281518110610dd957610dd9612843565b6020908102919091010152610ded8161291e565b9050610d82565b509392505050565b6060838214610e67576040517f08c379a000000000000000000000000000000000000000000000000000000000815260206004820152600f60248201527f4c454e4754485f4d49534d41544348000000000000000000000000000000000060448201526064016104e5565b8367ffffffffffffffff811115610e8057610e806122a2565b604051908082528060200260200182016040528015610ea9578160200160208202803683370190505b50905060005b84811015610f2457610eff868683818110610ecc57610ecc612843565b9050602002016020810190610ee1919061205d565b858584818110610ef357610ef3612843565b90506020020135610411565b828281518110610f1157610f11612843565b6020908102919091010152600101610eaf565b50949350505050565b60055473ffffffffffffffffffffffffffffffffffffffff163314610fae576040517f08c379a000000000000000000000000000000000000000000000000000000000815260206004820152600c60248201527f554e415554484f52495a4544000000000000000000000000000000000000000060448201526064016104e5565b600580547fffffffffffffffffffffffff00000000000000000000000000000000000000001673ffffffffffffffffffffffffffffffffffffffff92909216919091179055565b33600081815260016020908152604080832073ffffffffffffffffffffffffffffffffffffffff87168085529083529281902080547fffffffffffffffffffffffffffffffffffffffffffffffffffffffffffffff001686151590811790915590519081529192917f17307eab39ab6107e8899845ad3d59bd9653f200f220920489ca2b5937696c31910160405180910390a35050565b600480546040517f6b8ff57400000000000000000000000000000000000000000000000000000000815291820183905260609173ffffffffffffffffffffffffffffffffffffffff90911690636b8ff5749060240161066c565b60006111127f000000000000000000000000000000000000000000000000000000000000000083611ad4565b905073ffffffffffffffffffffffffffffffffffffffff8116611191576040517f08c379a000000000000000000000000000000000000000000000000000000000815260206004820152601f60248201527f536861646f77466163746f72793a204661696c6564206f6e206465706c6f790060448201526064016104e5565b919050565b73ffffffffffffffffffffffffffffffffffffffff821660009081526020818152604080832084845290915281205460e01c61045f565b8160006111d982610729565b90503373ffffffffffffffffffffffffffffffffffffffff82161461125a576040517f08c379a000000000000000000000000000000000000000000000000000000000815260206004820152601460248201527f536861646f773a20554e415554484f52495a454400000000000000000000000060448201526064016104e5565b610cc28686868660405180602001604052806000815250611b48565b60007f000000000000000000000000000000000000000000000000000000000000000073ffffffffffffffffffffffffffffffffffffffff168273ffffffffffffffffffffffffffffffffffffffff16148061045f575073ffffffffffffffffffffffffffffffffffffffff80841660009081526001602090815260408083209386168352929052205460ff1661045f565b73ffffffffffffffffffffffffffffffffffffffff8516611385576040517f08c379a000000000000000000000000000000000000000000000000000000000815260206004820152600e60248201527f5a45524f5f524543495049454e5400000000000000000000000000000000000060448201526064016104e5565b3373ffffffffffffffffffffffffffffffffffffffff871614806113ae57506113ae8633611276565b611414576040517f08c379a000000000000000000000000000000000000000000000000000000000815260206004820152600e60248201527f4e4f545f415554484f52495a454400000000000000000000000000000000000060448201526064016104e5565b610cc28686868686868080601f016020809104026020016040519081016040528093929190818152602001838380828437600092019190915250611b4892505050565b813373ffffffffffffffffffffffffffffffffffffffff8216146114d7576040517f08c379a000000000000000000000000000000000000000000000000000000000815260206004820152601660248201527f554e415554484f52495a45445f4d494e545f4255524e0000000000000000000060448201526064016104e5565b6114e2848484611c58565b50505050565b6000604051836040820152846020820152828152600b8101905060ff815360559020949350505050565b6000807bffffffffffffffffffffffffffffffffffffffffffffffffffffffff84168381036115485760008592509250506115dd565b8381116115b1576040517f08c379a000000000000000000000000000000000000000000000000000000000815260206004820152601460248201527f494e53554646494349454e545f42414c414e434500000000000000000000000060448201526064016104e5565b5050508082037fffffffff00000000000000000000000000000000000000000000000000000000831682175b9250929050565b6000826000036115f5575080610462565b60006116054260e086901c611d3b565b905060e083901c81811115611676576040517f08c379a000000000000000000000000000000000000000000000000000000000815260206004820152600e60248201527f4d415455524954595f4f5244455200000000000000000000000000000000000060448201526064016104e5565b7bffffffffffffffffffffffffffffffffffffffffffffffffffffffff848116908681169081830190811115611708576040517f08c379a000000000000000000000000000000000000000000000000000000000815260206004820152601460248201527f4e45575f42414c414e43455f4f564552464c4f5700000000000000000000000060448201526064016104e5565b5050909401949350505050565b73ffffffffffffffffffffffffffffffffffffffff84163b15610cc2576040517fbc197c8100000000000000000000000000000000000000000000000000000000815273ffffffffffffffffffffffffffffffffffffffff85169063bc197c819061178c9089908990889088908890600401612956565b6020604051808303816000875af19250505080156117e5575060408051601f3d9081017fffffffffffffffffffffffffffffffffffffffffffffffffffffffffffffffe01682019092526117e2918101906129c1565b60015b6118a8576117f16129de565b806308c379a00361184457506118056129fa565b806118105750611846565b806040517f08c379a00000000000000000000000000000000000000000000000000000000081526004016104e59190612134565b505b6040517f08c379a000000000000000000000000000000000000000000000000000000000815260206004820152600c60248201527f4e4f4e5f5245434549564552000000000000000000000000000000000000000060448201526064016104e5565b7fffffffff0000000000000000000000000000000000000000000000000000000081167fbc197c810000000000000000000000000000000000000000000000000000000014611953576040517f08c379a000000000000000000000000000000000000000000000000000000000815260206004820152601160248201527f52454345495645525f52454a454354454400000000000000000000000000000060448201526064016104e5565b50505050505050565b73ffffffffffffffffffffffffffffffffffffffff85166119d9576040517f08c379a000000000000000000000000000000000000000000000000000000000815260206004820152600e60248201527f5a45524f5f524543495049454e5400000000000000000000000000000000000060448201526064016104e5565b60006119e58484611d51565b73ffffffffffffffffffffffffffffffffffffffff8716600090815260208181526040808320898452909152902054909150611a2190826115e4565b73ffffffffffffffffffffffffffffffffffffffff8716600090815260208181526040808320898452825280832093909355600290529081208054869290611a6a908490612aa2565b9091555050604080518681526020810186905273ffffffffffffffffffffffffffffffffffffffff88169160009133917fc3d58168c5ae7397731d063d5bbf3d657854427343f4c083240f7aacaa2d0f62910160405180910390a4610cc233600088888887611e4f565b6040517f600b380380600b3d393df3363d3d373d3d3d3d60368038038091363936013d738152606083901b60208201527f5af43d3d93803e603457fd5bf30000000000000000000000000000000000000060348201526041810182905260009060618082019083908382f595945050505050565b73ffffffffffffffffffffffffffffffffffffffff851660009081526020818152604080832086845290915281205490611b828285611512565b73ffffffffffffffffffffffffffffffffffffffff808a166000908152602081815260408083208b8452825280832095909555918a1681528082528381208982529091529190912054909150611bd890826115e4565b73ffffffffffffffffffffffffffffffffffffffff8781166000818152602081815260408083208b84528252918290209490945580518981529384018890529092918a169133917fc3d58168c5ae7397731d063d5bbf3d657854427343f4c083240f7aacaa2d0f62910160405180910390a4611953338888888888611e4f565b73ffffffffffffffffffffffffffffffffffffffff8316600090815260208181526040808320858452909152902054611c919082611512565b5073ffffffffffffffffffffffffffffffffffffffff8416600090815260208181526040808320868452825280832093909355600290529081208054839290611cdb908490612ab5565b9091555050604080518381526020810183905260009173ffffffffffffffffffffffffffffffffffffffff86169133917fc3d58168c5ae7397731d063d5bbf3d657854427343f4c083240f7aacaa2d0f62910160405180910390a4505050565b6000818311611d4a578161045f565b5090919050565b600063ffffffff821115611dc1576040517f08c379a000000000000000000000000000000000000000000000000000000000815260206004820152600d60248201527f54494d455f4f564552464c4f570000000000000000000000000000000000000060448201526064016104e5565b7bffffffffffffffffffffffffffffffffffffffffffffffffffffffff831115611e47576040517f08c379a000000000000000000000000000000000000000000000000000000000815260206004820152601060248201527f42414c414e43455f4f564552464c4f570000000000000000000000000000000060448201526064016104e5565b5060e01b1790565b6000611e5a84610729565b905073ffffffffffffffffffffffffffffffffffffffff81163303611e7f5750610cc2565b61195387878787878773ffffffffffffffffffffffffffffffffffffffff84163b15610cc2576040517ff23a6e6100000000000000000000000000000000000000000000000000000000815273ffffffffffffffffffffffffffffffffffffffff85169063f23a6e6190611eff9089908990889088908890600401612ac8565b6020604051808303816000875af1925050508015611f58575060408051601f3d9081017fffffffffffffffffffffffffffffffffffffffffffffffffffffffffffffffe0168201909252611f55918101906129c1565b60015b611f64576117f16129de565b7fffffffff0000000000000000000000000000000000000000000000000000000081167ff23a6e610000000000000000000000000000000000000000000000000000000014611953576040517f08c379a000000000000000000000000000000000000000000000000000000000815260206004820152601160248201527f52454345495645525f52454a454354454400000000000000000000000000000060448201526064016104e5565b803573ffffffffffffffffffffffffffffffffffffffff8116811461119157600080fd5b6000806040838503121561204657600080fd5b61204f8361200f565b946020939093013593505050565b60006020828403121561206f57600080fd5b61045f8261200f565b7fffffffff00000000000000000000000000000000000000000000000000000000811681146120a657600080fd5b50565b6000602082840312156120bb57600080fd5b81356107b881612078565b60005b838110156120e15781810151838201526020016120c9565b50506000910152565b600081518084526121028160208601602086016120c6565b601f017fffffffffffffffffffffffffffffffffffffffffffffffffffffffffffffffe0169290920160200192915050565b60208152600061045f60208301846120ea565b60006020828403121561215957600080fd5b5035919050565b60008083601f84011261217257600080fd5b50813567ffffffffffffffff81111561218a57600080fd5b6020830191508360208260051b85010111156115dd57600080fd5b60008083601f8401126121b757600080fd5b50813567ffffffffffffffff8111156121cf57600080fd5b6020830191508360208285010111156115dd57600080fd5b60008060008060008060008060a0898b03121561220357600080fd5b61220c8961200f565b975061221a60208a0161200f565b9650604089013567ffffffffffffffff8082111561223757600080fd5b6122438c838d01612160565b909850965060608b013591508082111561225c57600080fd5b6122688c838d01612160565b909650945060808b013591508082111561228157600080fd5b5061228e8b828c016121a5565b999c989b5096995094979396929594505050565b7f4e487b7100000000000000000000000000000000000000000000000000000000600052604160045260246000fd5b7fffffffffffffffffffffffffffffffffffffffffffffffffffffffffffffffe0601f830116810181811067ffffffffffffffff82111715612315576123156122a2565b6040525050565b600067ffffffffffffffff821115612336576123366122a2565b50601f017fffffffffffffffffffffffffffffffffffffffffffffffffffffffffffffffe01660200190565b600080600080600060a0868803121561237a57600080fd5b6123838661200f565b94506020860135935060408601359250606086013563ffffffff811681146123aa57600080fd5b9150608086013567ffffffffffffffff8111156123c657600080fd5b8601601f810188136123d757600080fd5b80356123e28161231c565b6040516123ef82826122d1565b8281528a602084860101111561240457600080fd5b82602085016020830137600060208483010152809450505050509295509295909350565b600067ffffffffffffffff821115612442576124426122a2565b5060051b60200190565b600082601f83011261245d57600080fd5b8135602061246a82612428565b60405161247782826122d1565b83815260059390931b850182019282810191508684111561249757600080fd5b8286015b848110156124b2578035835291830191830161249b565b509695505050505050565b600080604083850312156124d057600080fd5b823567ffffffffffffffff808211156124e857600080fd5b818501915085601f8301126124fc57600080fd5b8135602061250982612428565b60405161251682826122d1565b83815260059390931b850182019282810191508984111561253657600080fd5b948201945b8386101561255b5761254c8661200f565b8252948201949082019061253b565b9650508601359250508082111561257157600080fd5b5061257e8582860161244c565b9150509250929050565b600081518084526020808501945080840160005b838110156125b85781518752958201959082019060010161259c565b509495945050505050565b60208152600061045f6020830184612588565b600080600080604085870312156125ec57600080fd5b843567ffffffffffffffff8082111561260457600080fd5b61261088838901612160565b9096509450602087013591508082111561262957600080fd5b5061263687828801612160565b95989497509550505050565b6000806040838503121561265557600080fd5b61265e8361200f565b91506020830135801515811461267357600080fd5b809150509250929050565b6000806000806080858703121561269457600080fd5b61269d8561200f565b93506126ab6020860161200f565b93969395505050506040820135916060013590565b600080604083850312156126d357600080fd5b6126dc8361200f565b91506126ea6020840161200f565b90509250929050565b60008060008060008060a0878903121561270c57600080fd5b6127158761200f565b95506127236020880161200f565b94506040870135935060608701359250608087013567ffffffffffffffff81111561274d57600080fd5b61275989828a016121a5565b979a9699509497509295939492505050565b60008060006060848603121561278057600080fd5b6127898461200f565b95602085013595506040909401359392505050565b6000602082840312156127b057600080fd5b815167ffffffffffffffff8111156127c757600080fd5b8201601f810184136127d857600080fd5b80516127e38161231c565b6040516127f082826122d1565b82815286602084860101111561280557600080fd5b6128168360208301602087016120c6565b9695505050505050565b60006020828403121561283257600080fd5b815160ff811681146107b857600080fd5b7f4e487b7100000000000000000000000000000000000000000000000000000000600052603260045260246000fd5b81835260007f07ffffffffffffffffffffffffffffffffffffffffffffffffffffffffffffff8311156128a457600080fd5b8260051b80836020870137939093016020019392505050565b6040815260006128d1604083018688612872565b82810360208401526128e4818587612872565b979650505050505050565b7f4e487b7100000000000000000000000000000000000000000000000000000000600052601160045260246000fd5b60007fffffffffffffffffffffffffffffffffffffffffffffffffffffffffffffffff820361294f5761294f6128ef565b5060010190565b600073ffffffffffffffffffffffffffffffffffffffff808816835280871660208401525060a0604083015261298f60a0830186612588565b82810360608401526129a18186612588565b905082810360808401526129b581856120ea565b98975050505050505050565b6000602082840312156129d357600080fd5b81516107b881612078565b600060033d11156129f75760046000803e5060005160e01c5b90565b600060443d1015612a085790565b6040517ffffffffffffffffffffffffffffffffffffffffffffffffffffffffffffffffc803d016004833e81513d67ffffffffffffffff8160248401118184111715612a5657505050505090565b8285019150815181811115612a6e5750505050505090565b843d8701016020828501011115612a885750505050505090565b612a97602082860101876122d1565b509095945050505050565b80820180821115610462576104626128ef565b81810381811115610462576104626128ef565b600073ffffffffffffffffffffffffffffffffffffffff808816835280871660208401525084604083015283606083015260a060808301526128e460a08301846120ea56fea2646970667358221220d3feffdb1745b2b2513b60bf132b5a212237985ea252e202d4d72bad88d9b5c864736f6c6343000814003360a060405234801561001057600080fd5b506040516113b13803806113b183398101604081905261002f9161009a565b6001600160a01b0381166100895760405162461bcd60e51b815260206004820152601460248201527f536861646f773a2041646472657373205a65726f000000000000000000000000604482015260640160405180910390fd5b6001600160a01b03166080526100ca565b6000602082840312156100ac57600080fd5b81516001600160a01b03811681146100c357600080fd5b9392505050565b60805161128d610124600039600081816101530152818161025d0152818161037b01528181610455015281816105a101528181610744015281816108310152818161092501528181610ab50152610c39015261128d6000f3fe608060405234801561001057600080fd5b50600436106100df5760003560e01c8063395093511161008c578063a457c2d711610066578063a457c2d7146101e2578063a9059cbb146101f5578063b3cea21714610208578063dd62ed3e1461023157600080fd5b806339509351146101b457806370a08231146101c757806395d89b41146101da57600080fd5b806323b872dd116100bd57806323b872dd1461013b5780632dd310001461014e578063313ce5671461019a57600080fd5b806306fdde03146100e4578063095ea7b31461010257806318160ddd14610125575b600080fd5b6100ec610244565b6040516100f99190610f90565b60405180910390f35b61011561011036600461100a565b61032d565b60405190151581526020016100f9565b61012d610401565b6040519081526020016100f9565b610115610149366004611034565b6104d5565b6101757f000000000000000000000000000000000000000000000000000000000000000081565b60405173ffffffffffffffffffffffffffffffffffffffff90911681526020016100f9565b6101a26106f0565b60405160ff90911681526020016100f9565b6101156101c236600461100a565b6107c4565b61012d6101d5366004611070565b610818565b6100ec61090c565b6101156101f036600461100a565b610973565b61011561020336600461100a565b6109f9565b367fffffffffffffffffffffffffffffffffffffffffffffffffffffffffffffffe0013561012d565b61012d61023f366004611092565b610be9565b606073ffffffffffffffffffffffffffffffffffffffff7f00000000000000000000000000000000000000000000000000000000000000001663a5630b84367fffffffffffffffffffffffffffffffffffffffffffffffffffffffffffffffe001355b6040518263ffffffff1660e01b81526004016102c591815260200190565b600060405180830381865afa1580156102e2573d6000803e3d6000fd5b505050506040513d6000823e601f3d9081017fffffffffffffffffffffffffffffffffffffffffffffffffffffffffffffffe016820160405261032891908101906110f4565b905090565b6040517fe985e9c500000000000000000000000000000000000000000000000000000000815233600482015273ffffffffffffffffffffffffffffffffffffffff83811660248301526000917f00000000000000000000000000000000000000000000000000000000000000009091169063e985e9c590604401602060405180830381865afa1580156103c4573d6000803e3d6000fd5b505050506040513d601f19601f820116820180604052508101906103e891906111bf565b6103f7576103f7338484610d09565b5060015b92915050565b6040517fbd85b0390000000000000000000000000000000000000000000000000000000081527fffffffffffffffffffffffffffffffffffffffffffffffffffffffffffffffe036013560048201526000907f000000000000000000000000000000000000000000000000000000000000000073ffffffffffffffffffffffffffffffffffffffff169063bd85b03990602401602060405180830381865afa1580156104b1573d6000803e3d6000fd5b505050506040513d601f19601f8201168201806040525081019061032891906111e1565b600073ffffffffffffffffffffffffffffffffffffffff831661057f576040517f08c379a000000000000000000000000000000000000000000000000000000000815260206004820152602360248201527f45524332303a207472616e7366657220746f20746865207a65726f206164647260448201527f657373000000000000000000000000000000000000000000000000000000000060648201526084015b60405180910390fd5b61058a843384610eba565b73ffffffffffffffffffffffffffffffffffffffff7f00000000000000000000000000000000000000000000000000000000000000001663e47dd0a18585367fffffffffffffffffffffffffffffffffffffffffffffffffffffffffffffffe001356040517fffffffff0000000000000000000000000000000000000000000000000000000060e086901b16815273ffffffffffffffffffffffffffffffffffffffff9384166004820152929091166024830152604482015260648101859052608401600060405180830381600087803b15801561066757600080fd5b505af115801561067b573d6000803e3d6000fd5b505050508273ffffffffffffffffffffffffffffffffffffffff168473ffffffffffffffffffffffffffffffffffffffff167fddf252ad1be2c89b69c2b068fc378daa952ba7f163c4a11628f55a4df523b3ef846040516106de91815260200190565b60405180910390a35060019392505050565b6040517f228e1a180000000000000000000000000000000000000000000000000000000081527fffffffffffffffffffffffffffffffffffffffffffffffffffffffffffffffe036013560048201526000907f000000000000000000000000000000000000000000000000000000000000000073ffffffffffffffffffffffffffffffffffffffff169063228e1a1890602401602060405180830381865afa1580156107a0573d6000803e3d6000fd5b505050506040513d601f19601f8201168201806040525081019061032891906111fa565b6000806107d13385610be9565b90507fffffffffffffffffffffffffffffffffffffffffffffffffffffffffffffffff811461080e5761080e3385610809868561121d565b610d09565b5060019392505050565b600073ffffffffffffffffffffffffffffffffffffffff7f00000000000000000000000000000000000000000000000000000000000000001662fdd58e83367fffffffffffffffffffffffffffffffffffffffffffffffffffffffffffffffe001356040517fffffffff0000000000000000000000000000000000000000000000000000000060e085901b16815273ffffffffffffffffffffffffffffffffffffffff90921660048301526024820152604401602060405180830381865afa1580156108e8573d6000803e3d6000fd5b505050506040513d601f19601f820116820180604052508101906103fb91906111e1565b606073ffffffffffffffffffffffffffffffffffffffff7f0000000000000000000000000000000000000000000000000000000000000000166313dd3ebf367fffffffffffffffffffffffffffffffffffffffffffffffffffffffffffffffe001356102a7565b6000806109803385610be9565b9050828110156109ec576040517f08c379a000000000000000000000000000000000000000000000000000000000815260206004820152601d60248201527f45524332303a20696e73756666696369656e7420616c6c6f77616e63650000006044820152606401610576565b61080e3385858403610d09565b600073ffffffffffffffffffffffffffffffffffffffff8316610a9e576040517f08c379a000000000000000000000000000000000000000000000000000000000815260206004820152602360248201527f45524332303a207472616e7366657220746f20746865207a65726f206164647260448201527f65737300000000000000000000000000000000000000000000000000000000006064820152608401610576565b73ffffffffffffffffffffffffffffffffffffffff7f00000000000000000000000000000000000000000000000000000000000000001663e47dd0a13385367fffffffffffffffffffffffffffffffffffffffffffffffffffffffffffffffe001356040517fffffffff0000000000000000000000000000000000000000000000000000000060e086901b16815273ffffffffffffffffffffffffffffffffffffffff9384166004820152929091166024830152604482015260648101859052608401600060405180830381600087803b158015610b7b57600080fd5b505af1158015610b8f573d6000803e3d6000fd5b505060405184815273ffffffffffffffffffffffffffffffffffffffff861692503391507fddf252ad1be2c89b69c2b068fc378daa952ba7f163c4a11628f55a4df523b3ef9060200160405180910390a350600192915050565b6040517fe985e9c500000000000000000000000000000000000000000000000000000000815273ffffffffffffffffffffffffffffffffffffffff838116600483015282811660248301526000917f00000000000000000000000000000000000000000000000000000000000000009091169063e985e9c590604401602060405180830381865afa158015610c82573d6000803e3d6000fd5b505050506040513d601f19601f82011682018060405250810190610ca691906111bf565b15610cd257507fffffffffffffffffffffffffffffffffffffffffffffffffffffffffffffffff6103fb565b5073ffffffffffffffffffffffffffffffffffffffff91821660009081526020818152604080832093909416825291909152205490565b73ffffffffffffffffffffffffffffffffffffffff8316610dab576040517f08c379a0000000000000000000000000000000000000000000000000000000008152602060048201526024808201527f45524332303a20617070726f76652066726f6d20746865207a65726f2061646460448201527f72657373000000000000000000000000000000000000000000000000000000006064820152608401610576565b73ffffffffffffffffffffffffffffffffffffffff8216610e4e576040517f08c379a000000000000000000000000000000000000000000000000000000000815260206004820152602260248201527f45524332303a20617070726f766520746f20746865207a65726f20616464726560448201527f73730000000000000000000000000000000000000000000000000000000000006064820152608401610576565b73ffffffffffffffffffffffffffffffffffffffff8381166000818152602081815260408083209487168084529482529182902085905590518481527f8c5be1e5ebec7d5bd14f71427d1e84f3dd0314c0f7b2291e5b200ac8c7c3b925910160405180910390a3505050565b6000610ec68484610be9565b90507fffffffffffffffffffffffffffffffffffffffffffffffffffffffffffffffff8114610f665781811015610f59576040517f08c379a000000000000000000000000000000000000000000000000000000000815260206004820152601d60248201527f45524332303a20696e73756666696369656e7420616c6c6f77616e63650000006044820152606401610576565b610f668484848403610d09565b50505050565b60005b83811015610f87578181015183820152602001610f6f565b50506000910152565b6020815260008251806020840152610faf816040850160208701610f6c565b601f017fffffffffffffffffffffffffffffffffffffffffffffffffffffffffffffffe0169190910160400192915050565b803573ffffffffffffffffffffffffffffffffffffffff8116811461100557600080fd5b919050565b6000806040838503121561101d57600080fd5b61102683610fe1565b946020939093013593505050565b60008060006060848603121561104957600080fd5b61105284610fe1565b925061106060208501610fe1565b9150604084013590509250925092565b60006020828403121561108257600080fd5b61108b82610fe1565b9392505050565b600080604083850312156110a557600080fd5b6110ae83610fe1565b91506110bc60208401610fe1565b90509250929050565b7f4e487b7100000000000000000000000000000000000000000000000000000000600052604160045260246000fd5b60006020828403121561110657600080fd5b815167ffffffffffffffff8082111561111e57600080fd5b818401915084601f83011261113257600080fd5b815181811115611144576111446110c5565b604051601f82017fffffffffffffffffffffffffffffffffffffffffffffffffffffffffffffffe0908116603f0116810190838211818310171561118a5761118a6110c5565b816040528281528760208487010111156111a357600080fd5b6111b4836020830160208801610f6c565b979650505050505050565b6000602082840312156111d157600080fd5b8151801515811461108b57600080fd5b6000602082840312156111f357600080fd5b5051919050565b60006020828403121561120c57600080fd5b815160ff8116811461108b57600080fd5b808201808211156103fb577f4e487b7100000000000000000000000000000000000000000000000000000000600052601160045260246000fdfea2646970667358221220065575b7dc76d7436cc67400571abbef60a73a104d56812ce5a73b0f168ec90264736f6c63430008140033",
  "linkReferences": {},
  "deployedLinkReferences": {}
}